:100000000C9434000C9451000C9451000C94510049
:100010000C9451000C9451000C9451000C9451001C
:100020000C9451000C9451000C9451000C9451000C
:100030000C9451000C94A1040C9451000C945100A8
:100040000C9451000C9451000C9488000C94B30053
:100050000C9451000C9451000C9451000C945100DC
:100060000C9451000C94510011241FBECFEFD8E026
:10007000DEBFCDBF11E0A0E0B1E0EEECF0E102C0E8
:1000800005900D92AE3EB107D9F723E0AEEEB1E098
:1000900001C01D92A03CB207E1F70E9459050C94E3
:1000A00065080C9400001092C5008FE58093C40091
:1000B0001092C000E2ECF0E080818660808388E9E5
:1000C0008093C1001092B5021092B4021092EF0119
:1000D0001092EE0108959091B5028091B4028927A3
:1000E00008959091B4028091B5029817E1F3E92F39
:1000F000F0E0EA54FD4F80819F5F943C08F090E06F
:100100009093B4029091C10090689093C1000895BB
:100110001F920F920FB60F9211248F939F93EF931C
:10012000FF93E091B50281E08E0F843C08F080E0FF
:100130009091B402891789F09091C600F0E0EA54DA
:10014000FD4F90838093B502FF91EF919F918F9126
:100150000F900FBE0F901F9018958091C1008F7760
:100160008093C100F1CF1F920F920FB60F9211240E
:100170008F93EF93FF93E091EE018091EF018E1743
:10018000B9F0F0E0E051FE4F80818093C60080918D
:10019000EE018F5F843C50F48093EE01FF91EF916C
:1001A0008F910F900FBE0F901F90189580E0F4CFA5
:1001B0008091C1008F7D8093C100FF91EF918F915D
:1001C0000F900FBE0F901F9018958091EF018F5FD9
:1001D000843C08F080E09091EE0189270895E09139
:1001E000EF0191E09E0F943C08F090E0F0E0E051C8
:1001F000FE4F80838091EE019817E1F39093EF0119
:100200008091C10080628093C100089584ECE0EF8A
:10021000F1E0DF011D928A95E9F71092EF01089550
:10022000CF93DF93DC0184ECE0EFF1E0EF01199272
:100230008A95E9F71092EF019C919923E9F01196C4
:10024000E0E021E0F0E0E051FE4F90839091EE017C
:100250009217E1F32093EF019091C1009062909387
:10026000C1009D91992341F0E091EF0121E02E0F13
:10027000243C40F320E0E6CFDF91CF910895E6E6FD
:10028000FEE03197F1F700000197C9F70895109249
:10029000C5008FE58093C4001092C0008091C20019
:1002A00086608093C20088E98093C1001092B502F5
:1002B0001092B4021092EF011092EE0178948CE249
:1002C00091E0E6E6FEE03197F1F700000197C9F70B
:1002D000089584ECE6EBF2E0DF011D928A95E9F7E0
:1002E0001092B502089564E071E00E94730521E068
:1002F00030E0892B11F0C901089520E030E0C901F8
:10030000089510927A0364E071E00E947305FC0185
:1003100034969FE3AAE7B3E001900D929A95E1F736
:100320001092B9038AE793E008950F931F93CF9338
:10033000DF93CDB7DEB76E970FB6F894DEBF0FBE72
:10034000CDBF182F092F89E091E06D8F7E8F0E941D
:10035000100188EE93E00E94EA0489E191E00E9496
:10036000100188EE93E00E94EA040F931F9384E249
:1003700091E09F938F938E010F5F1F4F1F930F93F9
:100380000E948D05C8010E94100188EE93E00E9432
:10039000EA041F928AE18F937E8D7F936D8D6F9318
:1003A00083E391E09F938F93075E1F4F1F930F93FB
:1003B0000E948D05C8010E9410010FB6F894DEBF9F
:1003C0000FBECDBF6E960FB6F894DEBF0FBECDBF89
:1003D000DF91CF911F910F91089585E08093810067
:1003E000EFE6F0E0808181608083109285001092BA
:1003F000840008952A9A84EC99E00E94EA042A98DD
:1004000008955B9808955B9A089583B1817090E098
:100410000895CF93DF93EC010E943D05BE010E9439
:100420006A0521E030E0892B11F020E030E0C901BD
:10043000DF91CF9108952A9A84EC99E00E94EA0412
:100440002A9888E893E10E94EA0488E391E00E94F8
:10045000100180E293E00E943F018CE391E00E9452
:10046000100180E293E00E943F0182E491E00E944B
:10047000100180E293E00E943F0189E191E00E9437
:10048000100180E293E00E943F018FE491E00E941E
:10049000100180E293E00E943F0182E691E00E9419
:1004A000100180E293E00C943F0185E0809381008D
:1004B000EFE6F0E0808181608083109285001092E9
:1004C00084000E9447012A9A84EC99E00E94EA0481
:1004D0002A9888E893E10E94EA0488E391E00E9468
:1004E000100180E293E00E943F018CE391E00E94C2
:1004F000100180E293E00E943F0182E491E00E94BB
:10050000100180E293E00E943F0189E191E00E94A6
:10051000100180E293E00E943F018FE491E00E948D
:10052000100180E293E00E943F0182E691E00E9488
:10053000100180E293E00C943F01809100019091C2
:100540000101A0910201B0910301181619061A06C3
:100550001B06ECF483309105A105B10564F48DE62A
:1005600091E00E9410018091000190910101A09101
:100570000201B09103010197A109B1098093000123
:1005800090930101A0930201B093030108952A9A68
:1005900084EC99E00E94EA042A9888E893E10E949A
:1005A000EA0488E391E00E94100180E293E00E9457
:1005B0003F018CE391E00E94100180E293E00E94F1
:1005C0003F0182E491E00E94100180E293E00E94EA
:1005D0003F0189E191E00E94100180E293E00E94D6
:1005E0003F018FE491E00E94100180E293E00E94BD
:1005F0003F0182E691E00E94100180E293E00E94B8
:100600003F0185E090E0A0E0B0E0B8CFCF93DF936A
:100610000E948101EC01289A6AE771E00E9473054B
:10062000892B59F05B98189912C065E771E081E851
:1006300091E0DF91CF910C9495016DE771E0CE01CF
:100640000E947305892B59F05B9A1899EECF62E7E7
:1006500071E081E891E0DF91CF910C9495016EE813
:1006600071E0CE010E947305892B41F0189903C0F7
:100670006DE771E0DCCF6AE771E0D9CFDF91CF9110
:1006800008950F931F93CF93DF93CDB7DEB7C45C6C
:10069000D1090FB6F894DEBF0FBECDBF19821A8202
:1006A0001B821C82FE01359680ECDF011D928A952B
:1006B000E9F78091BA039091BB03892B09F047C0F9
:1006C00080E293E00E94EA040E946B00882399F183
:1006D0008E010F5F1F4F0E947100F80181938F01FF
:1006E0000E946B008111F7CFCE0101960E94730129
:1006F000892B09F059C0CE0101960E940105892B72
:1007000009F094C06BEC71E0CE0101960E94730574
:10071000892B09F467C080916F008E7F80936F00F2
:1007200080ED91E00E9410010E94690180916F00AC
:10073000816080936F00CC53DF4F0FB6F894DEBF1B
:100740000FBECDBFDF91CF911F910F910895809182
:100750006F008E7F80936F001092BB031092BA03DC
:100760008091000190910101A0910201B0910301DB
:10077000181619061A061B060CF072C08330910574
:10078000A105B10514F10197A109B10980930001F8
:1007900090930101A0930201B093030180916F0037
:1007A000816080936F008CCF80916F008E7F8093EB
:1007B0006F00CE0101960E9406030E94690180919C
:1007C0006F00816080936F00B6CF8DE691E00E944C
:1007D00010018091000190910101A0910201B0915E
:1007E0000301D1CF62E771E0CE0101960E9473054B
:1007F000892B09F4A0CF80916F008E7F80936F00CA
:100800000E94D30486E090E0A0E0B0E08093000175
:1008100090930101A0930201B09303010E9469012A
:1008200080916F00816080936F0085CFCE0101962B
:100830000E942F05892B09F452C00E943D0565E9ED
:1008400071E00E946A05892B09F04EC05B9880ED2B
:1008500097E00E94EA0488E991E00E9410016BCFC2
:100860002A9A84EC99E00E94EA042A9888E893E1A5
:100870000E94EA0488E391E00E94100180E293E084
:100880000E943F018CE391E00E94100180E293E01E
:100890000E943F0182E491E00E94100180E293E017
:1008A0000E943F0189E191E00E94100180E293E003
:1008B0000E943F018FE491E00E94100180E293E0EA
:1008C0000E943F0182E691E00E94100180E293E0E5
:1008D0000E943F0185E090E0A0E0B0E057CFCE015C
:1008E00001960E94400527CF0E943D0569EA71E00C
:1008F0000E946A05892B51F45B9A80ED97E00E9473
:10090000EA0488E991E00E94100115CF0E943D059C
:100910006CEA71E00E946A05892B09F00CCF80ED2A
:1009200097E0189B07C00E94EA048FEA91E00E94BA
:10093000100101CF0E94EA048EEB91E00E941001A9
:10094000FACE1F920F920FB60F9211248F939F939E
:1009500081E090E09093BB038093BA039F918F91C5
:100960000F900FBE0F901F90189523982B9A2498E4
:100970002C9A25982D9A52985A9A54985C9A559880
:100980005D9A56985E9A57985F9A3898409A399827
:10099000419A3A98429A3B98439A209A539A5B9A82
:1009A000229A2A980895289A84E690E0E6E6FEE0E6
:1009B0003197F1F70000A8950197C1F7289884E6D0
:1009C00090E0E6E6FEE03197F1F70000A895019788
:1009D000C1F7089507C0E6E6FEE03197F1F70000A1
:1009E000A89501970097B9F7089514BE99E288E198
:1009F0000FB6F894A895809360000FBE90936000A6
:100A000008950F931F93CF93DF93EC0166ED71E090
:100A10000E94730501E010E00097F1F0892BB1F01E
:100A20006CED71E0CE010E947305892B79F0EEEB3D
:100A3000F3E001900020E9F73197AF014E5B53409E
:100A400060E070E08EEB93E00E946305C801DF91E7
:100A5000CF911F910F91089500E010E0DFCF64EE79
:100A600071E00E94730521E030E0892B11F0C9018B
:100A7000089520E030E0C90108958EEB93E00895D9
:100A8000FC0121852A3279F08091BC039091BD034D
:100A9000FC01E254FC4F208301969093BD038093A8
:100AA000BC0302972CF01092BD031092BC03089572
:100AB00008950E94B5040E94F5040E9455020E9408
:100AC0004103A895FCCFDC0101C06D93415050401B
:100AD000E0F70895FB01DC018D9101908019011070
:100AE000D9F3990B0895FB0151915523A9F0BF014A
:100AF000DC014D9145174111E1F759F4CD01019009
:100B0000002049F04D9140154111C9F3FB014111FD
:100B1000EFCF81E090E001970895AEE0B0E0E3E927
:100B2000F5E00C943C080D891E8986E08C831A83BD
:100B300009838FEF9FE79E838D83AE01475E5F4FF2
:100B40006F89788DCE0101960E94B0052F8138857E
:100B5000020F131FF80110822E96E4E00C9458083F
:100B6000ABE0B0E0E6EBF5E00C942E087C013B0135
:100B70008A01FC0117821682838181FFC8C1CE01E0
:100B800001965C01F7019381F30193FD859193FF39
:100B900081913F01882309F453C1853239F493FDD3
:100BA000859193FF81913F01853229F4B70190E04F
:100BB0000E94A007E7CF912C212C312CFFE1F315E7
:100BC00038F08B3211F190F4803209F1833229F13F
:100BD00037FC3CC020ED280F2A3050F536FE20C0EF
:100BE0008AE0989E200D1124922E06C08D3291F03D
:100BF000803371F7689430F8F30193FD859193FF8A
:100C000081913F018111DACF21C0689431F8689455
:100C100032F8F2CF689433F8EFCF689434F8ECCF21
:100C2000EAE02E9E200D1124222E689435F8E4CFA0
:100C30008E3229F436FC04C1689436F8DDCF8C3648
:100C400019F4689437F8D8CF8836B1F2982F9F7D81
:100C500095549330E0F08336A1F18337C1F18335A9
:100C600009F063C02801F2E04F0E511CF801C0806A
:100C7000D180692D70E036FC02C06FEF7FEFC601B6
:100C80000E948A074C01689437F882010AC00C5F01
:100C90001F4FFFE3F98388248394912C6501E89426
:100CA00037F833FE2DC0522C8114910471F5552074
:100CB00009F468CFB70180E290E00E94A0075A943F
:100CC000F6CFF801808189830E5F1F4FE4CF2801A2
:100CD000F2E04F0E511CF801C080D180692D70E008
:100CE00036FC02C06FEF7FEFC6010E9495074C01F2
:100CF0008201D5CFB70180E290E00E94A0072A943C
:100D00002814190409F0B0F7CECFF60137FC85910D
:100D100037FE81916F01B70190E00E94A00751104A
:100D20005A94F1E08F1A9108BFCF843619F08936B2
:100D300009F077C0F80137FE6BC060817181828154
:100D400093810C5F1F4FF32DFF763F2E97FF09C055
:100D500090958095709561957F4F8F4F9F4F6894C8
:100D600037F82AE030E0A5010E94D007C82ECA1843
:100D70008C2C432C36FE0CC0E89440F8C91440F487
:100D800034FE05C032FC03C0F32DFE7E4F2E892CAD
:100D900044FE95C0FE01EC0DF11D8081803309F009
:100DA00087C0242D297E422E842D8870582E43FC26
:100DB00095C040FE8FC09C2C821418F42C0C922CF1
:100DC000981844FE91C0B70180E390E00E94A0070C
:100DD00042FE09C088E790E041FE02C088E590E04D
:100DE000B7010E94A007C91408F48AC0CA94D12C84
:100DF0009FEFC91AD90ACA0CDB1CF60182916F0158
:100E0000B70190E00E94A007AC14BD04B1F74FCF2A
:100E100060817181072E000C880B990B0E5F1F4FAC
:100E200092CFD32CE894D4F82AE030E0853739F11A
:100E3000232D297FD22E8F3601F148F48835A9F071
:100E4000F701868197812B96E2E10C944A0880375E
:100E500049F08837A9F7D4FE02C06894D2F820E19F
:100E600030E00DC06894D4F8F6CF34FE03C0822F72
:100E70008660D82E20E132E002C028E030E0F801A0
:100E8000D7FE0FC060817181828193810C5F1F4FFB
:100E9000A5010E94D007C82ECA183D2CE89437F847
:100EA00067CF6081718190E080E00E5F1F4FF0CFCF
:100EB00042FC02C0839478CF8394839475CF842DB1
:100EC000867809F471CFF6CFB70180E290E00E94F6
:100ED000A00783948214C0F3512C73CF522C58185E
:100EE000821408F46ECFF8CF842D867809F47BCF76
:100EF0008BE241FE80E247FC8DE2B70190E071CFCA
:100F0000B70180E390E00E94A0079A946CCF8FEF26
:100F10009FEF99CFFC010590615070400110D8F708
:100F2000809590958E0F9F1F0895FC016150704031
:100F300001900110D8F7809590958E0F9F1F08950E
:100F40000F931F93CF93DF93182F092FEB018B8102
:100F500081FD09C01FEF0FEF812F902FDF91CF91FF
:100F60001F910F91089582FF14C02E813F818C81C3
:100F70009D81281739073CF4E881F981CF0101965A
:100F80009983888310838E819F8101969F838E83AE
:100F9000E3CFE885F985812F0995892BA1F3DACF75
:100FA000FA01AA27283051F1203181F1E8946F939A
:100FB0006E7F6E5F7F4F8F4F9F4FAF4FB1E03ED040
:100FC000B4E03CD0670F781F891F9A1FA11D680FDE
:100FD000791F8A1F911DA11D6A0F711D811D911D11
:100FE000A11D20D009F468943F912AE0269F112486
:100FF0003019305D3193DEF6CF010895462F4770EA
:10100000405D4193B3E00FD0C9F7F6CF462F4F7044
:10101000405D4A3318F0495D31FD4052419302D0A2
:10102000A9F7EACFB4E0A695979587957795679548
:10103000BA95C9F700976105710508959B01AC0148
:101040000A2E06945795479537952795BA95C9F76F
:10105000620F731F841F951FA01D08952F923F924A
:101060004F925F926F927F928F929F92AF92BF92B8
:10107000CF92DF92EF92FF920F931F93CF93DF9364
:10108000CDB7DEB7CA1BDB0B0FB6F894DEBF0FBEC1
:10109000CDBF09942A88398848885F846E847D840E
:1010A0008C849B84AA84B984C884DF80EE80FD8010
:1010B0000C811B81AA81B981CE0FD11D0FB6F89486
:0E10C000DEBF0FBECDBFED010895F894FFCF47
:1010CE0006000000434D443A0041542B4353435312
:1010DE003D2247534D220D0A0041542B434D4746A6
:1010EE003D310D0041542B434D47533D2225732274
:1010FE000D0A00257325630041540D0041544530FF
:10110E000D0041542B434D47443D312C340D0041CD
:10111E00542B434E4D493D312C322C302C302C303B
:10112E000D0041542B444445543D310D0041540DA6
:10113E000A004F4B004641494C004F4E004F464669
:10114E00002B373938373533353939363900535462
:10115E00415455530030310041542B5654533D22C7
:10116E00322C322C32220D0A003032003033004144
:10117E00542B5654533D22322C32220D0A00415428
:10118E002B5654533D2232220D0A0052494E47002F
:10119E004154410D0A0044544D463A0044544D46C4
:0E11AE003A202A002B44544D463A20230000DC
:00000001FF
