:100000000C9434000C9451000C9451000C94510049
:100010000C9451000C9451000C9451000C9451001C
:100020000C9451000C9451000C9451000C9451000C
:100030000C9451000C9418030C9451000C94510032
:100040000C9451000C9451000C9487000C94B10056
:100050000C9451000C9451000C9451000C945100DC
:100060000C9451000C94510011241FBECFEFD8E026
:10007000DEBFCDBF11E0A0E0B1E0E2E5FDE002C0EF
:1000800005900D92AC3CB107D9F722E0ACECB1E0A1
:1000900001C01D92A63DB207E1F70E949B030C949C
:1000A000A7060C9400001092C50087E68093C40058
:1000B0001092C000E2ECF0E080818660808388E9E5
:1000C0008093C10010920F0210920E021092CD0187
:1000D0001092CC01089590910F0280910E02892711
:1000E00008950E946B008823E1F390910E02E92F9E
:1000F000F0E0E05FFD4F80819F5F97FD90E090937F
:100100000E029091C10090689093C10008951F92D3
:100110000F920FB60F9211248F939F93EF93FF933B
:10012000E0910F0281E08E0F87FD80E090910E023A
:10013000891306C08091C1008F778093C10008C0E9
:100140009091C600F0E0E05FFD4F908380930F0236
:10015000FF91EF919F918F910F900FBE0F901F9085
:1001600018951F920F920FB60F9211248F93EF9351
:10017000FF93E091CC018091CD018E1306C0809158
:10018000C1008F7D8093C1000EC0F0E0E253FE4FAE
:1001900080818093C6008091CC018F5F803408F00D
:1001A00080E08093CC01FF91EF918F910F900FBE73
:1001B0000F901F9018958091CD018F5F803408F0CB
:1001C00080E09091CC0189270895E091CD0191E0E4
:1001D0009E0F903408F090E0F0E0E253FE4F8083F1
:1001E0008091CC019817E1F39093CD018091C100EB
:1001F00080628093C100089580E4EEECF1E0DF01BD
:100200001D928A95E9F71092CD0108950F931F93DF
:10021000CF93DF9300D0CDB7DEB789839A830E9456
:10022000FC008981082F9A81192FF80181918F0193
:10023000882319F00E94E500F8CF0F900F90DF910E
:10024000CF911F910F910895E6E6FEE03197F1F707
:1002500000000197C9F708950E94530078948CE23A
:1002600091E00C94240180E8E0E1F2E0DF011D92CE
:100270008A95E9F710920F02089564E071E00E94F8
:10028000BD0321E030E0892B11F420E030E0C9010A
:1002900008951092900264E071E00E94BD03FC0199
:1002A00034969FE3A0E9B2E001900D929A95E1F7B0
:1002B0001092CF0280E992E008950F931F93CF939D
:1002C000DF93CDB7DEB7CB55D1090FB6F894DEBFBB
:1002D0000FBECDBF182F092F89E091E06B966FAF4D
:1002E0006B976C967FAF6C970E94060188EE93E047
:1002F0000E94300389E191E00E94060188EE93E0BC
:100300000E9430030F931F9384E291E09F938F9399
:100310008E010F5B1F4F1F930F930E94D703C801DD
:100320000E94060188EE93E00E9430036C967FAD38
:100330006C977F936B966FAD6B976F9383E391E0B0
:100340009F938F93005411091F930F930E94D7031B
:10035000C8010E9406010FB6F894DEBF0FBECDBFE4
:10036000C55ADF4F0FB6F894DEBF0FBECDBFDF9189
:10037000CF911F910F91089585E080938100EFE662
:10038000F0E080818160808310928500109284006B
:100390000895299A8CED95E00E94300329980895DC
:1003A00028980895289A08950E94C90188E893E141
:1003B0000E94300387E391E00E94060180E293E00F
:1003C0000E9424018BE391E00E94060180E293E009
:1003D0000E94240181E491E00E94060180E293E002
:1003E0000E94240189E191E00E94060180E293E0ED
:1003F0000E9424018EE491E00E94060180E293E0D5
:100400000E94240181E691E00E94060180E293E0CF
:100410000C9424010E94BC010E942C010C94D40174
:100420008091000190910101A0910201B09103011E
:10043000181619061A061B067CF00E94D40186E0E5
:1004400090E0A0E0B0E08093000190930101A093C0
:100450000201B093030108C00397A105B10524F47C
:100460008CE691E00E9406018091000190910101CB
:10047000A0910201B09103010197A109B1098093F4
:10048000000190930101A0930201B093030108952C
:100490000E94490161E771E00E94BD03892B31F0A0
:1004A00066E771E08BE791E00C945D010895EF92AF
:1004B000FF920F931F93CF93DF93CDB7DEB7C05852
:1004C000D1090FB6F894DEBF0FBECDBF19821A82D4
:1004D0001B821C82FE0135968CE7DF011D928A95F6
:1004E000E9F78091D0029091D102892B81F080911F
:1004F0006F008E7F80936F001092D1021092D00215
:100500000E94100280916F00816080936F0080E2F2
:1005100093E00E9430030E946B00882309F47AC0A4
:10052000FE0131967F018F010E947100D7018D93EA
:100530007D010E946B008111F7CFC8010E943D012F
:10054000892B49F080916F008E7F80936F00C801E6
:100550000E94480258C0C8010E944503892B01F13E
:10056000C8010E947203892BB9F00E947E0368E8DB
:1005700071E00E94B403892B19F40E94D0014AC093
:100580000E947E036BE871E00E94B403892B09F09E
:1005900041C00E94D2013EC0C8010E9481033AC0FE
:1005A0006EE871E0C8010E94BD03892B91F0809133
:1005B0006F008E7F80936F0083E991E00E940601B7
:1005C00088EE93E00E94300389E991E00E940601E1
:1005D0001AC062EB71E0C8010E94BD03892BD1F003
:1005E00080916F008E7F80936F000E943B0386E0B6
:1005F00090E0A0E0B0E08093000190930101A0930F
:100600000201B09303010E94330180916F00816069
:1006100080936F00C058DF4F0FB6F894DEBF0FBE57
:10062000CDBFDF91CF911F910F91FF90EF90089573
:100630001F920F920FB60F9211248F939F9381E018
:1006400090E09093D1028093D0029F918F910F9070
:100650000FBE0F901F901895259A209A289A0895FA
:10066000009741F0E6E6FEE03197F1F70000A8952B
:100670000197F6CF08952D9A84E690E00E9430030A
:100680002D9884E690E00C9430030F931F93CF9342
:10069000DF938C0165EB71E00E94BD03C1E0D0E007
:1006A000009711F4C0E0D0E0892BB1F06BEB71E062
:1006B000C8010E94BD03892B79F0E4EDF2E00190BE
:1006C0000020E9F73197AF01445D524060E070E0EF
:1006D00084ED92E00E94AD03CE01DF91CF911F9196
:1006E0000F91089563EC71E00E94BD0321E030E0BA
:1006F000892B11F420E030E0C901089584ED92E0E7
:100700000895FC0121852A32A9F08091D2029091AE
:10071000D302FC01EC52FD4F2083019682309105FB
:100720002CF49093D3028093D20208951092D302B6
:100730001092D20208950E942C0399E288E10FB62C
:10074000F894A895809360000FBE909360000E947B
:100750000A020E945702A895FCCFDC0101C06D93EC
:1007600041505040E0F70895FB01DC018D9101906C
:1007700080190110D9F3990B0895FB01519155236C
:10078000A9F0BF01DC014D9145174111E1F759F482
:10079000CD010190002049F04D9140154111C9F360
:1007A000FB014111EFCF81E090E001970895AEE0A9
:1007B000B0E0EDEDF3E00C947E060D891E8986E035
:1007C0008C831A8309838FEF9FE79E838D83AE010D
:1007D000475E5F4F6F89788DCE0101960E94F903C5
:1007E000EF81F885E00FF11F10822E96E4E00C9463
:1007F0009A06ACE0B0E0EFEFF3E00C9470066C0109
:100800007B018A01FC0117821682838181FFBEC1B0
:10081000CE0101964C01F6019381F70193FD85917C
:1008200093FF81917F01882309F4ACC1853239F4AB
:1008300093FD859193FF81917F01853229F4B60163
:1008400090E00E94E205E7CF512C312C20E02032CD
:10085000A0F48B3269F030F4803259F0833269F4BD
:1008600020612CC08D3239F0803339F4216026C0EC
:100870002260246023C0286021C027FD27C030EDFE
:10088000380F3A3078F426FF06C0FAE05F9E300D4C
:100890001124532E13C08AE0389E300D1124332EBC
:1008A00020620CC08E3221F426FD6CC1206406C08B
:1008B0008C3611F4206802C0883641F4F70193FDAC
:1008C000859193FF81917F018111C1CF982F9F7DE9
:1008D0009554933028F40C5F1F4F9FE399830DC00C
:1008E000833631F0833771F0833509F05BC022C065
:1008F000F801808189830E5F1F4F44244394512C5B
:10090000540115C03801F2E06F0E711CF801A0808F
:10091000B18026FF03C0652D70E002C06FEF7FEF4E
:10092000C5012C870E94D7052C0183012C852F77C8
:10093000222E17C03801F2E06F0E711CF801A08062
:10094000B18026FF03C0652D70E002C06FEF7FEF1E
:10095000C5012C870E94CC052C012C852068222EF5
:10096000830123FC1BC0832D90E048165906B0F488
:10097000B60180E290E00E94E2053A94F4CFF501DE
:1009800027FC859127FE81915F01B60190E00E94CE
:10099000E20531103A94F1E04F1A51084114510424
:1009A00071F7E6C0843611F0893639F5F80127FF72
:1009B00007C060817181828193810C5F1F4F08C0E5
:1009C00060817181072E000C880B990B0E5F1F4F01
:1009D0002F76722E97FF09C090958095709561953E
:1009E0007F4F8F4F9F4F2068722E2AE030E0A40186
:1009F0000E941206A82EA81844C0853729F42F7E1D
:100A0000B22E2AE030E025C0F22FF97FBF2E8F36BC
:100A1000C1F018F4883579F0B5C0803719F08837FF
:100A200021F0B0C02F2F2061B22EB4FE0DC08B2D4F
:100A30008460B82E09C024FF0AC09F2F9660B92E8B
:100A400006C028E030E005C020E130E002C020E12F
:100A500032E0F801B7FE07C0608171818281938125
:100A60000C5F1F4F06C06081718180E090E00E5FD7
:100A70001F4FA4010E941206A82EA818FB2DFF7775
:100A80007F2E76FE0BC0372D3E7FA51450F474FEEA
:100A90000AC072FC08C0372D3E7E05C0BA2C372D27
:100AA00003C0BA2C01C0B52C34FF0DC0FE01EA0D05
:100AB000F11D8081803311F4397E09C032FF06C0F8
:100AC000B394B39404C0832F867809F0B39433FDB4
:100AD00013C030FF06C0B31498F43A0C532C5B18C3
:100AE00010C0B31470F4B60180E290E03C870E941D
:100AF000E205B3943C85F5CFB31418F43B1802C05B
:100B00005A2C312C34FF12C0B60180E390E03C87B0
:100B10000E94E2053C8532FF17C031FD03C088E723
:100B200090E002C088E590E0B6010CC0832F867883
:100B300059F031FF02C08BE201C080E237FD8DE247
:100B4000B60190E00E94E205A51438F4B60180E3F6
:100B500090E00E94E2055A94F7CFAA94F401EA0DBE
:100B6000F11D8081B60190E00E94E205A110F5CF51
:100B7000332009F450CEB60180E290E00E94E205F5
:100B80003A94F6CFF6018681978102C08FEF9FEFEE
:100B90002C96E2E10C948C06FC01059061507040AB
:100BA0000110D8F7809590958E0F9F1F0895FC0136
:100BB0006150704001900110D8F7809590958E0F8C
:100BC0009F1F08950F931F93CF93DF93182F092F23
:100BD000EB018B8181FD03C08FEF9FEF1EC082FF71
:100BE0000FC02E813F818C819D812817390774F4B5
:100BF000E881F981CF01019699838883108306C02B
:100C0000E885F985812F0995892B31F78E819F81A0
:100C100001969F838E83812F902FDF91CF911F911B
:100C20000F910895FA01AA27283051F1203181F15E
:100C3000E8946F936E7F6E5F7F4F8F4F9F4FAF4FE4
:100C4000B1E03ED0B4E03CD0670F781F891F9A1FF7
:100C5000A11D680F791F8A1F911DA11D6A0F711DAB
:100C6000811D911DA11D20D009F468943F912AE0B7
:100C7000269F11243019305D3193DEF6CF0108959F
:100C8000462F4770405D4193B3E00FD0C9F7F6CFD0
:100C9000462F4F70405D4A3318F0495D31FD405298
:100CA000419302D0A9F7EACFB4E0A695979587952E
:100CB00077956795BA95C9F700976105710508950D
:100CC0009B01AC010A2E06945795479537952795B9
:100CD000BA95C9F7620F731F841F951FA01D089551
:100CE0002F923F924F925F926F927F928F929F923C
:100CF000AF92BF92CF92DF92EF92FF920F931F932A
:100D0000CF93DF93CDB7DEB7CA1BDB0B0FB6F894DA
:100D1000DEBF0FBECDBF09942A88398848885F841A
:100D20006E847D848C849B84AA84B984C884DF808B
:100D3000EE80FD800C811B81AA81B981CE0FD11D6F
:100D40000FB6F894DEBF0FBECDBFED010895F89445
:020D5000FFCFD3
:100D520006000000534D533A0041542B4353435372
:100D62003D2247534D220D0A0041542B434D474625
:100D72003D310D0041542B434D47533D22257322F3
:100D82000D0A0025731A0041540D00415445300DDF
:100D92000041542B434D47443D312C340D00415406
:100DA2002B434E4D493D312C322C302C302C300D02
:100DB2000041542B444445543D310D0041540D0A29
:100DC2000070696E6700706F6E67002B37393837B5
:100DD2003533353939363900303100303200524935
:100DE2004E47004154410D0A0041542B5654533D85
:100DF20022312C342C232C412C362C372C30220D32
:100E02000A004F4B0044544D463A0044544D463A72
:0C0E1200202A002B44544D463A202300B7
:00000001FF
