:100000000C9434000C9451000C9451000C94510049
:100010000C9451000C9451000C9451000C9451001C
:100020000C9451000C9451000C9451000C9451000C
:100030000C9451000C944D030C9451000C945100FD
:100040000C9451000C9451000C9485000C94AD005C
:100050000C9451000C9451000C9451000C945100DC
:100060000C9451000C94510011241FBECFEFD8E026
:10007000DEBFCDBF12E0A0E0B1E0EAEBF1E102C0EB
:1000800005900D92A63AB107D9F725E0A6EAB2E0AD
:1000900001C01D92A43FB207E1F70E94C2040C9474
:1000A000DB080C9400001092C50087E08093C40028
:1000B0001092C000E2ECF0E080818660808388E9E5
:1000C0008093C1001092A9031092A8031092A70276
:1000D0001092A60208959091A9038091A803892700
:1000E00008950E946B008823E1F39091A803E92F03
:1000F000F0E0E655FC4F80819F5F9093A8039091BC
:10010000C10090689093C10008951F920F920FB69E
:100110000F9211248F939F93EF93FF93E091A90384
:1001200081E08E0F9091A803891306C08091C100D1
:100130008F778093C10008C09091C600F0E0E6552B
:10014000FC4F90838093A903FF91EF919F918F9132
:100150000F900FBE0F901F9018951F920F920FB621
:100160000F9211248F93EF93FF93E091A602809159
:10017000A7028E1306C08091C1008F7D8093C100BD
:100180000BC0F0E0E855FD4F80818093C600809160
:10019000A6028F5F8093A602FF91EF918F910F903F
:1001A0000FBE0F901F9018958091A7029091A60204
:1001B0008F5F89270895E091A70291E09E0FF0E0FC
:1001C000E855FD4F80838091A6029817E1F3909344
:1001D000A7028091C10080628093C100089580E0F1
:1001E00091E0E8EAF2E0DF019C011D9221503040ED
:1001F000E1F71092A70208950F931F93CF93DF9317
:1002000000D0CDB7DEB789839A830E94EF00898141
:10021000082F9A81192FF80181918F01882319F0F5
:100220000E94DB00F8CF0F900F90DF91CF911F91CC
:100230000F910895E6E6FEE03197F1F7000001978F
:10024000C9F708950E94530078948CE291E00C94D1
:100250001A0180E091E0EAEAF3E0DF019C011D92DF
:1002600021503040E1F71092A903089564E171E054
:100270000E94F10521E030E0892B11F420E030E00C
:10028000C90108951092AA0464E171E00E94F10589
:10029000FC0134969FE3AAEAB4E001900D929A958E
:1002A000E1F71092E9048AEA94E00895EF92FF9250
:1002B0000F931F93CF93DF93CDB7DEB7CB55D10903
:1002C0000FB6F894DEBF0FBECDBF9F938F9389E129
:1002D00091E09F938F938E010F5B1F4F1F930F939E
:1002E0006B966FAF6B976C967FAF6C970E940B0607
:1002F0006C967FAD6C977F936B966FAD6B976F939A
:1003000086E291E09F938F93CE0101967C019F93AB
:100310008F930E940B068AE291E00E94FC009FEFFF
:100320002FEF8CE2915020408040E1F700C00000A8
:1003300086E391E00E94FC009FEF2FEF8CE291504A
:1003400020408040E1F700C00000C8010E94FC008E
:100350009FEF2FEF8CE2915020408040E1F700C0EA
:100360000000C7010E94FC000FB6F894DEBF0FBE6C
:10037000CDBFC55ADF4F0FB6F894DEBF0FBECDBF5D
:10038000DF91CF911F910F91FF90EF90089585E03D
:1003900080938100EFE6F0E080818160808310929D
:1003A000850010928400089585E491E00E94FC008D
:1003B00088EE93E00E941A018AE291E00E94FC001C
:1003C00088EE93E00E941A010E943C0488EE93E0BC
:1003D0000C941A010E94C7012FEF3FE782E392E0DD
:1003E0002150304080409040D9F700C000000E946A
:1003F00022010C94D4018091020190910301A091FB
:100400000401B0910501181619061A061B067CF0A6
:100410000E94D40186E090E0A0E0B0E08093020169
:1004200090930301A0930401B093050111C00397B9
:10043000A105B1056CF42FEF8FE796E121508040C4
:100440009040E1F700C000008CE491E00E94FC00C5
:100450008091020190910301A0910401B0910501E6
:100460000197A109B1098093020190930301A09320
:100470000401B09305010895809106019091070150
:10048000A0910801B0910901181619061A061B0659
:1004900084F081E591E00E9478038AEA90E0A0E090
:1004A000B0E08093060190930701A0930801B093F8
:1004B00009018091060190910701A0910801B09176
:1004C00009010197A109B1098093060190930701E1
:1004D000A0930801B09309010895809100019091C3
:1004E00001010E9442016FEA71E00E94F105892B2F
:1004F000C9F080916F008E7F80936F0064EB71E094
:1005000089EB91E00E9456012FEF8FEF96E8215082
:1005100080409040E1F700C0000080916F00816052
:1005200080936F000895E0910001F0910101118224
:1005300010821092EB041092EA040895CF93DF9397
:1005400080916F008E7F80936F002FEF8FE79DE08B
:10055000215080409040E1F700C000008091EC0500
:100560009091ED05019751F41092ED051092EC0574
:100570000E94FB010E943C020E94400480916F0097
:10058000816080936F000E946B00882309F482C011
:10059000C0910001D09101018091EA049091EB0497
:1005A000C80FD91F0E94710088838091EA0490913E
:1005B000EB0401969093EB048093EA040E946B0095
:1005C0008111E6CF8091EA049091EB041816190688
:1005D0000CF060C080910001909101010E943601F1
:1005E000892B51F080916F008E7F80936F000E9465
:1005F0006E040E946D0216C0C0910001D0910101ED
:1006000066EC71E0CE010E94F105892B99F0809192
:100610006F008E7F80936F000E946E048BEC91E0E0
:100620000E94FC000E94290180916F0081608093EC
:100630006F002CC061ED71E0CE010E94F105892BA5
:1006400071F080916F008E7F80936F000E946E0426
:1006500080910001909101010E948304E3CF68ED35
:1006600071E0CE010E94F105892B81F00E946303A5
:1006700086E090E0A0E0B0E0809302019093030157
:10068000A0930401B09305010E942901DF91CF914D
:100690000C949302DF91CF9108951F920F920FB6A1
:1006A0000F9211248F939F9381E090E09093ED053A
:1006B0008093EC059F918F910F900FBE0F901F902C
:1006C0001895259A08952D9A2FEF8FE794E02150E1
:1006D00080409040E1F700C000002D982FEF8FE799
:1006E00094E0215080409040E1F700C00000089560
:1006F000EF92FF920F931F93CF93DF93CDB7DEB7A7
:10070000C051D2400FB6F894DEBF0FBECDBF8C01F2
:100710008BED91E00E94FC002FEF3FEF89E5215027
:1007200030408040E1F700C0000086EE91E00E947A
:10073000FC009FEF2FEF30EE915020403040E1F76A
:1007400000C0000083EF91E00E94FC008FEF9FEF5C
:1007500020EE815090402040E1F700C0000089E188
:1007600092E00E94FC003FEF8FEF91EC21E03150CE
:10077000804090402040D9F700C0000088E292E01D
:100780000E94FC003FEF8FEF9CE231508040904090
:10079000E1F700C0000083E392E00E94FC002FEF2D
:1007A0003FEF8BE291E02150304080409040D9F7FC
:1007B00000C00000F80101900020E9F73197E01B2C
:1007C000F10BFF93EF9389E592E09F938F937E0166
:1007D0002FEFE21A2DEFF20AFF92EF920E940B0622
:1007E000C7010E94FC003FEF8FEF90EE3150804038
:1007F0009040E1F700C00000B801CE0101960E94D0
:10080000EA05CE0101960E94FC002FEF3FEF86E83B
:10081000215030408040E1F700C0000086E192E0C6
:100820000E94FC009FEF2FEF36E8915020403040AF
:10083000E1F700C0000089E692E00E94FC008FEF23
:100840009FEF29E5815090402040E1F700C0000073
:100850000F900F900F900F900F900F90C05FDD4F93
:100860000FB6F894DEBF0FBECDBFDF91CF911F91C1
:100870000F91FF90EF90089587E792E00C94FC00B1
:1008800080910A0190910B01A0910C01B0910D0192
:10089000B7FF10C08091EE059091EF05892B51F4C0
:1008A00082E892E00E94FC0081E090E09093EF05E6
:1008B0008093EE0580910A0190910B01A0910C01AB
:1008C000B0910D010197A109B10980930A0190939C
:1008D0000B01A0930C01B0930D0108958FE892E0F5
:1008E0000E94FC001092EF051092EE058AE090E065
:1008F000A0E0B0E080930A0190930B01A0930C015B
:10090000B0930D010895EF92FF920F931F93CF9331
:10091000DF93CDB7DEB7EDB6FEB6DC010D9000205B
:10092000E9F79D01281B390B2C5F3F4F4DB75EB790
:10093000421B530B0FB6F8945EBF0FBE4DBF0DB7F1
:100940001EB70F5F1F4F9F938F938CE992E09F9389
:100950008F931F930F930E940B06C8010E9461059D
:100960000F900F900F900F900F900F900FB6F8947C
:10097000FEBE0FBEEDBEDF91CF911F910F91FF9094
:10098000EF9008950E9461030E94EA010E949E0276
:10099000FDCF0F931F93CF93DF938230910510F417
:1009A00082E090E0E091F205F091F30520E030E084
:1009B000A0E0B0E0309719F14081518102811381AC
:1009C00048175907C8F08417950769F4109731F054
:1009D00012960C93129713961C9327C00093F2055E
:1009E0001093F30522C02115310519F04217530762
:1009F00018F49A01BD01EF01DF01F801DBCF2115E9
:100A00003105F9F0281B390B2430310580F48A8137
:100A10009B816115710521F0FB019383828304C0E2
:100A20009093F3058093F205FE01329644C0FE01D7
:100A3000E20FF31F81939193225031093983288368
:100A40003AC02091F0053091F105232B41F420911B
:100A50001001309111013093F1052093F0052091A0
:100A60000E0130910F012115310541F42DB73EB72C
:100A70004091120150911301241B350BE091F005B8
:100A8000F091F105E217F307A0F42E1B3F0B281796
:100A9000390778F0AC014E5F5F4F2417350748F0F7
:100AA0004E0F5F1F5093F1054093F0058193919392
:100AB00002C0E0E0F0E0CF01DF91CF911F910F91F4
:100AC0000895CF93DF93009709F481C0FC0132971A
:100AD00013821282A091F205B091F305109781F470
:100AE00020813181820F931F2091F0053091F10513
:100AF0002817390751F5F093F105E093F00567C029
:100B0000ED0120E030E0CE17DF0740F44A815B8141
:100B10009E0141155105F1F0EA01F5CFD383C2835F
:100B200040815181840F951FC817D90759F48881D6
:100B30009981840F951F0296918380838A819B817E
:100B4000938382832115310529F4F093F305E09313
:100B5000F2053DC0E901FB83EA8349915991C40F35
:100B6000D51FEC17FD0761F480819181840F951FDB
:100B70000296E90199838883828193819B838A838A
:100B8000E0E0F0E012968D919C911397009719F098
:100B9000FD01DC01F7CF8D919C9111979D012E5F96
:100BA0003F4F820F931F2091F0053091F1052817D8
:100BB000390769F4309729F41092F3051092F20581
:100BC00002C013821282B093F105A093F005DF9169
:100BD000CF910895FB01DC0101900D920020E1F717
:100BE0000895FB0151915523A9F0BF01DC014D91FE
:100BF00045174111E1F759F4CD010190002049F06A
:100C00004D9140154111C9F3FB014111EFCF81E036
:100C100090E001970895AEE0B0E0E1E1F6E00C94D9
:100C2000B2080D891E8986E08C831A8309838FEFB1
:100C30009FE79E838D83AE01475E5F4F6F89788DFE
:100C4000CE0101960E942D06EF81F885E00FF11F7D
:100C500010822E96E4E00C94CE08ACE0B0E0E3E322
:100C6000F6E00C94A4086C017B018A01FC01178258
:100C70001682838181FFBEC1CE0101964C01F6012F
:100C80009381F70193FD859193FF81917F018823E3
:100C900009F4ACC1853239F493FD859193FF8191BC
:100CA0007F01853229F4B60190E00E941608E7CF53
:100CB000512C312C20E02032A0F48B3269F030F43A
:100CC000803259F0833269F420612CC08D3239F0C2
:100CD000803339F4216026C02260246023C028605C
:100CE00021C027FD27C030ED380F3A3078F426FFB9
:100CF00006C0FAE05F9E300D1124532E13C08AE027
:100D0000389E300D1124332E20620CC08E3221F417
:100D100026FD6CC1206406C08C3611F4206802C028
:100D2000883641F4F70193FD859193FF81917F010E
:100D30008111C1CF982F9F7D9554933028F40C5F7B
:100D40001F4F9FE399830DC0833631F0833771F0D5
:100D5000833509F05BC022C0F801808189830E5F72
:100D60001F4F44244394512C540115C03801F2E024
:100D70006F0E711CF801A080B18026FF03C0652DA5
:100D800070E002C06FEF7FEFC5012C870E940B0857
:100D90002C0183012C852F77222E17C03801F2E019
:100DA0006F0E711CF801A080B18026FF03C0652D75
:100DB00070E002C06FEF7FEFC5012C870E94000832
:100DC0002C012C852068222E830123FC1BC0832D3F
:100DD00090E048165906B0F4B60180E290E00E9417
:100DE00016083A94F4CFF50127FC859127FE8191EE
:100DF0005F01B60190E00E94160831103A94F1E0CC
:100E00004F1A51084114510471F7E6C0843611F0AD
:100E1000893639F5F80127FF07C060817181828129
:100E200093810C5F1F4F08C060817181072E000CF9
:100E3000880B990B0E5F1F4F2F76722E97FF09C0FC
:100E400090958095709561957F4F8F4F9F4F20684B
:100E5000722E2AE030E0A4010E944608A82EA818AD
:100E600044C0853729F42F7EB22E2AE030E025C019
:100E7000F22FF97FBF2E8F36C1F018F4883579F044
:100E8000B5C0803719F0883721F0B0C02F2F20610E
:100E9000B22EB4FE0DC08B2D8460B82E09C024FF85
:100EA0000AC09F2F9660B92E06C028E030E005C02A
:100EB00020E130E002C020E132E0F801B7FE07C0D7
:100EC00060817181828193810C5F1F4F06C06081B8
:100ED000718180E090E00E5F1F4FA4010E944608E0
:100EE000A82EA818FB2DFF777F2E76FE0BC0372D7E
:100EF0003E7FA51450F474FE0AC072FC08C0372D62
:100F00003E7E05C0BA2C372D03C0BA2C01C0B52CCB
:100F100034FF0DC0FE01EA0DF11D8081803311F414
:100F2000397E09C032FF06C0B394B39404C0832F46
:100F3000867809F0B39433FD13C030FF06C0B314B4
:100F400098F43A0C532C5B1810C0B31470F4B6012B
:100F500080E290E03C870E941608B3943C85F5CF70
:100F6000B31418F43B1802C05A2C312C34FF12C0B1
:100F7000B60180E390E03C870E9416083C8532FF72
:100F800017C031FD03C088E790E002C088E590E01B
:100F9000B6010CC0832F867859F031FF02C08BE276
:100FA00001C080E237FD8DE2B60190E00E94160894
:100FB000A51438F4B60180E390E00E9416085A9414
:100FC000F7CFAA94F401EA0DF11D8081B60190E0FB
:100FD0000E941608A110F5CF332009F450CEB601B7
:100FE00080E290E00E9416083A94F6CFF6018681DE
:100FF000978102C08FEF9FEF2C96E2E10C94C0081E
:10100000FC010590615070400110D8F780959095D3
:101010008E0F9F1F0895FC016150704001900110D8
:10102000D8F7809590958E0F9F1F08950F931F936B
:10103000CF93DF93182F092FEB018B8181FD03C024
:101040008FEF9FEF1EC082FF0FC02E813F818C81EA
:101050009D812817390774F4E881F981CF01019641
:1010600099838883108306C0E885F985812F0995C7
:10107000892B31F78E819F8101969F838E83812FEB
:10108000902FDF91CF911F910F910895FA01AA2718
:10109000283051F1203181F1E8946F936E7F6E5FBB
:1010A0007F4F8F4F9F4FAF4FB1E03ED0B4E03CD069
:1010B000670F781F891F9A1FA11D680F791F8A1F4C
:1010C000911DA11D6A0F711D811D911DA11D20D0B3
:1010D00009F468943F912AE0269F11243019305D6D
:1010E0003193DEF6CF010895462F4770405D41935E
:1010F000B3E00FD0C9F7F6CF462F4F70405D4A33AB
:1011000018F0495D31FD4052419302D0A9F7EACF72
:10111000B4E0A6959795879577956795BA95C9F7A1
:1011200000976105710508959B01AC010A2E069494
:101130005795479537952795BA95C9F7620F731F4D
:10114000841F951FA01D08952F923F924F925F928A
:101150006F927F928F929F92AF92BF92CF92DF92C7
:10116000EF92FF920F931F93CF93DF93CDB7DEB72C
:10117000CA1BDB0B0FB6F894DEBF0FBECDBF0994C0
:101180002A88398848885F846E847D848C849B8417
:10119000AA84B984C884DF80EE80FD800C811B8125
:1011A000AA81B981CE0FD11D0FB6F894DEBF0FBE54
:0A11B000CDBFED010895F894FFCFC4
:1011BA00EC0406000000AA0000000A00000000007B
:1011CA00F4052000534D533A0041542B434D4753E5
:1011DA003D25730D0A0025731A0041542B434D47D0
:1011EA00463D310D0A0041542B435343533D554369
:1011FA0053320D0A00415445300D0A0041540D0A7C
:10120A00005543364B46513E415052532C5443509D
:10121A0049502A2C7141432C543247524545434583
:10122A003A21353631392E30394E2F303434303375
:10123A002E323445796F702E416E746F6E202855A8
:10124A0043364B46512F3329203134352E35303031
:10125A004D687A2F3433332E3530304D687A00702A
:10126A00696E6700706F6E67002B37393837353310
:10127A0035393936390052494E47004154410D0A31
:10128A000047505352443A004F4B0041542B4352AB
:10129A0045473F0D0A0041542B43474154543D31C1
:1012AA000D0A0041542B434744434F4E543D312CC1
:1012BA00224950222C22696E7465726E65742E6DF5
:1012CA0074732E7275220D0A0041542B4347414311
:1012DA00543D312C310D0A0041542B434946535297
:1012EA000D0A0041542B43495053544152543D2254
:1012FA00554450222C22616E746F776B612E727581
:10130A00222C373737380D0A0041542B43495053A2
:10131A00454E443D25640D0A0041542B4349504330
:10132A004C4F53450D0A0041542B4750533D310D44
:10133A000A0041542B47505352443D310D0A004193
:10134A00542B47505352443D300D0A004750533AEC
:06135A003A25730D0A00A4
:00000001FF
