:100000000C9434000C9451000C9451000C94510049
:100010000C9451000C9451000C9451000C9451001C
:100020000C9451000C9451000C9451000C9451000C
:100030000C9451000C9451000C9451000C945100FC
:100040000C9451000C9451000C94C0000C94EB00E3
:100050000C9451000C9451000C9451000C945100DC
:100060000C9451000C94510011241FBECFEFD8E026
:10007000DEBFCDBF11E0A0E0B1E0ECE4F3E002C0F0
:1000800005900D92AA31B107D9F721E0AAE1B1E0BC
:1000900001C01D92A03EB207E1F70E9452010C94EC
:1000A000A4010C94000080E091E00E94360188EEEB
:1000B00093E00C94420185E091E00E9436018CE2CD
:1000C00091E00C9442012D9A2FEF85EA9EE0215099
:1000D00080409040E1F700C000002D982FEF85EAA6
:1000E0009EE0215080409040E1F700C0000008955C
:1000F00060E171E08CE191E00E948A01892B51F06E
:1001000085E191E00E9436018DE00E941F018AE0A6
:100110000C941F0108951092C50087E68093C400D7
:100120001092C000E2ECF0E080818660808388E974
:100130008093C10010929F0110929E0110925D0168
:1001400010925C01089590919F0180919E018927F2
:1001500008950E94A3008823E1F390919E01E92F66
:10016000F0E0E056FE4F80819F5F903408F090E011
:1001700090939E019091C10090689093C100089562
:100180001F920F920FB60F9211248F939F93EF93AC
:10019000FF93E0919F0181E08E0F803408F080E0B2
:1001A00090919E01891306C08091C1008F77809342
:1001B000C10008C09091C600F0E0E056FE4F908369
:1001C00080939F01FF91EF919F918F910F900FBEB0
:1001D0000F901F9018951F920F920FB60F92112437
:1001E0008F93EF93FF93E0915C0180915D018E13FB
:1001F00006C08091C1008F7D8093C1000EC0F0E0E9
:10020000E25AFE4F80818093C60080915C018F5F2F
:10021000803408F080E080935C01FF91EF918F9132
:100220000F900FBE0F901F90189580915D018F5F0A
:10023000803408F080E090915C0189270895E09176
:100240005D0191E09E0F903408F090E0F0E0E25AFA
:10025000FE4F808380915C019817E1F390935D01DC
:100260008091C10080628093C1000895CF93DF9395
:10027000EC018991882319F00E941F01FACFDF91C8
:10028000CF910895EFE9FFE03197F1F700C000004A
:100290000197C1F708950E948B0078948CE291E059
:1002A0000C944201259A0E944B010E9453000E9427
:1002B0005B000E94A3008823E1F388EE93E00E9494
:1002C0004201C0911A01D0911B010E94A900C45E95
:1002D000DE4F888380911A0190911B0101969093C3
:1002E0001B0180931A010E94A3008111EACF809123
:1002F0001A0190911B01029744F00E94780010921D
:100300001C0110921B0110921A010E9453000E94BE
:100310006300CFCFFB0151915523A9F0BF01DC0150
:100320004D9145174111E1F759F4CD01019000209D
:1003300049F04D9140154111C9F3FB014111EFCF37
:0C03400081E090E001970895F894FFCF51
:10034C0041540D0A0041542B4750533D310D0A00C6
:0A035C0052494E4700415441000091
:00000001FF
