:100000000C9434000C9451000C9451000C94510049
:100010000C9451000C9451000C9451000C9451001C
:100020000C9451000C9451000C9451000C9451000C
:100030000C9451000C94A1030C9451000C945100A9
:100040000C9451000C9451000C9487000C94B10056
:100050000C9451000C9451000C9451000C945100DC
:100060000C9451000C94510011241FBECFEFD8E026
:10007000DEBFCDBF12E0A0E0B1E0E4E2F2E102C0F9
:1000800005900D92A43BB107D9F724E0A4EBB2E0B0
:1000900001C01D92A238B207E1F70E94FE040C9441
:1000A00010090C9400001092C50087E08093C400F2
:1000B0001092C000E2ECF0E080818660808388E9E5
:1000C0008093C10010923703109236031092B5024C
:1000D0001092B402089590913703809136038927D6
:1000E00008950E946B008823E1F390913603E92F75
:1000F000F0E0E85CFC4F80819F5F97FD90E090937B
:1001000036039091C10090689093C10008951F92AA
:100110000F920FB60F9211248F939F93EF93FF933B
:10012000E091370381E08E0F87FD80E090913603E8
:10013000891306C08091C1008F778093C10008C0E9
:100140009091C600F0E0E85CFC4F90838093370309
:10015000FF91EF919F918F910F900FBE0F901F9085
:1001600018951F920F920FB60F9211248F93EF9351
:10017000FF93E091B4028091B5028E1306C0809186
:10018000C1008F7D8093C1000DC0F0E0EA54FD4FA7
:1001900080818093C6008091B4028F5F87FD80E0EC
:1001A0008093B402FF91EF918F910F900FBE0F904B
:1001B0001F9018958091B5028F5F87FD80E0909128
:1001C000B40289270895E091B50291E09E0F97FD52
:1001D00090E0F0E0EA54FD4F80838091B4029817DC
:1001E000E1F39093B5028091C10080628093C100D9
:1001F000089580E8E6EBF2E0DF011D928A95E9F7C9
:100200001092B50208950F931F93CF93DF9300D000
:10021000CDB7DEB789839A830E94F9008981082FC0
:100220009A81192FF80181918F01882319F00E947A
:10023000E300F8CF0F900F90DF91CF911F910F91B6
:100240000895E6E6FEE03197F1F700000197C9F75F
:1002500008950E94530078948CE291E00C9421015F
:1002600080E8E8E3F3E0DF011D928A95E9F7109258
:100270003703089564E171E00E94260621E030E032
:10028000892B11F420E030E0C90108951092B803E1
:1002900064E171E00E942606FC0134969FE3A8EB1E
:1002A000B3E001900D929A95E1F71092F70388EB75
:1002B00093E00895EF92FF920F931F93CF93DF93F4
:1002C000CDB7DEB7CB55D1090FB6F894DEBF0FBE60
:1002D000CDBF9F938F9389E191E09F938F938E0180
:1002E0000F5B1F4F1F930F936B966FAF6B976C96BF
:1002F0007FAF6C970E9440066C967FAD6C977F93A2
:100300006B966FAD6B976F9386E291E09F938F939F
:10031000CE0101967C019F938F930E9440068AE252
:1003200091E00E9403019FEF2FEF8CE2915020405B
:100330008040E1F700C0000086E391E00E940301E5
:100340009FEF2FEF8CE2915020408040E1F700C0FA
:100350000000C8010E9403019FEF2FEF8CE2915033
:1003600020408040E1F700C00000C7010E94030167
:100370000FB6F894DEBF0FBECDBFC55ADF4F0FB624
:10038000F894DEBF0FBECDBFDF91CF911F910F91CB
:10039000FF90EF90089585E080938100EFE6F0E014
:1003A000808181608083109285001092840008957E
:1003B00085E491E00E94030180E293E00E94210124
:1003C0008AE291E00E94030180E293E00E94210111
:1003D0000E94780480E293E00E9421010C94AA0418
:1003E000299A2FEF8FEF9CE2215080409040E1F757
:1003F00000C00000299808958CE491E00C9403015A
:100400000E94F0012FEF3FEF86E791E0215030404E
:1004100080409040D9F700C000000E94CB010E94AC
:1004200029010C94D8018091020190910301A091BF
:100430000401B0910501181619061A061B067CF076
:100440000E94D80186E090E0A0E0B0E08093020135
:1004500090930301A0930401B093050111C0039789
:10046000A105B1056CF42FEF8FE796E12150804094
:100470009040E1F700C0000086E591E00E94030192
:100480008091020190910301A0910401B0910501B6
:100490000197A109B1098093020190930301A093F0
:1004A0000401B09305010895809106019091070120
:1004B000A0910801B0910901181619061A061B0629
:1004C00084F08BE591E00E94CC0384E190E0A0E011
:1004D000B0E08093060190930701A0930801B093C8
:1004E00009018091060190910701A0910801B09146
:1004F00009010197A109B1098093060190930701B1
:10050000A0930801B0930901089580910001909192
:1005100001010E94460169EB71E00E942606892BC9
:10052000C9F080916F008E7F80936F006EEB71E059
:1005300083EC91E00E945A012FEF8FEF96E8215053
:1005400080409040E1F700C0000080916F00816022
:1005500080936F000895E0910001F09101011182F4
:1005600010821092F9031092F80308950F931F93CD
:10057000CF93DF93CDB7DEB72E970FB6F894DEBFDB
:100580000FBECDBF9E01235F3F4F80917E049091AF
:100590007F04009711F482E894E0A901481B590BED
:1005A000CA019F934F9380ED91E09F938F938E01AB
:1005B0000F5F1F4F1F930F930E944006C8010E94B8
:1005C00003010F900F900F900F900F900F902E96A9
:1005D0000FB6F894DEBF0FBECDBFDF91CF911F9154
:1005E0000F910895CF93DF9380916F008E7F80935A
:1005F0006F002FEF8FE796E1215080409040E1F7A8
:1006000000C0000080917A0490917B04019751F41E
:1006100010927B0410927A040E9413020E947C04C0
:100620000E94B60280916F00816080936F000E94EB
:100630006B00882309F482C0C0910001D0910101B0
:100640008091F8039091F903C80FD91F0E9471009F
:1006500088838091F8039091F90301969093F903B0
:100660008093F8030E946B008111E6CF8091F8031C
:100670009091F903181619060CF060C080910001E2
:10068000909101010E943A01892B51F080916F00F5
:100690008E7F80936F000E94AA040E94850216C07C
:1006A000C0910001D091010160EE71E0CE010E9485
:1006B0002606892B99F080916F008E7F80936F00C2
:1006C0000E94AA0485EE91E00E9403010E9430017D
:1006D00080916F00816080936F002CC06BEE71E0A1
:1006E000CE010E942606892B71F080916F008E7FCB
:1006F00080936F000E94AA048091000190910101F3
:100700000E94BF04E3CF61EF71E0CE010E94260694
:10071000892B81F00E94B70386E090E0A0E0B0E072
:100720008093020190930301A0930401B09305010B
:100730000E943001DF91CF910C94AB02DF91CF91F9
:1007400008951F920F920FB60F9211248F939F93CB
:1007500081E090E090937B0480937A049F918F9145
:100760000F900FBE0F901F901895259A08952D9AFF
:100770002FEF8FE794E0215080409040E1F700C0D8
:1007800000002D982FEF8FE794E02150804090409B
:10079000E1F700C000000895EF92FF920F931F93BE
:1007A000CF93DF93CDB7DEB7CF58D1090FB6F8940A
:1007B000DEBF0FBECDBFF82EE92E84EF91E00E9480
:1007C00003012FEF8FEF96E8215080409040E1F732
:1007D00000C0000081E092E00E9403012FEF8FEF44
:1007E00096E8215080409040E1F700C0000087E289
:1007F00092E00E9403012FEF8FEF96E82150804096
:100800009040E1F700C0000086E392E00E940301FF
:100810002FEF8FEF9CE2215080409040E1F700C025
:10082000000081E492E00E9403012FEF8FEF96E831
:10083000215080409040E1F700C00000AF2DBE2D58
:10084000FD0101900020E9F73197EA1BFB0BFF93B4
:10085000EF9387E692E09F938F938E0100581F4F8E
:100860001F930F930E944006C8010E9403012FEFBF
:100870008FEF9CE2215080409040E1F700C00000E3
:10088000EF92FF928FEA92E09F938F930F57110997
:100890001F930F930E944006C8010E9403012FEF8F
:1008A0008FEF9CE2215080409040E1F700C00000B3
:1008B00087E792E00E9403012FEF8FEF99E5215027
:1008C00080409040E1F700C000000FB6F894DEBF12
:1008D0000FBECDBFC157DF4F0FB6F894DEBF0FBEBE
:1008E000CDBFDF91CF911F910F91FF90EF900895B1
:1008F00085E892E00C94030180910A0190910B012C
:10090000A0910C01B0910D01B7FF10C080917C0443
:1009100090917D04892B51F480E992E00E940301BB
:1009200081E090E090937D0480937C0480910A01A3
:1009300090910B01A0910C01B0910D010197A109BB
:10094000B10980930A0190930B01A0930C01B0931D
:100950000D0108958DE992E00E94030110927D043B
:1009600010927C048AE090E0A0E0B0E080930A015D
:1009700090930B01A0930C01B0930D010895EF9299
:10098000FF920F931F93CF93DF93CDB7DEB7EDB6F2
:10099000FEB6DC010D900020E9F79D01281B390B04
:1009A0002C5F3F4F4DB75EB7421B530B0FB6F89409
:1009B0005EBF0FBE4DBF0DB71EB70F5F1F4F9F939A
:1009C0008F938AEA92E09F938F931F930F930E94D5
:1009D0004006C8010E949D050F900F900F900F9048
:1009E0000F900F900FB6F894FEBE0FBEEDBEDF91D4
:1009F000CF911F910F91FF90EF9008950E94B50342
:100A00000E9400020E94F202FDCF0F931F93CF932A
:100A1000DF938230910510F482E090E0E091800451
:100A2000F091810420E030E0A0E0B0E0309719F1CF
:100A3000408151810281138148175907C8F08417FA
:100A4000950769F4109731F012960C93129713964C
:100A50001C9327C0009380041093810422C02115A9
:100A6000310519F04217530718F49A01BD01EF013F
:100A7000DF01F801DBCF21153105F9F0281B390B17
:100A80002430310580F48A819B816115710521F044
:100A9000FB019383828304C090938104809380043C
:100AA000FE01329644C0FE01E20FF31F8193919341
:100AB00022503109398328833AC020917E04309135
:100AC0007F04232B41F420911001309111013093C8
:100AD0007F0420937E0420910E0130910F01211597
:100AE000310541F42DB73EB74091120150911301E9
:100AF000241B350BE0917E04F0917F04E217F3078D
:100B0000A0F42E1B3F0B2817390778F0AC014E5F7D
:100B10005F4F2417350748F04E0F5F1F50937F0437
:100B200040937E048193919302C0E0E0F0E0CF0116
:100B3000DF91CF911F910F910895CF93DF9300978D
:100B400009F481C0FC01329713821282A0918004C3
:100B5000B0918104109781F420813181820F931F1D
:100B600020917E0430917F042817390751F5F093C6
:100B70007F04E0937E0467C0ED0120E030E0CE17F3
:100B8000DF0740F44A815B819E0141155105F1F078
:100B9000EA01F5CFD383C28340815181840F951F31
:100BA000C817D90759F488819981840F951F029637
:100BB000918380838A819B81938382832115310570
:100BC00029F4F0938104E09380043DC0E901FB83A4
:100BD000EA8349915991C40FD51FEC17FD0761F4C1
:100BE00080819181840F951F0296E9019983888302
:100BF000828193819B838A83E0E0F0E012968D915D
:100C00009C911397009719F0FD01DC01F7CF8D91AE
:100C10009C9111979D012E5F3F4F820F931F209152
:100C20007E0430917F042817390769F4309729F43E
:100C3000109281041092800402C013821282B09339
:100C40007F04A0937E04DF91CF910895FB01519121
:100C50005523A9F0BF01DC014D9145174111E1F782
:100C600059F4CD010190002049F04D9140154111FA
:100C7000C9F3FB014111EFCF81E090E001970895A6
:100C8000AEE0B0E0E6E4F6E00C94E7080D891E89DA
:100C900086E08C831A8309838FEF9FE79E838D8381
:100CA000AE01475E5F4F6F89788DCE0101960E943D
:100CB0006206EF81F885E00FF11F10822E96E4E0C6
:100CC0000C940309ACE0B0E0E8E6F6E00C94D90837
:100CD0006C017B018A01FC0117821682838181FFEE
:100CE000BEC1CE0101964C01F6019381F70193FD3F
:100CF000859193FF81917F01882309F4ACC18532EE
:100D000039F493FD859193FF81917F01853229F418
:100D1000B60190E00E944B08E7CF512C312C20E027
:100D20002032A0F48B3269F030F4803259F08332F3
:100D300069F420612CC08D3239F0803339F42160A0
:100D400026C02260246023C0286021C027FD27C060
:100D500030ED380F3A3078F426FF06C0FAE05F9E97
:100D6000300D1124532E13C08AE0389E300D11240B
:100D7000332E20620CC08E3221F426FD6CC120641B
:100D800006C08C3611F4206802C0883641F4F701A1
:100D900093FD859193FF81917F018111C1CF982FA0
:100DA0009F7D9554933028F40C5F1F4F9FE39983E8
:100DB0000DC0833631F0833771F0833509F05BC0A5
:100DC00022C0F801808189830E5F1F4F4424439421
:100DD000512C540115C03801F2E06F0E711CF8015E
:100DE000A080B18026FF03C0652D70E002C06FEFC8
:100DF0007FEFC5012C870E9440082C0183012C85C0
:100E00002F77222E17C03801F2E06F0E711CF80107
:100E1000A080B18026FF03C0652D70E002C06FEF97
:100E20007FEFC5012C870E9435082C012C85206896
:100E3000222E830123FC1BC0832D90E04816590607
:100E4000B0F4B60180E290E00E944B083A94F4CFEF
:100E5000F50127FC859127FE81915F01B60190E0A5
:100E60000E944B0831103A94F1E04F1A5108411496
:100E7000510471F7E6C0843611F0893639F5F8016E
:100E800027FF07C060817181828193810C5F1F4FB2
:100E900008C060817181072E000C880B990B0E5FD2
:100EA0001F4F2F76722E97FF09C0909580957095F1
:100EB00061957F4F8F4F9F4F2068722E2AE030E060
:100EC000A4010E947B08A82EA81844C0853729F4E5
:100ED0002F7EB22E2AE030E025C0F22FF97FBF2E00
:100EE0008F36C1F018F4883579F0B5C0803719F025
:100EF000883721F0B0C02F2F2061B22EB4FE0DC074
:100F00008B2D8460B82E09C024FF0AC09F2F9660E5
:100F1000B92E06C028E030E005C020E130E002C074
:100F200020E132E0F801B7FE07C060817181828163
:100F300093810C5F1F4F06C06081718180E090E05B
:100F40000E5F1F4FA4010E947B08A82EA818FB2D3E
:100F5000FF777F2E76FE0BC0372D3E7FA51450F411
:100F600074FE0AC072FC08C0372D3E7E05C0BA2C44
:100F7000372D03C0BA2C01C0B52C34FF0DC0FE01C3
:100F8000EA0DF11D8081803311F4397E09C032FFF2
:100F900006C0B394B39404C0832F867809F0B39449
:100FA00033FD13C030FF06C0B31498F43A0C532C31
:100FB0005B1810C0B31470F4B60180E290E03C8777
:100FC0000E944B08B3943C85F5CFB31418F43B183A
:100FD00002C05A2C312C34FF12C0B60180E390E0DD
:100FE0003C870E944B083C8532FF17C031FD03C08F
:100FF00088E790E002C088E590E0B6010CC0832F3E
:10100000867859F031FF02C08BE201C080E237FDE3
:101010008DE2B60190E00E944B08A51438F4B601A9
:1010200080E390E00E944B085A94F7CFAA94F40111
:10103000EA0DF11D8081B60190E00E944B08A110DD
:10104000F5CF332009F450CEB60180E290E00E9443
:101050004B083A94F6CFF6018681978102C08FEF54
:101060009FEF2C96E2E10C94F508FC01059061508D
:1010700070400110D8F7809590958E0F9F1F0895AE
:10108000FC016150704001900110D8F78095909557
:101090008E0F9F1F08950F931F93CF93DF93182FE9
:1010A000092FEB018B8181FD03C08FEF9FEF1EC0E5
:1010B00082FF0FC02E813F818C819D8128173907C7
:1010C00074F4E881F981CF010196998388831083B4
:1010D00006C0E885F985812F0995892B31F78E8126
:1010E0009F8101969F838E83812F902FDF91CF91D7
:1010F0001F910F910895FA01AA27283051F120314C
:1011000081F1E8946F936E7F6E5F7F4F8F4F9F4F9B
:10111000AF4FB1E03ED0B4E03CD0670F781F891FDD
:101120009A1FA11D680F791F8A1F911DA11D6A0FAB
:10113000711D811D911DA11D20D009F468943F915E
:101140002AE0269F11243019305D3193DEF6CF015D
:101150000895462F4770405D4193B3E00FD0C9F723
:10116000F6CF462F4F70405D4A3318F0495D31FD90
:101170004052419302D0A9F7EACFB4E0A6959795E3
:10118000879577956795BA95C9F7009761057105B9
:1011900008959B01AC010A2E069457954795379503
:1011A0002795BA95C9F7620F731F841F951FA01D5D
:1011B00008952F923F924F925F926F927F928F92FB
:1011C0009F92AF92BF92CF92DF92EF92FF920F93D6
:1011D0001F93CF93DF93CDB7DEB7CA1BDB0B0FB6E0
:1011E000F894DEBF0FBECDBF09942A88398848889D
:1011F0005F846E847D848C849B84AA84B984C88433
:10120000DF80EE80FD800C811B81AA81B981CE0F29
:10121000D11D0FB6F894DEBF0FBECDBFED0108950E
:04122000F894FFCF70
:10122400FA0306000000140000000A000000000099
:1012340082042000534D533A0041542B434D4753ED
:101244003D25730D0A0025731A0041542B434D4765
:10125400463D310D0A0041542B435343533D5543FE
:1012640053320D0A00415445300D0A0041542B43BA
:10127400504F460D0A0041540D0A005543364B4663
:10128400513E415052532C54435049502A2C7141E1
:10129400432C54324752454543453A21353631397A
:1012A4002E30394E2F30343430332E323445796F6A
:1012B400702E416E746F6E20285543364B46512F65
:1012C4003329203134352E3530304D687A2F34337C
:1012D400332E3530304D687A0070696E6700706F58
:1012E4006E67002B3739383735333539393639009D
:1012F40046524545204D454D3A202564200D0A00AF
:1013040052494E47004154410D0A00475047474156
:10131400004F4B0041542B43474154543D310D0A77
:101324000041542B434744434F4E543D312C2249F2
:1013340050222C22696E7465726E65742E6D7473FE
:101344002E7275220D0A0041542B43474143543DEC
:10135400312C310D0A0041542B43494653520D0A96
:101364000041542B43495053544152543D22554457
:1013740050222C22616E746F776B612E7275222C51
:10138400373737380D0A0041542B43495053454EE3
:10139400443D25640D0A0041542B434950434C4FAE
:1013A40053450D0A0041542B4750533D310D0A005B
:1013B40041542B47505352443D310D0A0041542BA4
:1013C40047505352443D300D0A004750533A3A2592
:0413D400730D0A008B
:00000001FF
