:100000000C9434000C9451000C9451000C94510049
:100010000C9451000C9451000C9451000C9451001C
:100020000C9451000C9451000C9451000C9451000C
:100030000C9451000C9478040C9451000C945100D1
:100040000C9451000C9451000C9490000C94BF003F
:100050000C9451000C9451000C9451000C945100DC
:100060000C9451000C94510011241FBECFEFD8E026
:10007000DEBFCDBF11E0A0E0B1E0E6E7F0E102C0F5
:1000800005900D92A43EB107D9F722E0A4EEB1E0AD
:1000900001C01D92AE3EB207E1F70E9425050C9407
:1000A00039080C9400001092C5008FE58093C400BD
:1000B0001092C000E2ECF0E080818660808388E9E5
:1000C0008093C10010922702109226021092E5013F
:1000D0001092E401089590912702809126028927C9
:1000E000089590912602809127029817E1F3E92F55
:1000F000F0E0E85DFD4F80819F5F97FD08C0909321
:1001000026029091C10090689093C100089590E0FC
:10011000909326029091C10090689093C100089539
:100120001F920F920FB60F9211248F939F93EF930C
:10013000FF93E091270281E08E0F87FD15C090911B
:1001400026028917B1F09091C600F0E0E85DFD4FFE
:10015000908380932702FF91EF919F918F910F9051
:100160000FBE0F901F90189580E090912602891382
:10017000EACF8091C1008F778093C100ECCF1F92AE
:100180000F920FB60F9211248F93EF93FF93E0918C
:10019000E4018091E5018E17B9F0F0E0EA51FE4FDD
:1001A00080818093C6008091E4018F5F803450F499
:1001B0008093E401FF91EF918F910F900FBE0F900C
:1001C0001F90189580E0F4CF8091C1008F7D8093BF
:1001D000C100FF91EF918F910F900FBE0F901F9074
:1001E00018958091E5018F5F803408F080E0909150
:1001F000E40189270895E091E50191E09E0F903494
:1002000008F090E0F0E0EA51FE4F80838091E40135
:100210009817E1F39093E5018091C100806280938B
:10022000C100089580E4E6EEF1E0DF011D928A95B9
:10023000E9F71092E5010895CF93DF93DC0180E4A4
:10024000E6EEF1E0EF0119928A95E9F71092E501E7
:100250009C919923E9F01196E0E021E0F0E0EA5169
:10026000FE4F90839091E4019217E1F32093E50112
:100270009091C10090629093C1009D91992341F0AB
:10028000E091E50121E02E0F203440F320E0E6CF9D
:10029000DF91CF910895E6E6FEE03197F1F7000097
:1002A0000197C9F708951092C5008FE58093C400A7
:1002B0001092C0008091C20086608093C20088E9DD
:1002C0008093C10010922702109226021092E5013D
:1002D0001092E40178948CE291E0E6E6FEE031973A
:1002E000F1F700000197C9F7089580E8E8E2F2E02D
:1002F000DF011D928A95E9F710922702089564E0C4
:1003000071E00E94470521E030E0892B11F0C9011E
:10031000089520E030E0C90108951092A80264E039
:1003200071E00E944705FC0134969FE3A8EAB2E021
:1003300001900D929A95E1F71092E70288EA92E017
:1003400008950F931F93CF93DF93CDB7DEB7CB55AF
:10035000D1090FB6F894DEBF0FBECDBF182F092FFD
:1003600089E091E06B966FAF6B976C967FAF6C975F
:100370000E941C0188EE93E00E94C20489E191E092
:100380000E941C0188EE93E00E94C2040F931F9309
:1003900084E291E09F938F938E010F5B1F4F1F9319
:1003A0000F930E946105C8010E941C0188EE93E032
:1003B0000E94C2046C967FAD6C977F936B966FAD75
:1003C0006B976F9383E391E09F938F930054110990
:1003D0001F930F930E946105C8010E941C010FB674
:1003E000F894DEBF0FBECDBFC55ADF4F0FB6F894ED
:1003F000DEBF0FBECDBFDF91CF911F910F9108954A
:1004000085E080938100EFE6F0E080818160808369
:10041000109285001092840008952A9A8CED95E040
:100420000E94C2042A9808952B9808952B9A089543
:100430002A9A8CED95E00E94C2042A9888E893E1FC
:100440000E94C20487E391E00E941C0180E293E0D5
:100450000E944B018BE391E00E941C0180E293E03B
:100460000E944B0181E491E00E941C0180E293E034
:100470000E944B0189E191E00E941C0180E293E01F
:100480000E944B018EE491E00E941C0180E293E007
:100490000E944B0181E691E00E941C0180E293E002
:1004A0000C944B0185E080938100EFE6F0E08081C1
:1004B0008160808310928500109284000E94530115
:1004C0002A9A8CED95E00E94C2042A9888E893E16C
:1004D0000E94C20487E391E00E941C0180E293E045
:1004E0000E944B018BE391E00E941C0180E293E0AB
:1004F0000E944B0181E491E00E941C0180E293E0A4
:100500000E944B0189E191E00E941C0180E293E08E
:100510000E944B018EE491E00E941C0180E293E076
:100520000E944B0181E691E00E941C0180E293E071
:100530000C944B018091000190910101A091020166
:10054000B0910301181619061A061B06ECF4833045
:100550009105A105B10564F48CE691E00E941C01AF
:100560008091000190910101A0910201B0910301DD
:100570000197A109B1098093000190930101A09313
:100580000201B093030108952A9A8CED95E00E9430
:10059000C2042A9888E893E10E94C20487E391E0AC
:1005A0000E941C0180E293E00E944B018BE391E0EA
:1005B0000E941C0180E293E00E944B0181E491E0E3
:1005C0000E941C0180E293E00E944B0189E191E0CE
:1005D0000E941C0180E293E00E944B018EE491E0B6
:1005E0000E941C0180E293E00E944B0181E691E0B1
:1005F0000E941C0180E293E00E944B0185E090E0A4
:10060000A0E0B0E0B8CF0E948D0161E771E00E94E8
:100610004705892B31F066E771E08BE791E00C9498
:10062000A10108950F931F93CF93DF93CDB7DEB74A
:10063000C058D1090FB6F894DEBF0FBECDBF1982E6
:100640001A821B821C82FE0135968CE7DF011D9207
:100650008A95E9F78091E8029091E902892B09F0E7
:1006600045C080E293E00E94C2040E946B00882390
:1006700089F18E010F5F1F4F0E947100F801819375
:100680008F010E946B008111F7CF0E94AB04CE0155
:1006900001960E947F01892B09F455C080916F005B
:1006A0008E7F80936F00CE0101960E948D0161E7DD
:1006B00071E00E944705892B31F066E771E08BE716
:1006C00091E00E94A1010E94750180916F008160FC
:1006D00080936F00C058DF4F0FB6F894DEBF0FBE97
:1006E000CDBFDF91CF911F910F91089580916F0041
:1006F0008E7F80936F001092E9021092E802809141
:10070000000190910101A0910201B091030118161E
:1007100019061A061B060CF07AC083309105A10554
:10072000B1058CF10197A109B10980930001909363
:100730000101A0930201B093030180916F008160D9
:1007400080936F008ECFCE0101960E94CD04892B3D
:1007500009F043C06EEB71E0CE0101960E9447059F
:10076000892BF1F080916F008E7F80936F0083EC76
:1007700091E00E941C010E94750180916F008160D0
:1007800080936F00A7CF8CE691E00E941C018091BE
:10079000000190910101A0910201B0910301C2CF2B
:1007A00069EC71E0CE0101960E944705892B09F49E
:1007B00091CF80916F008E7F80936F000E94AB0479
:1007C00086E090E0A0E0B0E080930001909301010A
:1007D000A0930201B093030176CFCE0101960E944F
:1007E000FB04892B09F452C00E94090568E871E0F6
:1007F0000E943E05892B09F04EC02B9880ED97E0B2
:100800000E94C2048BE891E00E941C0163CF2A9AE7
:100810008CED95E00E94C2042A9888E893E10E943A
:10082000C20487E391E00E941C0180E293E00E94F1
:100830004B018BE391E00E941C0180E293E00E9457
:100840004B0181E491E00E941C0180E293E00E9450
:100850004B0189E191E00E941C0180E293E00E943B
:100860004B018EE491E00E941C0180E293E00E9423
:100870004B0181E691E00E941C0180E293E00E941E
:100880004B0185E090E0A0E0B0E04FCFCE010196B3
:100890000E940C051FCF0E9409056CE971E00E94BF
:1008A0003E05892B51F42B9A80ED97E00E94C204FB
:1008B0008BE891E00E941C010DCF0E9409056FE9B1
:1008C00071E00E943E05892B09F004CF80ED97E08E
:1008D000189B07C00E94C20482EA91E00E941C019A
:1008E000F9CE0E94C20481EB91E00E941C01F2CE7D
:1008F0001F920F920FB60F9211248F939F9381E056
:1009000090E09093E9028093E8029F918F910F907D
:100910000FBE0F901F90189523982B9A24982C9A0D
:1009200025982D9A52985A9A53985B9A54985C9AA3
:1009300055985D9A56985E9A57985F9A3898409A5B
:100940003998419A3A98429A3B98439A209A229A27
:10095000539A5B9A0895289A84E690E0E6E6FEE0D2
:100960003197F1F70000A8950197C1F7289884E620
:1009700090E0E6E6FEE03197F1F70000A8950197D8
:10098000C1F7089507C0E6E6FEE03197F1F70000F1
:10099000A89501970097B9F708950F931F93CF93E8
:1009A000DF93EC016CEC71E00E94470501E010E080
:1009B0000097F1F0892BB1F062ED71E0CE010E9459
:1009C0004705892B79F0ECEEF2E001900020E9F781
:1009D0003197AF014C5E524060E070E08CEE92E0E7
:1009E0000E943705C801DF91CF911F910F910895A3
:1009F00000E010E0DFCF6AED71E00E94470521E0E2
:100A000030E0892B11F0C901089520E030E0C901E0
:100A100008958CEE92E00895FC0121852A3279F048
:100A20008091EA029091EB02FC01E451FD4F20839A
:100A300001969093EB028093EA0202972CF01092B9
:100A4000EB021092EA02089508950E948C0499E244
:100A500088E10FB6F894A895809360000FBE90933C
:100A600060000E9452020E941203A895FCCFDC0194
:100A700001C06D9341505040E0F70895FB01DC0147
:100A80008D91019080190110D9F3990B0895FB0104
:100A900051915523A9F0BF01DC014D91451741113A
:100AA000E1F759F4CD010190002049F04D91401536
:100AB0004111C9F3FB014111EFCF81E090E00197B3
:100AC0000895AEE0B0E0E7E6F5E00C9410080D897B
:100AD0001E8986E08C831A8309838FEF9FE79E83AC
:100AE0008D83AE01475E5F4F6F89788DCE01019691
:100AF0000E9484052F813885020F131FF801108290
:100B00002E96E4E00C942C08ABE0B0E0EAE8F5E0C7
:100B10000C9402087C013B018A01FC0117821682B9
:100B2000838181FFC8C1CE0101965C01F7019381E9
:100B3000F30193FD859193FF81913F01882309F48F
:100B400053C1853239F493FD859193FF81913F0123
:100B5000853229F4B70190E00E947407E7CF912C09
:100B6000212C312CFFE1F31538F08B3211F190F488
:100B7000803209F1833229F137FC3CC020ED280F87
:100B80002A3050F536FE20C08AE0989E200D1124B0
:100B9000922E06C08D3291F0803371F7689430F850
:100BA000F30193FD859193FF81913F018111DACF8C
:100BB00021C0689431F8689432F8F2CF689433F821
:100BC000EFCF689434F8ECCFEAE02E9E200D11248C
:100BD000222E689435F8E4CF8E3229F436FC04C115
:100BE000689436F8DDCF8C3619F4689437F8D8CF8E
:100BF0008836B1F2982F9F7D95549330E0F083367C
:100C0000A1F18337C1F1833509F063C02801F2E017
:100C10004F0E511CF801C080D180692D70E036FC68
:100C200002C06FEF7FEFC6010E945E074C0168941F
:100C300037F882010AC00C5F1F4FFFE3F983882455
:100C40008394912C6501E89437F833FE2DC0522C23
:100C50008114910471F5552009F468CFB70180E241
:100C600090E00E9474075A94F6CFF801808189833E
:100C70000E5F1F4FE4CF2801F2E04F0E511CF80128
:100C8000C080D180692D70E036FC02C06FEF7FEF2D
:100C9000C6010E9469074C018201D5CFB70180E2ED
:100CA00090E00E9474072A942814190409F0B0F700
:100CB000CECFF60137FC859137FE81916F01B701E8
:100CC00090E00E94740751105A94F1E08F1A910835
:100CD000BFCF843619F0893609F077C0F80137FEA6
:100CE0006BC060817181828193810C5F1F4FF32DF6
:100CF000FF763F2E97FF09C090958095709561957E
:100D00007F4F8F4F9F4F689437F82AE030E0A5015E
:100D10000E94A407C82ECA188C2C432C36FE0CC087
:100D2000E89440F8C91440F434FE05C032FC03C016
:100D3000F32DFE7E4F2E892C44FE95C0FE01EC0D56
:100D4000F11D8081803309F087C0242D297E422E39
:100D5000842D8870582E43FC95C040FE8FC09C2C7B
:100D6000821418F42C0C922C981844FE91C0B701F0
:100D700080E390E00E94740742FE09C088E790E09B
:100D800041FE02C088E590E0B7010E947407C914D3
:100D900008F48AC0CA94D12C9FEFC91AD90ACA0C88
:100DA000DB1CF60182916F01B70190E00E9474078D
:100DB000AC14BD04B1F74FCF60817181072E000CD8
:100DC000880B990B0E5F1F4F92CFD32CE894D4F869
:100DD0002AE030E0853739F1232D297FD22E8F3656
:100DE00001F148F48835A9F0F701868197812B96A7
:100DF000E2E10C941E08803749F08837A9F7D4FE49
:100E000002C06894D2F820E130E00DC06894D4F8B4
:100E1000F6CF34FE03C0822F8660D82E20E132E068
:100E200002C028E030E0F801D7FE0FC06081718178
:100E3000828193810C5F1F4FA5010E94A407C82ED9
:100E4000CA183D2CE89437F867CF6081718190E033
:100E500080E00E5F1F4FF0CF42FC02C0839478CF3A
:100E60008394839475CF842D867809F471CFF6CF5F
:100E7000B70180E290E00E94740783948214C0F36B
:100E8000512C73CF522C5818821408F46ECFF8CF1F
:100E9000842D867809F47BCF8BE241FE80E247FC0B
:100EA0008DE2B70190E071CFB70180E390E00E943E
:100EB00074079A946CCF8FEF9FEF99CFFC01059048
:100EC000615070400110D8F7809590958E0F9F1F4C
:100ED0000895FC016150704001900110D8F7809591
:100EE00090958E0F9F1F08950F931F93CF93DF93BD
:100EF000182F092FEB018B8181FD09C01FEF0FEF28
:100F0000812F902FDF91CF911F910F91089582FF34
:100F100014C02E813F818C819D81281739073CF4B4
:100F2000E881F981CF0101969983888310838E81AE
:100F30009F8101969F838E83E3CFE885F985812F7A
:100F40000995892BA1F3DACFFA01AA27283051F1AC
:100F5000203181F1E8946F936E7F6E5F7F4F8F4FEA
:100F60009F4FAF4FB1E03ED0B4E03CD0670F781F49
:100F7000891F9A1FA11D680F791F8A1F911DA11D2E
:100F80006A0F711D811D911DA11D20D009F4689467
:100F90003F912AE0269F11243019305D3193DEF60F
:100FA000CF010895462F4770405D4193B3E00FD0C5
:100FB000C9F7F6CF462F4F70405D4A3318F0495DB0
:100FC00031FD4052419302D0A9F7EACFB4E0A69593
:100FD0009795879577956795BA95C9F700976105B5
:100FE000710508959B01AC010A2E0694579547950B
:100FF00037952795BA95C9F7620F731F841F951F00
:10100000A01D08952F923F924F925F926F927F9210
:101010008F929F92AF92BF92CF92DF92EF92FF9208
:101020000F931F93CF93DF93CDB7DEB7CA1BDB0BB4
:101030000FB6F894DEBF0FBECDBF09942A88398859
:1010400048885F846E847D848C849B84AA84B98460
:10105000C884DF80EE80FD800C811B81AA81B9816C
:10106000CE0FD11D0FB6F894DEBF0FBECDBFED0180
:061070000895F894FFCF83
:1010760006000000534D533A0041542B435343534B
:101086003D2247534D220D0A0041542B434D4746FE
:101096003D310D0041542B434D47533D22257322CC
:1010A6000D0A0025731A0041540D00415445300DB8
:1010B6000041542B434D47443D312C340D004154DF
:1010C6002B434E4D493D312C322C302C302C300DDB
:1010D6000041542B444445543D310D0041540D0A02
:1010E6000070696E6700706F6E67002B373938378E
:1010F600353335393936390030310041542B5654A1
:10110600533D22322C322C32220D0A00303200306E
:10111600330041542B5654533D22322C32220D0AB1
:101126000041542B5654533D2232220D0A00524997
:101136004E47004154410D0A004F4B0044544D4662
:101146003A0044544D463A202A002B44544D463A20
:041156002023000052
:00000001FF
