:100000000C9434000C9451000C9451000C94510049
:100010000C9451000C9451000C9451000C9451001C
:100020000C9451000C9451000C9451000C9451000C
:100030000C9451000C94AF020C9451000C9451009C
:100040000C9451000C9451000C9485000C94AD005C
:100050000C9451000C9451000C9451000C945100DC
:100060000C9451000C94510011241FBECFEFD8E026
:10007000DEBFCDBF12E0A0E0B1E0ECE1FDE002C0E8
:1000800005900D92AE38B107D9F727E0AEE8B2E09F
:1000900001C01D92A63DB207E1F70E9497030C94A0
:1000A0008C060C9400001092C50087E68093C40073
:1000B0001092C000E2ECF0E080818660808388E9E5
:1000C0008093C100109291031092900310928F02BE
:1000D00010928E0208959091910380919003892748
:1000E00008950E946B008823E1F390919003E92F1B
:1000F000F0E0EE56FC4F80819F5F909390039091CB
:10010000C10090689093C10008951F920F920FB69E
:100110000F9211248F939F93EF93FF93E09191039C
:1001200081E08E0F90919003891306C08091C100E9
:100130008F778093C10008C09091C600F0E0EE5622
:10014000FC4F908380939103FF91EF919F918F914A
:100150000F900FBE0F901F9018951F920F920FB621
:100160000F9211248F93EF93FF93E0918E02809171
:100170008F028E1306C08091C1008F7D8093C100D5
:100180000BC0F0E0E057FD4F80818093C600809166
:100190008E028F5F80938E02FF91EF918F910F906F
:1001A0000FBE0F901F90189580918F0290918E0234
:1001B0008F5F89270895E0918F0291E09E0FF0E014
:1001C000E057FD4F808380918E029817E1F3909362
:1001D0008F028091C10080628093C1000895CF9307
:1001E000DF93EC018991882319F00E94DB00FACF9C
:1001F000DF91CF910895EFE9FFE03197F1F700C06B
:1002000000000197C1F708950E94530078948CE292
:1002100091E00C94FB0080E092E0E2E9F3E0DF0182
:100220009C011D9221503040E1F7109291030895F6
:1002300066E071E00E94A20321E030E0892B11F416
:1002400020E030E0C90108951092920566E071E067
:100250000E94A203FC0134969FE3A2E9B5E001905D
:100260000D929A95E1F71092D10582E995E00895F3
:10027000EF92FF920F931F93CF93DF93CDB7DEB72B
:10028000CB55D1090FB6F894DEBF0FBECDBF9F93FB
:100290008F938BE091E09F938F938E010F5B1F4FA5
:1002A0001F930F936B966FAF6B976C967FAF6C97A6
:1002B0000E94BC036C967FAD6C977F936B966FAD7D
:1002C0006B976F9388E191E09F938F93CE01019696
:1002D0007C019F938F930E94BC038CE191E00E946C
:1002E000EF009FEF23ED80E3915020408040E1F745
:1002F00000C0000088E291E00E94EF009FEF23ED34
:1003000080E3915020408040E1F700C00000C80128
:100310000E94EF009FEF23ED80E39150204080404A
:10032000E1F700C00000C7010E94EF0089E991E0F9
:100330000E94EF009FEF23ED80E39150204080402A
:10034000E1F700C000000FB6F894DEBF0FBECDBFCE
:10035000C55ADF4F0FB6F894DEBF0FBECDBFDF9199
:10036000CF911F910F91FF90EF90089585E08093BA
:100370008100EFE6F0E0808181608083109285004B
:100380001092840008950E94B6010E94040187E340
:1003900091E00E94EF0084EF91E00E94FB008CE16D
:1003A00091E00E94EF0088EE93E00C94FB0087E35D
:1003B00091E00E94EF002FEF83ED90E32150804009
:1003C0009040E1F700C000000895809102019091F3
:1003D0000301A0910401B0910501181619061A062F
:1003E0001B0674F00E94DA0280EA90E0A0E0B0E020
:1003F0008093020190930301A0930401B09305013F
:100400008091020190910301A0910401B091050136
:100410000197A109B1098093020190930301A09370
:100420000401B0930501089508956CE371E0809193
:100430000001909101010E94A20321E030E0892B8C
:1004400011F420E030E0C9010895809100019091FD
:1004500001010E94240161E471E00E94A203892B42
:1004600081F080916F008E7F80936F0066E471E071
:100470008BE491E00E94380180916F00816080934D
:100480006F000895E0910001F09101011182108246
:100490001092D3051092D2050895CF93DF938091E7
:1004A000D4079091D507892B41F00E94D7010E9473
:1004B000E5011092D5071092D4070E946B008823A3
:1004C00009F44AC08CE291E00E94FB000E944202C3
:1004D000C0910001D09101018091D2059091D30586
:1004E000C80FD91F0E94710088838091D205909116
:1004F000D30501969093D3058093D2050E946B009B
:100500008111E6CF0E940B018091D2059091D30515
:10051000029714F180910001909101010E9418014D
:10052000892B21F0DF91CF910C9425020E941502B6
:10053000892B31F088E591E0DF91CF910C94EF00A9
:1005400080910001909101010E948B03892B21F081
:10055000DF91CF910C94C502DF91CF9108951F9246
:100560000F920FB60F9211248F939F9381E090E02A
:100570009093D5078093D4079F918F910F900FBED2
:100580000F901F901895259A08952D9A2FEF81EEC0
:1005900094E0215080409040E1F700C000002D9889
:1005A0002FEF81EE94E0215080409040E1F700C0B1
:1005B00000000895CF93DF93CFE6D0E088818E7F4F
:1005C00088838EE591E00E94EF002FEF37EA81E605
:1005D000215030408040E1F700C0000089E691E002
:1005E0000E94EF009FEF23E234EF91502040304013
:1005F000E1F700C0000086E791E00E94EF008FEF76
:1006000093E224EF815090402040E1F700C00000C9
:100610008CE991E00E94EF003FEF87E498EE21E043
:100620003150804090402040D9F700C000008BEA54
:1006300091E00E94EF003FEF83ED90E33150804066
:100640009040E1F700C0000086EB91E00E94EF00CF
:1006500024E535E885E491E0215030408040904029
:10066000D9F700C000C000008CED91E00E94EF00BF
:1006700089E991E00E94EF002FEF33E284EF2150EF
:1006800030408040E1F700C000008AEE91E00E9417
:10069000EF0089E991E00E94EF009FEF23E234EF41
:1006A00080E09150204030408040D9F700C00000E9
:1006B00088E492E00E94EF009FEF27EA31E6915034
:1006C00020403040E1F700C00000888181608883CD
:1006D000DF91CF91089586E592E00E94EF0088EEC9
:1006E00093E00E94FB0081E692E00E94EF0088EE1A
:1006F00093E00C94FB008EE692E00E94EF0088EEFF
:1007000093E00E94FB008BE792E00E94EF0088EEEE
:1007100093E00C94FB0066E872E00E94A20321E0E3
:1007200030E0892B11F420E030E0C90108950E94E7
:10073000C3020E94C3010E94DA020E946B030E945E
:100740004D02FDCFFB0151915523A9F0BF01DC0102
:100750004D9145174111E1F759F4CD010190002069
:1007600049F04D9140154111C9F3FB014111EFCF03
:1007700081E090E001970895AEE0B0E0E2ECF3E0B4
:100780000C9463060D891E8986E08C831A83098385
:100790008FEF9FE79E838D83AE01475E5F4F6F892A
:1007A000788DCE0101960E94DE03EF81F885E00F7F
:1007B000F11F10822E96E4E00C947F06ACE0B0E0CE
:1007C000E4EEF3E00C9455066C017B018A01FC0118
:1007D00017821682838181FFBEC1CE0101964C0132
:1007E000F6019381F70193FD859193FF81917F013C
:1007F000882309F4ACC1853239F493FD859193FFC8
:1008000081917F01853229F4B60190E00E94C705ED
:10081000E7CF512C312C20E02032A0F48B3269F04C
:1008200030F4803259F0833269F420612CC08D326B
:1008300039F0803339F4216026C02260246023C05F
:10084000286021C027FD27C030ED380F3A3078F4FA
:1008500026FF06C0FAE05F9E300D1124532E13C010
:100860008AE0389E300D1124332E20620CC08E3267
:1008700021F426FD6CC1206406C08C3611F420687A
:1008800002C0883641F4F70193FD859193FF819171
:100890007F018111C1CF982F9F7D9554933028F40B
:1008A0000C5F1F4F9FE399830DC0833631F0833770
:1008B00071F0833509F05BC022C0F8018081898323
:1008C0000E5F1F4F44244394512C540115C038012E
:1008D000F2E06F0E711CF801A080B18026FF03C00A
:1008E000652D70E002C06FEF7FEFC5012C870E947D
:1008F000BC052C0183012C852F77222E17C03801CF
:10090000F2E06F0E711CF801A080B18026FF03C0D9
:10091000652D70E002C06FEF7FEFC5012C870E944C
:10092000B1052C012C852068222E830123FC1BC0DD
:10093000832D90E048165906B0F4B60180E290E0AD
:100940000E94C7053A94F4CFF50127FC859127FE54
:1009500081915F01B60190E00E94C70531103A9481
:10096000F1E04F1A51084114510471F7E6C0843682
:1009700011F0893639F5F80127FF07C060817181D0
:10098000828193810C5F1F4F08C060817181072EA7
:10099000000C880B990B0E5F1F4F2F76722E97FF5E
:1009A00009C090958095709561957F4F8F4F9F4FAF
:1009B0002068722E2AE030E0A4010E94F705A82EDC
:1009C000A81844C0853729F42F7EB22E2AE030E0E3
:1009D00025C0F22FF97FBF2E8F36C1F018F488356D
:1009E00079F0B5C0803719F0883721F0B0C02F2FCB
:1009F0002061B22EB4FE0DC08B2D8460B82E09C0CC
:100A000024FF0AC09F2F9660B92E06C028E030E070
:100A100005C020E130E002C020E132E0F801B7FE7D
:100A200007C060817181828193810C5F1F4F06C076
:100A30006081718180E090E00E5F1F4FA4010E94F1
:100A4000F705A82EA818FB2DFF777F2E76FE0BC08A
:100A5000372D3E7FA51450F474FE0AC072FC08C006
:100A6000372D3E7E05C0BA2C372D03C0BA2C01C0ED
:100A7000B52C34FF0DC0FE01EA0DF11D80818033DD
:100A800011F4397E09C032FF06C0B394B39404C098
:100A9000832F867809F0B39433FD13C030FF06C06E
:100AA000B31498F43A0C532C5B1810C0B31470F4C0
:100AB000B60180E290E03C870E94C705B3943C8574
:100AC000F5CFB31418F43B1802C05A2C312C34FF64
:100AD00012C0B60180E390E03C870E94C7053C85C8
:100AE00032FF17C031FD03C088E790E002C088E5FF
:100AF00090E0B6010CC0832F867859F031FF02C018
:100B00008BE201C080E237FD8DE2B60190E00E94E9
:100B1000C705A51438F4B60180E390E00E94C7052C
:100B20005A94F7CFAA94F401EA0DF11D8081B60121
:100B300090E00E94C705A110F5CF332009F450CEF4
:100B4000B60180E290E00E94C7053A94F6CFF60124
:100B50008681978102C08FEF9FEF2C96E2E10C9483
:100B60007106FC010590615070400110D8F7809526
:100B700090958E0F9F1F0895FC0161507040019069
:100B80000110D8F7809590958E0F9F1F08950F93B1
:100B90001F93CF93DF93182F092FEB018B8181FDDA
:100BA00003C08FEF9FEF1EC082FF0FC02E813F81D9
:100BB0008C819D812817390774F4E881F981CF0170
:100BC000019699838883108306C0E885F985812F73
:100BD0000995892B31F78E819F8101969F838E83A2
:100BE000812F902FDF91CF911F910F910895FA01DE
:100BF000AA27283051F1203181F1E8946F936E7F5C
:100C00006E5F7F4F8F4F9F4FAF4FB1E03ED0B4E04C
:100C10003CD0670F781F891F9A1FA11D680F791F8D
:100C20008A1F911DA11D6A0F711D811D911DA11D9E
:100C300020D009F468943F912AE0269F11243019AE
:100C4000305D3193DEF6CF010895462F4770405D49
:100C50004193B3E00FD0C9F7F6CF462F4F70405DF8
:100C60004A3318F0495D31FD4052419302D0A9F753
:100C7000EACFB4E0A6959795879577956795BA954D
:100C8000C9F700976105710508959B01AC010A2E13
:100C900006945795479537952795BA95C9F7620FEA
:100CA000731F841F951FA01D08952F923F924F928E
:100CB0005F926F927F928F929F92AF92BF92CF92EC
:100CC000DF92EF92FF920F931F93CF93DF93CDB7F5
:100CD000DEB7CA1BDB0B0FB6F894DEBF0FBECDBF6D
:100CE00009942A88398848885F846E847D848C843E
:100CF0009B84AA84B984C884DF80EE80FD800C8147
:100D00001B81AA81B981CE0FD11D0FB6F894DEBF29
:0C0D10000FBECDBFED010895F894FFCF99
:100D1C00D405A0000000534D533A0041542B434DD1
:100D2C0047533D25730D0A0025731A0041542B437C
:100D3C004D47463D310D0A0041542B435343533D1F
:100D4C00554353320D0A0041540D0A0052494E4787
:100D5C000070696E6700706F6E67002B373938371B
:100D6C0035333539393639004154410D0A00415477
:100D7C002B435245473F0D0A0041542B43474154E6
:100D8C00543D310D0A0041542B434744434F4E54BC
:100D9C003D312C224950222C22696E7465726E658D
:100DAC00742E6D74732E7275220D0A0041542B43F0
:100DBC00474143543D312C310D0A0041542B4349DA
:100DCC004653520D0A0041542B434950535441523F
:100DDC00543D22554450222C22616E746F776B6106
:100DEC002E7275222C373737380D0A0041542B439D
:100DFC00495053454E443D3933005543364B4651CB
:100E0C003E415052532C54435049502A2C7141436B
:100E1C002C54324752454543453A21353631392E0B
:100E2C0030394E2F30343430332E323445796F70A4
:100E3C002E416E746F6E20285543364B46512F331E
:100E4C0029203134352E3530304D687A2F343333F8
:100E5C002E3530304D687A0041542B434950434C69
:100E6C004F53450D0A0041542B4750533D310D0A49
:100E7C000041542B47505352443D310D0A0041540C
:100E8C002B47505352443D300D0A0041542B4750D0
:0E0E9C00533D300D0A0047505352443A0000B7
:00000001FF
