:100000000C9434000C9451000C9451000C94510049
:100010000C9451000C9451000C9451000C9451001C
:100020000C9451000C9451000C9451000C9451000C
:100030000C9451000C9445030C9451000C94510005
:100040000C9451000C9451000C9487000C94B10056
:100050000C9451000C9451000C9451000C945100DC
:100060000C9451000C94510011241FBECFEFD8E026
:10007000DEBFCDBF13E0A0E0B1E0EEE3F5E102C0EA
:1000800005900D92AC30B107D9F725E0ACE0B3E0B4
:1000900001C01D92AD37B207E1F70E9465060C94CE
:1000A0009D0A0C9400001092C50087E08093C40064
:1000B0001092C000E2ECF0E080818660808388E9E5
:1000C0008093C10010920F0410920E0410920D0341
:1000D00010920C03089590910F0480910E048927CB
:1000E00008950E946B008823E1F390910E04E92F9C
:1000F000F0E0E05FFB4F80819F5F97FD90E0909381
:100100000E049091C10090689093C10008951F92D1
:100110000F920FB60F9211248F939F93EF93FF933B
:10012000E0910F0481E08E0F87FD80E090910E0436
:10013000891306C08091C1008F778093C10008C0E9
:100140009091C600F0E0E05FFB4F908380930F0436
:10015000FF91EF919F918F910F900FBE0F901F9085
:1001600018951F920F920FB60F9211248F93EF9351
:10017000FF93E0910C0380910D038E1306C08091D4
:10018000C1008F7D8093C1000BC0F0E0E25FFC4FA7
:1001900080818093C60080910C038F5F80930C0355
:1001A000FF91EF918F910F900FBE0F901F901895B8
:1001B00080910D0390910C038F5F89270895E09142
:1001C0000D0391E09E0FF0E0E25FFC4F8083809191
:1001D0000C039817E1F390930D038091C1008062A6
:1001E0008093C100089580E091E0EEE0F3E0DF014C
:1001F0009C011D9221503040E1F710920D030895AB
:100200000F931F93CF93DF9300D0CDB7DEB78983D1
:100210009A830E94F3008981082F9A81192FF8018F
:1002200081918F01882319F00E94DF00F8CF0F9091
:100230000F90DF91CF911F910F910895E6E6FEE0B8
:100240003197F1F700000197C9F708950E94530014
:1002500078948CE291E00C941E0180E8E0E1F4E0F7
:10026000DF011D928A95E9F710920F0408956CED55
:1002700071E00E94AB0721E030E0892B11F420E00F
:1002800030E0C9010895109290046CED71E00E9475
:10029000AB07FC0134969FE3A0E9B4E001900D9216
:1002A0009A95E1F71092CF0480E994E00895EF92D7
:1002B000FF920F931F93CF93DF93CDB7DEB7CB554C
:1002C000D1090FB6F894DEBF0FBECDBF9F938F93B9
:1002D00081EE91E09F938F938E010F5B1F4F1F93D1
:1002E0000F936B966FAF6B976C967FAF6C970E9476
:1002F000CD076C967FAD6C977F936B966FAD6B97C8
:100300006F938EEE91E09F938F93CE0101967C01C7
:100310009F938F930E94CD0782EF91E00E9400018E
:100320009FEF2FEF8CE2915020408040E1F700C01A
:1003300000008EEF91E00E9400019FEF2FEF8CE212
:10034000915020408040E1F700C00000C8010E94A9
:1003500000019FEF2FEF8CE2915020408040E1F7A9
:1003600000C00000C7010E9400010FB6F894DEBF74
:100370000FBECDBFC55ADF4F0FB6F894DEBF0FBE1C
:10038000CDBFDF91CF911F910F91FF90EF90089516
:1003900085E080938100EFE6F0E0808181608083DA
:1003A000109285001092840008958DE092E00E94E2
:1003B000000180E293E00E941E0182EF91E00E9422
:1003C000000180E293E00E941E010E94A00580E2ED
:1003D00093E00E941E010C94D205299A2FEF8FEF13
:1003E0009CE2215080409040E1F700C00000299835
:1003F00008950E94ED012FEF3FEF86E791E0215035
:10040000304080409040D9F700C000000E94C801F1
:100410000E9426010C94D501809100019091010168
:10042000A0910201B0910301181619061A061B06C5
:100430007CF00E94D50186E090E0A0E0B0E08093DF
:10044000000190930101A0930201B093030111C038
:100450000397A105B1056CF42FEF8FE796E12150CA
:1004600080409040E1F700C0000084E192E00E94EB
:1004700000018091000190910101A0910201B091D1
:1004800003010197A109B109809300019093010133
:10049000A0930201B093030108958091040190910B
:1004A00005011816190684F029E132E04BE152E00B
:1004B00064E272E08DE292E00E942A0684E190E01C
:1004C00090930501809304018091040190910501AE
:1004D0000197909305018093040108950E944301C0
:1004E00066E372E00E94AB07892BC9F080916F0030
:1004F0008E7F80936F006BE372E080E492E00E9455
:1005000057012FEF8FEF96E8215080409040E1F7A0
:1005100000C0000080916F00816080936F0008959B
:10052000EF92FF920F931F93CF93DF93CDB7DEB778
:10053000C058D1090FB6F894DEBF0FBECDBF1982E7
:100540001A821B821C82FE0135968CE7DF011D9208
:100550008A95E9F780916F008E7F80936F00BFEFDF
:10056000EFE7F6E1B150E040F040E1F700C00000F5
:100570008091D0049091D104892B31F01092D10454
:100580001092D0040E940C022FEF8FE796E12150C9
:1005900080409040E1F700C0000080916F008160D2
:1005A00080936F000E946B00882309F460C0DE0115
:1005B00011967D018D010E947100F70181937F01E9
:1005C0000E946B008111F7CFC8010E943701892B6F
:1005D00059F080916F008E7F80936F000E94D2054A
:1005E000C8010E946E0212C06DE472E0C8010E9450
:1005F000AB07892B99F080916F008E7F80936F00FD
:100600000E94D20582E592E00E9400010E942D0125
:1006100080916F00816080936F0029C068E572E06F
:10062000C8010E94AB07892B59F080916F008E7F23
:1006300080936F000E94D205C8010E94E705E6CFB3
:100640006EE572E0C8010E94AB07892B81F00E9421
:100650005B0386E090E0A0E0B0E08093000190931F
:100660000101A0930201B09303010E942D01C05823
:10067000DF4F0FB6F894DEBF0FBECDBFDF91CF9135
:100680001F910F91FF90EF9008951F920F920FB658
:100690000F9211248F939F9381E090E09093D10467
:1006A0008093D0049F918F910F900FBE0F901F9059
:1006B0001895259A08952D9A2FEF8FE794E02150F1
:1006C00080409040E1F700C000002D982FEF8FE7A9
:1006D00094E0215080409040E1F700C00000089570
:1006E0008F929F92AF92BF92CF92DF92EF92FF9242
:1006F0000F931F93CF93DF93CDB7DEB7C258D109C5
:100700000FB6F894DEBF0FBECDBFD82EC92E962EE1
:10071000872EB42EA52EEDB6FEB60E94D8008823F3
:1007200071F081E692E00E9400012FEF3FEF86E832
:10073000215030408040E1F700C0000009C00E9415
:100740006B008111EACFEDCF0E946B00882321F06E
:100750000E94D8008823C1F38EE692E09F938F9386
:1007600084E191E09F938F938E01085C1F4F1F934C
:100770000F930E94CD07C8010E9400019FEF2FEF49
:1007800036E8915020403040E1F700C000000F9063
:100790000F900F900F900F900F9004C00E946B006D
:1007A000882321F00E94D8008823C1F38EE792E0CD
:1007B0000E9400018FEF9FEF26E88150904020407B
:1007C000E1F700C0000004C00E946B00882321F004
:1007D0000E94D8008823C1F38DE892E00E940001B6
:1007E0003FEF8FEF9CE2315080409040E1F700C036
:1007F000000004C00E946B00882321F00E94D800F2
:100800008823C1F38F929F92CF92DF928EE291E084
:100810009F938F938E010F5F1F4F1F930F930E9423
:10082000CD07C8010E9400012FEF3FEF86E821505D
:1008300030408040E1F700C000002DB73EB7285F90
:100840003F4F0FB6F8943EBF0FBE2DBF04C00E94AD
:100850006B00882321F00E94D8008823C1F3EB2D80
:10086000FA2DDF010D900020E9F78D010E1B1F0B03
:100870000C5F1F4F1F930F938BE491E09F938F9317
:100880006E013FE6C30ED11CDF92CF920E94CD07CE
:10089000C6010E9400018FEF9FEF2CE28150904033
:1008A0002040E1F700C000000F900F900F900F90D4
:1008B0000F900F9004C00E946B00882321F00E94CB
:1008C000D8008823C1F38DB79EB7801B910B0FB65C
:1008D000F8949EBF0FBE8DBF0DB71EB70F5F1F4FA1
:1008E000AF92BF928CE591E09F938F931F930F93EC
:1008F0000E94CD07C8010E9400019FEF2FE736E05C
:1009000081E09150204030408040D9F700C0000085
:100910000F900F900F900F900F900F9004C00E94B7
:100920006B00882321F00E94D8008823C1F388E956
:1009300092E00E9400019FEF2FEF39E59150204097
:100940003040E1F700C000000FB6F894FEBE0FBEC5
:10095000EDBECE57DF4F0FB6F894DEBF0FBECDBF52
:10096000DF91CF911F910F91FF90EF90DF90CF908B
:10097000BF90AF909F908F900895843261F4109251
:1009800009018FEF8093080181E795E090930701BB
:10099000809306010895909109019F3F09F4CCC00E
:1009A00021E0290F20930901213009F4C5C091509D
:1009B000943050F4E0910601F09107018193F09397
:1009C0000701E093060108952091710530917205A9
:1009D0002E3492E53907F1F078F42E3497E4390794
:1009E00009F442C0203597E4390709F470C02C346B
:1009F000374409F09EC076C02E3496E5390709F4D5
:100A00004DC0203596E5390709F448C020353245F8
:100A100009F08FC08C3269F4E0910801EF5FE09338
:100A2000080110927005F0E0EE0FFF1FE054FE4F3A
:100A300067C08A3209F470C0E0910801F0E0EE0F5F
:100A4000FF1FE054FE4F208131814091700591E0FD
:100A5000940F90937005F901E40FF11D8083F90163
:100A6000E90FF11D108208958C3269F4E0910801BC
:100A7000EF5FE093080110927005F0E0EE0FFF1FAA
:100A8000E056FE4F3DC08A3209F446C0E0910801AD
:100A9000F0E0EE0FFF1FE056FE4FD5CF8C3269F429
:100AA000E0910801EF5FE093080110927005F0E01B
:100AB000EE0FFF1FEE59FE4F23C08A32E9F1E0919D
:100AC0000801F0E0EE0FFF1FEE59FE4FBCCF8C3255
:100AD00059F08A3231F585E795E00E948D078093C1
:100AE000D4041AC08C3281F4E0910801EF5FE093E6
:100AF000080110927005F0E0EE0FFF1FEA58FE4F5C
:100B00000190F081E02DAECF8A3259F485E795E06F
:100B10000E948D078093D504109272051092710582
:100B20000895E0910801F0E0EE0FFF1FEA58FE4F34
:100B30008ACF8FEF80930901089586E395E00895A9
:100B400086EA92E00C94000180910A0190910B01D9
:100B5000A0910C01B0910D01B7FF10C080917305F9
:100B600090917405892B51F481EB92E00E94000171
:100B700081E090E0909374058093730580910A0161
:100B800090910B01A0910C01B0910D010197A10969
:100B9000B10980930A0190930B01A0930C01B093CB
:100BA0000D0108958EEB92E00E94000110927405F1
:100BB000109273058AE090E0A0E0B0E080930A0113
:100BC00090930B01A0930C01B0930D010895EF9247
:100BD000FF920F931F93CF93DF93CDB7DEB7EDB6A0
:100BE000FEB60E94BD040E949D05FC0101900020FC
:100BF000E9F7E81BF90B38968DB79EB78E1B9F0B54
:100C00000FB6F8949EBF0FBE8DBF0DB71EB70F5F16
:100C10001F4F0E949D059F938F938BEC92E09F93B3
:100C20008F931F930F930E94CD07C8010E9400016C
:100C30000F900F900F900F900F900F900FB6F894A9
:100C4000FEBE0FBEEDBEDF91CF911F910F91FF90C1
:100C5000EF9008950F931F93CF93DF93CDB7DEB737
:100C6000C659D1090FB6F894DEBF0FBECDBF5F9352
:100C70004F933F932F937F936F939F938F9385ED24
:100C800092E09F938F938E010F5F1F4F1F930F93DF
:100C90000E94CD07A80162E67EE181E093E00E9418
:100CA0007003C8010E9404070FB6F894DEBF0FBEA0
:100CB000CDBFCA56DF4F0FB6F894DEBF0FBECDBF13
:100CC000DF91CF911F910F9108950E9459030E94C7
:100CD000F9010E949002FDCF0F931F93CF93DF93F2
:100CE0008230910510F482E090E0E0917B05F09174
:100CF0007C0520E030E0A0E0B0E0309719F14081C1
:100D000051810281138148175907C8F0841795074C
:100D100069F4109731F012960C93129713961C9366
:100D200027C000937B0510937C0522C02115310557
:100D300019F04217530718F49A01BD01EF01DF01C2
:100D4000F801DBCF21153105F9F0281B390B2430D0
:100D5000310580F48A819B816115710521F0FB01C9
:100D60009383828304C090937C0580937B05FE016E
:100D7000329644C0FE01E20FF31F819391932250FB
:100D80003109398328833AC02091790530917A0559
:100D9000232B41F4209110013091110130937A05F9
:100DA0002093790520910E0130910F012115310515
:100DB00041F42DB73EB74091120150911301241B0D
:100DC000350BE0917905F0917A05E217F307A0F46D
:100DD0002E1B3F0B2817390778F0AC014E5F5F4F91
:100DE0002417350748F04E0F5F1F50937A05409344
:100DF00079058193919302C0E0E0F0E0CF01DF91AB
:100E0000CF911F910F910895CF93DF93009709F42D
:100E100081C0FC01329713821282A0917B05B091B0
:100E20007C05109781F420813181820F931F2091DE
:100E3000790530917A052817390751F5F0937A052D
:100E4000E093790567C0ED0120E030E0CE17DF07C1
:100E500040F44A815B819E0141155105F1F0EA01A0
:100E6000F5CFD383C28340815181840F951FC8176A
:100E7000D90759F488819981840F951F029691832F
:100E800080838A819B81938382832115310529F494
:100E9000F0937C05E0937B053DC0E901FB83EA8389
:100EA00049915991C40FD51FEC17FD0761F480815A
:100EB0009181840F951F0296E9019983888382812D
:100EC00093819B838A83E0E0F0E012968D919C9160
:100ED0001397009719F0FD01DC01F7CF8D919C91DC
:100EE00011979D012E5F3F4F820F931F209179052F
:100EF00030917A052817390769F4309729F4109250
:100F00007C0510927B0502C013821282B0937A0591
:100F1000A0937905DF91CF910895FC018827992747
:100F2000E89421912032E9F3293010F02E30C8F3F3
:100F30002B3241F02D3239F4689404C00E94C50769
:100F4000820F911D219120532A30C0F31EF49095F9
:100F500081959F4F0895FB0151915523A9F0BF0141
:100F6000DC014D9145174111E1F759F4CD01019094
:100F7000002049F04D9140154111C9F3FB01411189
:100F8000EFCF81E090E0019708957AE0979F902D50
:100F9000879F802D910D11240895AEE0B0E0E3ED20
:100FA000F7E00C94740A0D891E8986E08C831A83FD
:100FB00009838FEF9FE79E838D83AE01475E5F4F6E
:100FC0006F89788DCE0101960E94EF07EF81F88539
:100FD000E00FF11F10822E96E4E00C94900AACE032
:100FE000B0E0E5EFF7E00C94660A6C017B018A0142
:100FF000FC0117821682838181FFBEC1CE0101965A
:101000004C01F6019381F70193FD859193FF819146
:101010007F01882309F4ACC1853239F493FD8591B1
:1010200093FF81917F01853229F4B60190E00E94FF
:10103000D809E7CF512C312C20E02032A0F48B329C
:1010400069F030F4803259F0833269F420612CC0A9
:101050008D3239F0803339F4216026C0226024605B
:1010600023C0286021C027FD27C030ED380F3A305B
:1010700078F426FF06C0FAE05F9E300D1124532E4F
:1010800013C08AE0389E300D1124332E20620CC02C
:101090008E3221F426FD6CC1206406C08C3611F41A
:1010A000206802C0883641F4F70193FD859193FFD3
:1010B00081917F018111C1CF982F9F7D95549330ED
:1010C00028F40C5F1F4F9FE399830DC0833631F0E6
:1010D000833771F0833509F05BC022C0F80180814D
:1010E00089830E5F1F4F44244394512C540115C033
:1010F0003801F2E06F0E711CF801A080B18026FF6C
:1011000003C0652D70E002C06FEF7FEFC5012C8733
:101110000E94CD092C0183012C852F77222E17C028
:101120003801F2E06F0E711CF801A080B18026FF3B
:1011300003C0652D70E002C06FEF7FEFC5012C8703
:101140000E94C2092C012C852068222E830123FCD9
:101150001BC0832D90E048165906B0F4B60180E21A
:1011600090E00E94D8093A94F4CFF50127FC8591CC
:1011700027FE81915F01B60190E00E94D8093110ED
:101180003A94F1E04F1A51084114510471F7E6C046
:10119000843611F0893639F5F80127FF07C06081E0
:1011A0007181828193810C5F1F4F08C060817181C2
:1011B000072E000C880B990B0E5F1F4F2F76722E97
:1011C00097FF09C090958095709561957F4F8F4FDF
:1011D0009F4F2068722E2AE030E0A4010E94080A86
:1011E000A82EA81844C0853729F42F7EB22E2AE0F5
:1011F00030E025C0F22FF97FBF2E8F36C1F018F4F2
:10120000883579F0B5C0803719F0883721F0B0C043
:101210002F2F2061B22EB4FE0DC08B2D8460B82E0E
:1012200009C024FF0AC09F2F9660B92E06C028E08F
:1012300030E005C020E130E002C020E132E0F801FA
:10124000B7FE07C060817181828193810C5F1F4F5F
:1012500006C06081718180E090E00E5F1F4FA401A5
:101260000E94080AA82EA818FB2DFF777F2E76FE75
:101270000BC0372D3E7FA51450F474FE0AC072FCDB
:1012800008C0372D3E7E05C0BA2C372D03C0BA2CBE
:1012900001C0B52C34FF0DC0FE01EA0DF11D8081A7
:1012A000803311F4397E09C032FF06C0B394B39481
:1012B00004C0832F867809F0B39433FD13C030FF48
:1012C00006C0B31498F43A0C532C5B1810C0B31436
:1012D00070F4B60180E290E03C870E94D809B39494
:1012E0003C85F5CFB31418F43B1802C05A2C312CAE
:1012F00034FF12C0B60180E390E03C870E94D80919
:101300003C8532FF17C031FD03C088E790E002C082
:1013100088E590E0B6010CC0832F867859F031FF44
:1013200002C08BE201C080E237FD8DE2B60190E0A1
:101330000E94D809A51438F4B60180E390E00E9419
:10134000D8095A94F7CFAA94F401EA0DF11D8081CF
:10135000B60190E00E94D809A110F5CF332009F41E
:1013600050CEB60180E290E00E94D8093A94F6CFC0
:10137000F6018681978102C08FEF9FEF2C96E2E104
:101380000C94820AFC010590615070400110D8F75E
:10139000809590958E0F9F1F0895FC0161507040BD
:1013A00001900110D8F7809590958E0F9F1F08959A
:1013B0000F931F93CF93DF93182F092FEB018B818E
:1013C00081FD03C08FEF9FEF1EC082FF0FC02E81F3
:1013D0003F818C819D812817390774F4E881F98158
:1013E000CF01019699838883108306C0E885F9852B
:1013F000812F0995892B31F78E819F8101969F83DB
:101400008E83812F902FDF91CF911F910F9108959F
:10141000FA01AA27283051F1203181F1E8946F9325
:101420006E7F6E5F7F4F8F4F9F4FAF4FB1E03ED0CB
:10143000B4E03CD0670F781F891F9A1FA11D680F69
:10144000791F8A1F911DA11D6A0F711D811D911D9C
:10145000A11D20D009F468943F912AE0269F112411
:101460003019305D3193DEF6CF010895462F477075
:10147000405D4193B3E00FD0C9F7F6CF462F4F70D0
:10148000405D4A3318F0495D31FD4052419302D02E
:10149000A9F7EACFB4E0A6959795879577956795D4
:1014A000BA95C9F700976105710508959B01AC01D4
:1014B0000A2E06945795479537952795BA95C9F7FB
:1014C000620F731F841F951FA01D08952F923F92D6
:1014D0004F925F926F927F928F929F92AF92BF9244
:1014E000CF92DF92EF92FF920F931F93CF93DF93F0
:1014F000CDB7DEB7CA1BDB0B0FB6F894DEBF0FBE4D
:10150000CDBF09942A88398848885F846E847D8499
:101510008C849B84AA84B984C884DF80EE80FD809B
:101520000C811B81AA81B981CE0FD11D0FB6F89411
:0E153000DEBF0FBECDBFED010895F894FFCFD2
:10153E000600000014007105FFFF0A000000000005
:10154E007D05200041542B434744434F4E543D31BB
:10155E002C224950222C222573220D0A00004154C0
:10156E002B43495053544152543D22554450222C42
:10157E00222573222C25640D0A000041542B434969
:10158E005053454E443D25640D0A000025730D0A47
:10159E00000012050E05DE04DE04D604DE04060588
:1015AE00DE04DE04DE04DE04DE047505DE04DE0485
:1015BE00DE04DE04DE04DE04DE04DE04DE04DE040D
:1015CE00DE04DE04DE04DE04DE04DE04DE04DE04FD
:1015DE00DE04DE04DE04DE04DE04DE042605DE04A4
:1015EE001A05DE04DE04DE04DE04DE04DE04DE04A0
:1015FE006405620552054F0543054005DE043605B8
:10160E002A05DE04DE04DE04DE04DE04534D533A06
:10161E000041542B434D47533D25730D0A0025734E
:10162E001A0041542B434D47463D310D0A0041549B
:10163E002B435343533D554353320D0A00415445FA
:10164E00300D0A0041540D0A0079006F702E416E64
:10165E00746F6E00343430332E32374500353631E8
:10166E00392E30384E0070696E6700706F6E6700ED
:10167E002B37393837353335393936390052494EEB
:10168E0047004154410D0A004750474741004F4B18
:10169E000041542B43474154543D310D0A00696EAD
:1016AE007465726E65742E6D74732E72750041546E
:1016BE002B43474143543D312C310D0A0041542BED
:1016CE0043494653520D0A0041542B434950434C53
:1016DE004F53450D0A0041542B4750533D310D0ACF
:1016EE000041542B47505352443D310D0A00415492
:1016FE002B47505352443D300D0A004750533A3A4F
:10170E0025730D0A005543364B46513E41505253F8
:10171E002C54435049502A2C7141432C5432475279
:10172E00454543453A2125732F302573257325737F
:0C173E0000616E746F776B612E72750095
:00000001FF
