:100000000C9434000C9451000C9451000C94510049
:100010000C9451000C9451000C9451000C9451001C
:100020000C9451000C9451000C9451000C9451000C
:100030000C9451000C9451000C9451000C945100FC
:100040000C9451000C9451000C941B010C9443012E
:100050000C9451000C9451000C9451000C945100DC
:100060000C9451000C94510011241FBECFEFD8E026
:10007000DEBFCDBF11E0A0E0B1E0E4E6F4E002C0F5
:1000800005900D92A036B107D9F723E0A0E6B1E0C4
:1000900001C01D92A63EB207E1F70E94D7010C9461
:1000A00030020C94000082E091E00E948E0184EF07
:1000B00091E00E949A0187E091E00E948E0184EF16
:1000C00091E00E949A0182E191E00E948E0184EF0A
:1000D00091E00C949A012D9A2FEF83ED90E321503B
:1000E00080409040E1F700C000002D982FEF83ED95
:1000F00090E3215080409040E1F700C00000089557
:1001000082E091E00C948E016EE171E0809100013B
:10011000909101010E941602892B21F083E291E067
:100120000C948E010895CF93DF9300D0CDB7DEB746
:1001300080910001909101010E94C30189839A83FB
:100140000E946B0069E271E089819A810E94160227
:10015000892B79F182E191E00E948E012FEF83EDEE
:1001600090E3215080409040E1F700C000008EE213
:1001700091E00E948E012FEF83ED90E321508040AB
:100180009040E1F700C000008DE391E00E948E01F5
:100190002FEF83ED90E3215080409040E1F700C0C5
:1001A000000084E591E00F900F90DF91CF910C94C7
:1001B0008E010F900F90DF91CF910895E091000193
:1001C000F091010111821082109261011092600180
:1001D00008951092C50087E68093C4001092C00075
:1001E000E2ECF0E080818660808388E98093C10042
:1001F0001092A5021092A402109263021092620261
:1002000008959091A5028091A402892708950E94E3
:1002100001018823E1F39091A402E92FF0E0EA556F
:10022000FD4F80819F5F9093A4029091C1009068E0
:100230009093C10008951F920F920FB60F92112450
:100240008F939F93EF93FF93E091A50281E08E0F30
:100250009091A402891306C08091C1008F7780938A
:10026000C10008C09091C600F0E0EA55FD4F9083B0
:100270008093A502FF91EF919F918F910F900FBEF8
:100280000F901F9018951F920F920FB60F92112486
:100290008F93EF93FF93E0916202809163028E133C
:1002A00006C08091C1008F7D8093C1000EC0F0E038
:1002B000EC59FD4F80818093C600809162028F5F70
:1002C000803408F080E080936202FF91EF918F917B
:1002D0000F900FBE0F901F901895809163028F5F53
:1002E000803408F080E09091620289270895E091BF
:1002F000630291E09E0F903408F090E0F0E0EC593A
:10030000FD4F8083809162029817E1F3909363021E
:100310008091C10080628093C1000895CF93DF93E4
:10032000EC018991882319F00E947701FACFDF91BF
:10033000CF910895EFE9FFE03197F1F700C0000099
:100340000197C1F708950E94E90078948CE291E04A
:100350000C949A0180E091E0E6EAF2E0DF019C0172
:100360001D9221503040E1F71092A50208956AE5F0
:1003700071E00E94160221E030E0892B11F420E0A8
:1003800030E0C90108951092A6036AE571E00E9469
:100390001602FC0134969FE3A6EAB3E001900D92A9
:1003A0009A95E1F71092E50386EA93E00895259A7D
:1003B0000E94A3010E9453000E9401018823E1F3DF
:1003C0008CE291E00E949A010E94DE00C09100013F
:1003D000D09101018091600190916101C80FD91FF6
:1003E0000E940701888380916001909161010196CC
:1003F00090936101809360010E9401018111E6CF19
:100400000E94AA0180916001909161010297A4F27B
:1004100080910001909101010E94B701892B19F090
:100420000E949300C9CF0E948400C6CFFB01519166
:100430005523A9F0BF01DC014D9145174111E1F7AA
:1004400059F4CD010190002049F04D914015411122
:10045000C9F3FB014111EFCF81E090E001970895CE
:04046000F894FFCF3E
:10046400620141540D0A0041542B4750533D310D54
:100474000A0041542B434D47463D310D0A00524971
:100484004E47004154410D0A0070696E67004154A3
:100494002B435343533D554353320D0A0041542BD0
:1004A400434D47533D2B3739383735333539393692
:1004B400390D0A00706F6E671A00534D533A0000ED
:00000001FF
