:100000000C9434000C9451000C9451000C94510049
:100010000C9451000C9451000C9451000C9451001C
:100020000C9451000C9451000C9451000C9451000C
:100030000C9451000C94A2020C9451000C945100A9
:100040000C9451000C9451000C9485000C94AD005C
:100050000C9451000C9451000C9451000C945100DC
:100060000C9451000C94510011241FBECFEFD8E026
:10007000DEBFCDBF12E0A0E0B1E0E6EAFCE002C0E6
:1000800005900D92A236B107D9F725E0A2E6B2E0BD
:1000900001C01D92AA3AB207E1F70E945E030C94D8
:1000A00051060C9400001092C50087E68093C400AE
:1000B0001092C000E2ECF0E080818660808388E9E5
:1000C0008093C10010926503109264031092630242
:1000D00010926202089590916503809164038927CC
:1000E00008950E946B008823E1F390916403E92F47
:1000F000F0E0EA59FC4F80819F5F909364039091F8
:10010000C10090689093C10008951F920F920FB69E
:100110000F9211248F939F93EF93FF93E0916503C8
:1001200081E08E0F90916403891306C08091C10015
:100130008F778093C10008C09091C600F0E0EA5923
:10014000FC4F908380936503FF91EF919F918F9176
:100150000F900FBE0F901F9018951F920F920FB621
:100160000F9211248F93EF93FF93E091620280919D
:1001700063028E1306C08091C1008F7D8093C10001
:100180000BC0F0E0EC59FD4F80818093C600809158
:1001900062028F5F80936202FF91EF918F910F90C7
:1001A0000FBE0F901F90189580916302909162028C
:1001B0008F5F89270895E091630291E09E0FF0E040
:1001C000EC59FD4F8083809162029817E1F3909380
:1001D00063028091C10080628093C1000895CF9333
:1001E000DF93EC018991882319F00E94DB00FACF9C
:1001F000DF91CF910895EFE9FFE03197F1F700C06B
:1002000000000197C1F708950E94530078948CE292
:1002100091E00C94FB0080E091E0E6E6F3E0DF0182
:100220009C011D9221503040E1F710926503089522
:1002300066E071E00E94670321E030E0892B11F451
:1002400020E030E0C90108951092660466E071E094
:100250000E946703FC0134969FE3A6E6B4E0019098
:100260000D929A95E1F71092A50486E694E0089520
:10027000EF92FF920F931F93CF93DF93CDB7DEB72B
:10028000CB55D1090FB6F894DEBF0FBECDBF9F93FB
:100290008F938BE091E09F938F938E010F5B1F4FA5
:1002A0001F930F936B966FAF6B976C967FAF6C97A6
:1002B0000E9481036C967FAD6C977F936B966FADB8
:1002C0006B976F9388E191E09F938F93CE01019696
:1002D0007C019F938F930E9481038CE191E00E94A7
:1002E000EF009FEF23ED80E3915020408040E1F745
:1002F00000C0000088E291E00E94EF009FEF23ED34
:1003000080E3915020408040E1F700C00000C80128
:100310000E94EF009FEF23ED80E39150204080404A
:10032000E1F700C00000C7010E94EF0084EA91E0FD
:100330000E94EF009FEF23ED80E39150204080402A
:10034000E1F700C000000FB6F894DEBF0FBECDBFCE
:10035000C55ADF4F0FB6F894DEBF0FBECDBFDF9199
:10036000CF911F910F91FF90EF90089585E08093BA
:100370008100EFE6F0E0808181608083109285004B
:100380001092840008950E94B6010E94040187E340
:1003900091E00E94EF0084EF91E00E94FB008CE36B
:1003A00091E00E94EF0088EE93E00E94FB008CE158
:1003B00091E00E94EF0088EE93E00C94FB0087E34D
:1003C00091E00E94EF002FEF83ED90E321508040F9
:1003D0009040E1F700C000000895809102019091E3
:1003E0000301A0910401B0910501181619061A061F
:1003F0001B0674F00E94CD0284E690E0A0E0B0E01D
:100400008093020190930301A0930401B09305012E
:100410008091020190910301A0910401B091050126
:100420000197A109B1098093020190930301A09360
:100430000401B0930501089567E471E08091000123
:10044000909101010E946703892B21F08CE491E0D7
:100450000C94EF00089580910001909101010E9499
:10046000240162E571E00E946703892B81F080918D
:100470006F008E7F80936F0067E571E08CE591E0FF
:100480000E94380180916F00816080936F00089511
:10049000E0910001F0910101118210821092A704F5
:1004A0001092A6040895CF93DF938091A8059091B0
:1004B000A905892B41F00E94DF010E94ED011092F5
:1004C000A9051092A8050E946B008823C1F18CE257
:1004D00091E00E94FB000E944802C0910001D0916F
:1004E00001018091A6049091A704C80FD91F0E9412
:1004F000710088838091A6049091A704019690933F
:10050000A7048093A6040E946B008111E6CF0E948D
:100510000B018091A6049091A704029784F080912A
:100520000001909101010E941801892B21F0DF91B7
:10053000CF910C942B02DF91CF910C941C02DF9190
:10054000CF9108951F920F920FB60F9211248F939F
:100550009F9381E090E09093A9058093A8059F91D7
:100560008F910F900FBE0F901F901895259A0895A8
:100570002D9A2FEF81EE94E0215080409040E1F7DA
:1005800000C000002D982FEF81EE94E021508040B4
:100590009040E1F700C000000895CF93DF93CFE6CD
:1005A000D0E088818E7F888389E691E00E94EF0009
:1005B0002FEF37EA81E6215030408040E1F700C05C
:1005C000000084E791E00E94EF009FEF23E234EF08
:1005D000915020403040E1F700C0000081E891E0F8
:1005E0000E94EF008FEF93E224EF81509040204073
:1005F000E1F700C0000087EA91E00E94EF003FEFC2
:1006000087E498EE21E03150804090402040D9F7B7
:1006100000C0000086EB91E00E94EF003FEF83ED09
:1006200090E3315080409040E1F700C0000081EC41
:1006300091E00E94EF0024E535E885E491E0215047
:10064000304080409040D9F700C000C0000087EEE5
:1006500091E00E94EF0084EA91E00E94EF002FEF0A
:1006600033E284EF215030408040E1F700C00000C9
:1006700085EF91E00E94EF0084EA91E00E94EF0094
:100680009FEF23E234EF80E09150204030408040E3
:10069000D9F700C0000083E592E00E94EF009FEFD1
:1006A00027EA31E6915020403040E1F700C00000D9
:1006B000888181608883DF91CF9108950E94B6027E
:1006C0000E94C3010E94CD020E945302FDCFFB0194
:1006D00051915523A9F0BF01DC014D9145174111FE
:1006E000E1F759F4CD010190002049F04D914015FA
:1006F0004111C9F3FB014111EFCF81E090E0019777
:100700000895AEE0B0E0E7E8F3E00C9428060D8928
:100710001E8986E08C831A8309838FEF9FE79E836F
:100720008D83AE01475E5F4F6F89788DCE01019654
:100730000E94A303EF81F885E00FF11F10822E962F
:10074000E4E00C944406ACE0B0E0E9EAF3E00C9499
:100750001A066C017B018A01FC01178216828381D3
:1007600081FFBEC1CE0101964C01F6019381F701D4
:1007700093FD859193FF81917F01882309F4ACC19A
:10078000853239F493FD859193FF81917F01853204
:1007900029F4B60190E00E948C05E7CF512C312C52
:1007A00020E02032A0F48B3269F030F4803259F02E
:1007B000833269F420612CC08D3239F0803339F4F2
:1007C000216026C02260246023C0286021C027FD4C
:1007D00027C030ED380F3A3078F426FF06C0FAE033
:1007E0005F9E300D1124532E13C08AE0389E300DC9
:1007F0001124332E20620CC08E3221F426FD6CC1F0
:10080000206406C08C3611F4206802C0883641F49A
:10081000F70193FD859193FF81917F018111C1CFF4
:10082000982F9F7D9554933028F40C5F1F4F9FE3C2
:1008300099830DC0833631F0833771F0833509F029
:100840005BC022C0F801808189830E5F1F4F442462
:100850004394512C540115C03801F2E06F0E711C05
:10086000F801A080B18026FF03C0652D70E002C0B2
:100870006FEF7FEFC5012C870E9481052C0183015A
:100880002C852F77222E17C03801F2E06F0E711CD5
:10089000F801A080B18026FF03C0652D70E002C082
:1008A0006FEF7FEFC5012C870E9476052C012C8508
:1008B0002068222E830123FC1BC0832D90E0481664
:1008C0005906B0F4B60180E290E00E948C053A949B
:1008D000F4CFF50127FC859127FE81915F01B601D8
:1008E00090E00E948C0531103A94F1E04F1A5108C3
:1008F0004114510471F7E6C0843611F0893639F598
:10090000F80127FF07C060817181828193810C5FAC
:100910001F4F08C060817181072E000C880B990B56
:100920000E5F1F4F2F76722E97FF09C0909580950E
:10093000709561957F4F8F4F9F4F2068722E2AE0F0
:1009400030E0A4010E94BC05A82EA81844C0853739
:1009500029F42F7EB22E2AE030E025C0F22FF97F55
:10096000BF2E8F36C1F018F4883579F0B5C08037C6
:1009700019F0883721F0B0C02F2F2061B22EB4FEBD
:100980000DC08B2D8460B82E09C024FF0AC09F2F94
:100990009660B92E06C028E030E005C020E130E0C6
:1009A00002C020E132E0F801B7FE07C0608171812A
:1009B000828193810C5F1F4F06C06081718180E04E
:1009C00090E00E5F1F4FA4010E94BC05A82EA8183E
:1009D000FB2DFF777F2E76FE0BC0372D3E7FA514B3
:1009E00050F474FE0AC072FC08C0372D3E7E05C06C
:1009F000BA2C372D03C0BA2C01C0B52C34FF0DC062
:100A0000FE01EA0DF11D8081803311F4397E09C0A9
:100A100032FF06C0B394B39404C0832F867809F0E4
:100A2000B39433FD13C030FF06C0B31498F43A0CEE
:100A3000532C5B1810C0B31470F4B60180E290E040
:100A40003C870E948C05B3943C85F5CFB31418F411
:100A50003B1802C05A2C312C34FF12C0B60180E37F
:100A600090E03C870E948C053C8532FF17C031FD29
:100A700003C088E790E002C088E590E0B6010CC0B2
:100A8000832F867859F031FF02C08BE201C080E2EB
:100A900037FD8DE2B60190E00E948C05A51438F474
:100AA000B60180E390E00E948C055A94F7CFAA9497
:100AB000F401EA0DF11D8081B60190E00E948C05E1
:100AC000A110F5CF332009F450CEB60180E290E0BA
:100AD0000E948C053A94F6CFF6018681978102C078
:100AE0008FEF9FEF2C96E2E10C943606FC01059007
:100AF000615070400110D8F7809590958E0F9F1F20
:100B00000895FC016150704001900110D8F7809564
:100B100090958E0F9F1F08950F931F93CF93DF9390
:100B2000182F092FEB018B8181FD03C08FEF9FEF01
:100B30001EC082FF0FC02E813F818C819D812817AE
:100B4000390774F4E881F981CF010196998388838C
:100B5000108306C0E885F985812F0995892B31F727
:100B60008E819F8101969F838E83812F902FDF91AD
:100B7000CF911F910F910895FA01AA27283051F1C2
:100B8000203181F1E8946F936E7F6E5F7F4F8F4FBE
:100B90009F4FAF4FB1E03ED0B4E03CD0670F781F1D
:100BA000891F9A1FA11D680F791F8A1F911DA11D02
:100BB0006A0F711D811D911DA11D20D009F468943B
:100BC0003F912AE0269F11243019305D3193DEF6E3
:100BD000CF010895462F4770405D4193B3E00FD099
:100BE000C9F7F6CF462F4F70405D4A3318F0495D84
:100BF00031FD4052419302D0A9F7EACFB4E0A69567
:100C00009795879577956795BA95C9F70097610588
:100C1000710508959B01AC010A2E069457954795DE
:100C200037952795BA95C9F7620F731F841F951FD3
:100C3000A01D08952F923F924F925F926F927F92E4
:100C40008F929F92AF92BF92CF92DF92EF92FF92DC
:100C50000F931F93CF93DF93CDB7DEB7CA1BDB0B88
:100C60000FB6F894DEBF0FBECDBF09942A8839882D
:100C700048885F846E847D848C849B84AA84B98434
:100C8000C884DF80EE80FD800C811B81AA81B98140
:100C9000CE0FD11D0FB6F894DEBF0FBECDBFED0154
:060CA0000895F894FFCF57
:100CA600A80464000000534D533A0041542B434DB1
:100CB60047533D25730D0A0025731A0041542B43F3
:100CC6004D47463D310D0A0041542B435343533D96
:100CD600554353320D0A0041540D0A0041542B4727
:100CE60050533D310D0A0052494E47004154410DC3
:100CF6000A0070696E6700706F6E67002B373938AF
:100D060037353335393936390041542B4352454747
:100D16003F0D0A0041542B43474154543D310D0ABF
:100D26000041542B434744434F4E543D312C2249F6
:100D360050222C22696E7465726E65742E6D747302
:100D46002E7275220D0A0041542B43474143543DF0
:100D5600312C310D0A0041542B43494653520D0A9A
:100D66000041542B43495053544152543D2255445B
:100D760050222C22616E746F776B612E7275222C55
:100D8600373737380D0A0041542B43495053454EE7
:100D9600443D3933005543364B46513E415052533C
:100DA6002C54435049502A2C7141432C54324752FB
:100DB600454543453A21353631392E30394E2F30A7
:100DC600343430332E323445796F702E416E746F61
:100DD6006E20285543364B46512F33292031343562
:100DE6002E3530304D687A2F3433332E3530304D32
:100DF600687A0041542B434950434C4F53450D0AE2
:020E06000000EA
:00000001FF
