:100000000C9434000C9451000C9451000C94510049
:100010000C9451000C9451000C9451000C9451001C
:100020000C9451000C9451000C9451000C9451000C
:100030000C9451000C9451000C9451000C945100FC
:100040000C9451000C9451000C9485000C94AD005C
:100050000C9451000C9451000C9451000C945100DC
:100060000C9451000C94510011241FBECFEFD8E026
:10007000DEBFCDBF11E0A0E0B1E0EEE1FBE002C0E9
:1000800005900D92AA36B107D9F723E0AAE6B1E0B0
:1000900001C01D92A03FB207E1F70E949C020C94A0
:1000A0008D050C9400001092C50087E68093C40073
:1000B0001092C000E2ECF0E080818660808388E9E5
:1000C0008093C1001092AD011092AC0110926B01AF
:1000D00010926A0108959091AD018091AC01892739
:1000E00008950E946B008823E1F39091AC01E92F01
:1000F000F0E0E255FE4F80819F5F9093AC019091BC
:10010000C10090689093C10008951F920F920FB69E
:100110000F9211248F939F93EF93FF93E091AD0182
:1001200081E08E0F9091AC01891306C08091C100CF
:100130008F778093C10008C09091C600F0E0E2552F
:10014000FE4F90838093AD01FF91EF919F918F912E
:100150000F900FBE0F901F9018951F920F920FB621
:100160000F9211248F93EF93FF93E0916A01809196
:100170006B018E1306C08091C1008F7D8093C100FA
:100180000EC0F0E0E459FE4F80818093C60080915C
:100190006A018F5F803408F080E080936A01FF91EC
:1001A000EF918F910F900FBE0F901F901895809137
:1001B0006B018F5F803408F080E090916A0189279D
:1001C0000895E0916B0191E09E0F903408F090E06B
:1001D000F0E0E459FE4F808380916A019817E1F3C3
:1001E00090936B018091C10080628093C10008955B
:1001F000CF93DF93EC018991882319F00E94E100ED
:10020000FACFDF91CF910895EFE9FFE03197F1F751
:1002100000C000000197C1F708950E945300789430
:100220008CE291E00C94040180E091E0EEEAF1E0D0
:10023000DF019C011D9221503040E1F71092AD0189
:10024000089566E071E00E94A30221E030E0892B6E
:1002500011F420E030E0C90108951092AE0266E08A
:1002600071E00E94A302FC0134969FE3AEEAB2E083
:1002700001900D929A95E1F71092ED028EEA92E0CC
:100280000895EF92FF920F931F93CF93DF93CDB713
:10029000DEB7CB55D1090FB6F894DEBF0FBECDBF88
:1002A0009F938F938BE091E09F938F938E010F5BD1
:1002B0001F4F1F930F936B966FAF6B976C967FAF2B
:1002C0006C970E94BD026C967FAD6C977F936B9686
:1002D0006FAD6B976F9388E191E09F938F93CE0101
:1002E00001967C019F938F930E94BD028CE191E067
:1002F0000E94F8009FEF23ED80E391502040804062
:10030000E1F700C0000088E291E00E94F8009FEF52
:1003100023ED80E3915020408040E1F700C00000D1
:10032000C8010E94F8009FEF23ED80E39150204028
:100330008040E1F700C00000C7010E94F8000FB63E
:10034000F894DEBF0FBECDBFC55ADF4F0FB6F8948D
:10035000DEBF0FBECDBFDF91CF911F910F91FF90F8
:10036000EF9008950E940D0187E391E00E94F8004C
:1003700084EF91E00E9404018CE391E00E94F80078
:1003800084EF91E00E9404018CE191E00E94F8006A
:1003900084EF91E00C94040180910201909103019B
:1003A000A0910401B0910501181619061A061B0642
:1003B00044F187E391E00E94F8002FEF85EA9EE088
:1003C000215080409040E1F700C0000087E391E0B9
:1003D0000E94F8002FEF85EA9EE021508040904077
:1003E000E1F700C000000E94870280E49BE4ACE4D7
:1003F000B0E08093020190930301A0930401B093B5
:1004000005018091020190910301A0910401B09136
:1004100005010197A109B10980930201909303019D
:10042000A0930401B0930501089567E471E0809101
:100430000001909101010E94A302892B21F08CE41C
:1004400091E00C94F80008958091000190910101D1
:100450000E942D0162E571E00E94A302892B31F018
:1004600067E571E08CE591E00C9441010895E0911D
:100470000001F0910101118210821092EF0210929E
:10048000EE020895CF93DF930E94CC010E946B008F
:100490008823C1F18CE291E00E9404010E9437029E
:1004A000C0910001D09101018091EE029091EF0284
:1004B000C80FD91F0E94710088838091EE0290912D
:1004C000EF0201969093EF028093EE020E946B0080
:1004D0008111E6CF0E9414018091EE029091EF020B
:1004E000029784F080910001909101010E94210106
:1004F000892B21F0DF91CF910C942402DF91CF91D1
:100500000C941502DF91CF910895259A08952D9AA4
:100510002FEF81EE94E0215080409040E1F700C041
:1005200000002D982FEF81EE94E021508040904004
:10053000E1F700C0000008950E9485020E94B20108
:100540000E944202FDCFFB0151915523A9F0BF014A
:10055000DC014D9145174111E1F759F4CD010190AE
:10056000002049F04D9140154111C9F3FB014111A3
:10057000EFCF81E090E001970895AEE0B0E0E3ECCA
:10058000F2E00C9464050D891E8986E08C831A8341
:1005900009838FEF9FE79E838D83AE01475E5F4F98
:1005A0006F89788DCE0101960E94DF02EF81F88578
:1005B000E00FF11F10822E96E4E00C948005ACE071
:1005C000B0E0E5EEF2E00C9456056C017B018A0187
:1005D000FC0117821682838181FFBEC1CE01019684
:1005E0004C01F6019381F70193FD859193FF819171
:1005F0007F01882309F4ACC1853239F493FD8591DC
:1006000093FF81917F01853229F4B60190E00E9429
:10061000C804E7CF512C312C20E02032A0F48B32DB
:1006200069F030F4803259F0833269F420612CC0D3
:100630008D3239F0803339F4216026C02260246085
:1006400023C0286021C027FD27C030ED380F3A3085
:1006500078F426FF06C0FAE05F9E300D1124532E79
:1006600013C08AE0389E300D1124332E20620CC056
:100670008E3221F426FD6CC1206406C08C3611F444
:10068000206802C0883641F4F70193FD859193FFFD
:1006900081917F018111C1CF982F9F7D9554933017
:1006A00028F40C5F1F4F9FE399830DC0833631F010
:1006B000833771F0833509F05BC022C0F801808177
:1006C00089830E5F1F4F44244394512C540115C05D
:1006D0003801F2E06F0E711CF801A080B18026FF96
:1006E00003C0652D70E002C06FEF7FEFC5012C875E
:1006F0000E94BD042C0183012C852F77222E17C068
:100700003801F2E06F0E711CF801A080B18026FF65
:1007100003C0652D70E002C06FEF7FEFC5012C872D
:100720000E94B2042C012C852068222E830123FC18
:100730001BC0832D90E048165906B0F4B60180E244
:1007400090E00E94C8043A94F4CFF50127FC85910B
:1007500027FE81915F01B60190E00E94C80431102C
:100760003A94F1E04F1A51084114510471F7E6C070
:10077000843611F0893639F5F80127FF07C060810A
:100780007181828193810C5F1F4F08C060817181EC
:10079000072E000C880B990B0E5F1F4F2F76722EC1
:1007A00097FF09C090958095709561957F4F8F4F09
:1007B0009F4F2068722E2AE030E0A4010E94F804C6
:1007C000A82EA81844C0853729F42F7EB22E2AE01F
:1007D00030E025C0F22FF97FBF2E8F36C1F018F41C
:1007E000883579F0B5C0803719F0883721F0B0C06E
:1007F0002F2F2061B22EB4FE0DC08B2D8460B82E39
:1008000009C024FF0AC09F2F9660B92E06C028E0B9
:1008100030E005C020E130E002C020E132E0F80124
:10082000B7FE07C060817181828193810C5F1F4F89
:1008300006C06081718180E090E00E5F1F4FA401CF
:100840000E94F804A82EA818FB2DFF777F2E76FEB5
:100850000BC0372D3E7FA51450F474FE0AC072FC05
:1008600008C0372D3E7E05C0BA2C372D03C0BA2CE8
:1008700001C0B52C34FF0DC0FE01EA0DF11D8081D1
:10088000803311F4397E09C032FF06C0B394B394AB
:1008900004C0832F867809F0B39433FD13C030FF72
:1008A00006C0B31498F43A0C532C5B1810C0B31460
:1008B00070F4B60180E290E03C870E94C804B394D3
:1008C0003C85F5CFB31418F43B1802C05A2C312CD8
:1008D00034FF12C0B60180E390E03C870E94C80458
:1008E0003C8532FF17C031FD03C088E790E002C0AD
:1008F00088E590E0B6010CC0832F867859F031FF6F
:1009000002C08BE201C080E237FD8DE2B60190E0CB
:100910000E94C804A51438F4B60180E390E00E9458
:10092000C8045A94F7CFAA94F401EA0DF11D80810E
:10093000B60190E00E94C804A110F5CF332009F45D
:1009400050CEB60180E290E00E94C8043A94F6CFFF
:10095000F6018681978102C08FEF9FEF2C96E2E12E
:100960000C947205FC010590615070400110D8F79D
:10097000809590958E0F9F1F0895FC0161507040E7
:1009800001900110D8F7809590958E0F9F1F0895C4
:100990000F931F93CF93DF93182F092FEB018B81B8
:1009A00081FD03C08FEF9FEF1EC082FF0FC02E811D
:1009B0003F818C819D812817390774F4E881F98182
:1009C000CF01019699838883108306C0E885F98555
:1009D000812F0995892B31F78E819F8101969F8305
:1009E0008E83812F902FDF91CF911F910F910895CA
:1009F000FA01AA27283051F1203181F1E8946F9350
:100A00006E7F6E5F7F4F8F4F9F4FAF4FB1E03ED0F5
:100A1000B4E03CD0670F781F891F9A1FA11D680F93
:100A2000791F8A1F911DA11D6A0F711D811D911DC6
:100A3000A11D20D009F468943F912AE0269F11243B
:100A40003019305D3193DEF6CF010895462F47709F
:100A5000405D4193B3E00FD0C9F7F6CF462F4F70FA
:100A6000405D4A3318F0495D31FD4052419302D058
:100A7000A9F7EACFB4E0A6959795879577956795FE
:100A8000BA95C9F700976105710508959B01AC01FE
:100A90000A2E06945795479537952795BA95C9F725
:100AA000620F731F841F951FA01D08952F923F9200
:100AB0004F925F926F927F928F929F92AF92BF926E
:100AC000CF92DF92EF92FF920F931F93CF93DF931A
:100AD000CDB7DEB7CA1BDB0B0FB6F894DEBF0FBE77
:100AE000CDBF09942A88398848885F846E847D84C4
:100AF0008C849B84AA84B984C884DF80EE80FD80C6
:100B00000C811B81AA81B981CE0FD11D0FB6F8943B
:0E0B1000DEBF0FBECDBFED010895F894FFCFFC
:100B1E00F002404B4C00534D533A0041542B434D81
:100B2E0047533D25730D0A0025731A0041542B437C
:100B3E004D47463D310D0A0041542B435343533D1F
:100B4E00554353320D0A0041540D0A0041542B47B0
:100B5E0050533D310D0A0052494E47004154410D4C
:100B6E000A0070696E6700706F6E67002B37393838
:0A0B7E0037353335393936390000B8
:00000001FF
