:100000000C9434000C9451000C9451000C94510049
:100010000C9451000C9451000C9451000C9451001C
:100020000C9451000C9451000C9451000C9451000C
:100030000C9451000C9420030C9451000C9451002A
:100040000C9451000C9451000C9485000C94AD005C
:100050000C9451000C9451000C9451000C945100DC
:100060000C9451000C94510011241FBECFEFD8E026
:10007000DEBFCDBF12E0A0E0B1E0EEE9F1E102C0E9
:1000800005900D92A23BB107D9F727E0A2EBB2E0B1
:1000900001C01D92AE3FB207E1F70E94B0040C947C
:1000A000CD080C9400001092C50087E08093C40036
:1000B0001092C000E2ECF0E080818660808388E9E5
:1000C0008093C1001092B5031092B4031092B30252
:1000D0001092B20208959091B5038091B4038927DC
:1000E00008950E946B008823E1F39091B403E92FF7
:1000F000F0E0EA54FC4F80819F5F9093B4039091AD
:10010000C10090689093C10008951F920F920FB69E
:100110000F9211248F939F93EF93FF93E091B50378
:1001200081E08E0F9091B403891306C08091C100C5
:100130008F778093C10008C09091C600F0E0EA5428
:10014000FC4F90838093B503FF91EF919F918F9126
:100150000F900FBE0F901F9018951F920F920FB621
:100160000F9211248F93EF93FF93E091B20280914D
:10017000B3028E1306C08091C1008F7D8093C100B1
:100180000BC0F0E0EC54FD4F80818093C60080915D
:10019000B2028F5F8093B202FF91EF918F910F9027
:1001A0000FBE0F901F9018958091B3029091B202EC
:1001B0008F5F89270895E091B30291E09E0FF0E0F0
:1001C000EC54FD4F80838091B2029817E1F3909335
:1001D000B3028091C10080628093C100089580E0E5
:1001E00091E0E4EBF2E0DF019C011D9221503040F0
:1001F000E1F71092B30208950F931F93CF93DF930B
:1002000000D0CDB7DEB789839A830E94EF00898141
:10021000082F9A81192FF80181918F01882319F0F5
:100220000E94DB00F8CF0F900F90DF91CF911F91CC
:100230000F910895E6E6FEE03197F1F7000001978F
:10024000C9F708950E94530078948CE291E00C94D1
:100250001A0180E092E0E6EBF3E0DF019C011D92E1
:1002600021503040E1F71092B503089564E171E048
:100270000E94E30521E030E0892B11F420E030E01A
:10028000C90108951092B60564E171E00E94E3058A
:10029000FC0134969FE3A6EBB5E001900D929A9590
:1002A000E1F71092F50586EB95E00895EF92FF9245
:1002B0000F931F93CF93DF93CDB7DEB7CB55D10903
:1002C0000FB6F894DEBF0FBECDBF9F938F9389E129
:1002D00091E09F938F938E010F5B1F4F1F930F939E
:1002E0006B966FAF6B976C967FAF6C970E94FD0516
:1002F0006C967FAD6C977F936B966FAD6B976F939A
:1003000086E291E09F938F93CE0101967C019F93AB
:100310008F930E94FD058AE291E00E94FC009FEF0E
:100320002FEF8CE2915020408040E1F700C00000A8
:1003300086E391E00E94FC009FEF2FEF8CE291504A
:1003400020408040E1F700C00000C8010E94FC008E
:100350009FEF2FEF8CE2915020408040E1F700C0EA
:100360000000C7010E94FC0086E192E00E94FC00B0
:100370009FEF2FEF8CE2915020408040E1F700C0CA
:1003800000000FB6F894DEBF0FBECDBFC55ADF4FD9
:100390000FB6F894DEBF0FBECDBFDF91CF911F9196
:1003A0000F91FF90EF90089585E080938100EFE634
:1003B000F0E080818160808310928500109284003B
:1003C000089585E491E00E94FC0088EE93E00E948D
:1003D0001A018AE291E00E94FC0088EE93E00C94FE
:1003E0001A010E94D4012FEF83E294EF2150804044
:1003F0009040E1F700C000000E9422010C94E1014E
:100400008091020190910301A0910401B091050136
:10041000181619061A061B067CF00E94E10188E0F6
:1004200090E0A0E0B0E08093020190930301A093DC
:100430000401B093050111C00497A105B1056CF446
:100440002FEF83ED90E3215080409040E1F700C012
:1004500000008CE491E00E94FC00809102019091E8
:100460000301A0910401B09105010197A109B1090F
:100470008093020190930301A0930401B0930501BE
:1004800008958091060190910701A0910801B09113
:100490000901181619061A061B0684F081E591E079
:1004A0000E944B0380EA90E0A0E0B0E08093060158
:1004B00090930701A0930801B09309018091060170
:1004C00090910701A0910801B09109010197A1093C
:1004D000B1098093060190930701A0930801B0939E
:1004E0000901089580910001909101010E9442014B
:1004F0006FEA71E00E94E305892BC9F080916F00DB
:100500008E7F80936F0064EB71E089EB91E00E9435
:1005100056012FEF8BE792E9215080409040E1F7A0
:1005200000C0000080916F00816080936F0008958B
:10053000E0910001F0910101118210821092F70503
:100540001092F6050895CF93DF938091F80790916C
:10055000F907019779F40E9400021092F9071092AE
:10056000F8072FEF83EC99E0215080409040E1F7AD
:1005700000C000000E946B00882309F45EC0C09197
:100580000001D09101018091F6059091F705C80F07
:10059000D91F0E94710088838091F6059091F7051C
:1005A00001969093F7058093F6050E946B008111E8
:1005B000E6CF8091F6059091F70518161906ECF52F
:1005C00080910001909101010E943601892B19F060
:1005D0000E9472022CC0C0910001D091010166EC12
:1005E00071E0CE010E94E305892B29F08BEC91E0AC
:1005F0000E94FC001CC061ED71E0CE010E94E30589
:10060000892BA9F468ED71E0CE010E94E305892BE6
:1006100081F00E94360388E090E0A0E0B0E0809393
:10062000020190930301A0930401B09305010E947D
:100630002901DF91CF910C949802DF91CF91089519
:100640001F920F920FB60F9211248F939F9381E008
:1006500090E09093F9078093F8079F918F910F9006
:100660000FBE0F901F901895259A08952D9A2FEF81
:1006700081EE94E0215080409040E1F700C00000FE
:100680002D982FEF81EE94E0215080409040E1F7CB
:1006900000C000000895CF92DF92EF92FF920F9377
:1006A0001F93CF93DF93CDB7DEB7C051D2400FB6C3
:1006B000F894DEBF0FBECDBF7C010FE610E0F8015D
:1006C00080818E7F80830E9439048BED91E00E94AF
:1006D000FC00FFEF2FEF39E5F15020403040E1F70B
:1006E00000C0000086EE91E00E94FC008FEF9FEFBB
:1006F000E0EE81509040E040E1F700C0000083EF61
:1007000091E00E94FC00FFEF2FEF30EEF15020400F
:100710003040E1F700C0000089E192E00E94FC0057
:100720008FEF9FEFE1ECF1E081509040E040F0402E
:10073000D9F700C0000088E292E00E94FC002FEF91
:100740003FEF8CE2215030408040E1F700C00000D4
:1007500083E392E00E94FC009FEFEFEFFBE221E0D9
:100760009150E040F0402040D9F700C00000F70170
:1007700001900020E9F73197EE19FF09FF93EF93FD
:1007800089E592E09F938F936E013FEFC31A3DEF8F
:10079000D30ADF92CF920E94FD05C6010E94FC00A1
:1007A0008FEF9FEFE0EE81509040E040E1F700C016
:1007B0000000B701CE0101960E94DC05CE01019632
:1007C0000E94FC00FFEF2FEF36E8F1502040304050
:1007D000E1F700C0000086E192E00E94FC008FEF8C
:1007E0009FEFE6E881509040E040E1F700C0000054
:1007F00089E692E00E94FC00FFEF2FEF39E5F1500F
:1008000020403040E1F700C000000E943104F801B0
:100810008081816080830F900F900F900F900F90D8
:100820000F90C05FDD4F0FB6F894DEBF0FBECDBF97
:10083000DF91CF911F910F91FF90EF90DF90CF90BC
:10084000089587E792E00E94FC0084EF91E00C9409
:100850001A0182E892E00E94FC0084EF91E00C947F
:100860001A018DE892E00E94FC0084EF91E00C9464
:100870001A018AE992E00E94FC0084EF91E00C9456
:100880001A01EF92FF920F931F93CF93DF93CDB78F
:10089000DEB7EDB6FEB640910A0150910B016091B2
:1008A0000C0170910D011416150616061706BCF101
:1008B000DC010D900020E9F79D01281B390B2C5F0E
:1008C0003F4F4DB75EB7421B530B0FB6F8945EBF58
:1008D0000FBE4DBF0DB71EB70F5F1F4F9F938F9376
:1008E00087EA92E09F938F931F930F930E94FD05D9
:1008F000C8010E944B038EE190E0A0E0B0E080933D
:100900000A0190930B01A0930C01B0930D01C80153
:100910000E9453050FB6F894FEBE0FBEEDBE809147
:100920000A0190910B01A0910C01B0910D0101976A
:10093000A109B10980930A0190930B01A0930C01C6
:10094000B0930D010E9436030FB6F894FEBE0FBEA1
:10095000EDBEDF91CF911F910F91FF90EF90089521
:100960000E9434030E94F1010E9421040E94390474
:100970000E94A302FDCF0F931F93CF93DF9382308A
:10098000910510F482E090E0E091FC07F091FD0702
:1009900020E030E0A0E0B0E0309719F140815181D3
:1009A0000281138148175907C8F08417950769F425
:1009B000109731F012960C93129713961C9327C040
:1009C0000093FC071093FD0722C02115310519F093
:1009D0004217530718F49A01BD01EF01DF01F80136
:1009E000DBCF21153105F9F0281B390B24303105F7
:1009F00080F48A819B816115710521F0FB0193834D
:100A0000828304C09093FD078093FC07FE01329619
:100A100044C0FE01E20FF31F8193919322503109EC
:100A2000398328833AC02091FA073091FB07232BA2
:100A300041F420911001309111013093FB07209374
:100A4000FA0720910E0130910F012115310541F473
:100A50002DB73EB74091120150911301241B350B65
:100A6000E091FA07F091FB07E217F307A0F42E1BC1
:100A70003F0B2817390778F0AC014E5F5F4F241702
:100A8000350748F04E0F5F1F5093FB074093FA075E
:100A90008193919302C0E0E0F0E0CF01DF91CF912C
:100AA0001F910F910895CF93DF93009709F481C0B0
:100AB000FC01329713821282A091FC07B091FD07CE
:100AC000109781F420813181820F931F2091FA07C2
:100AD0003091FB072817390751F5F093FB07E09396
:100AE000FA0767C0ED0120E030E0CE17DF0740F4E1
:100AF0004A815B819E0141155105F1F0EA01F5CF74
:100B0000D383C28340815181840F951FC817D907B1
:100B100059F488819981840F951F0296918380836F
:100B20008A819B81938382832115310529F4F09377
:100B3000FD07E093FC073DC0E901FB83EA8349918F
:100B40005991C40FD51FEC17FD0761F48081918185
:100B5000840F951F0296E90199838883828193818E
:100B60009B838A83E0E0F0E012968D919C9113972D
:100B7000009719F0FD01DC01F7CF8D919C91119741
:100B80009D012E5F3F4F820F931F2091FA073091F6
:100B9000FB072817390769F4309729F41092FD07ED
:100BA0001092FC0702C013821282B093FB07A0933D
:100BB000FA07DF91CF910895FB01DC0101900D92BE
:100BC0000020E1F70895FB0151915523A9F0BF01E1
:100BD000DC014D9145174111E1F759F4CD01019028
:100BE000002049F04D9140154111C9F3FB0141111D
:100BF000EFCF81E090E001970895AEE0B0E0E3E050
:100C0000F6E00C94A4080D891E8986E08C831A8373
:100C100009838FEF9FE79E838D83AE01475E5F4F11
:100C20006F89788DCE0101960E941F06EF81F885AD
:100C3000E00FF11F10822E96E4E00C94C008ACE0A7
:100C4000B0E0E5E2F6E00C9496086C017B018A01C5
:100C5000FC0117821682838181FFBEC1CE010196FD
:100C60004C01F6019381F70193FD859193FF8191EA
:100C70007F01882309F4ACC1853239F493FD859155
:100C800093FF81917F01853229F4B60190E00E94A3
:100C90000808E7CF512C312C20E02032A0F48B3211
:100CA00069F030F4803259F0833269F420612CC04D
:100CB0008D3239F0803339F4216026C022602460FF
:100CC00023C0286021C027FD27C030ED380F3A30FF
:100CD00078F426FF06C0FAE05F9E300D1124532EF3
:100CE00013C08AE0389E300D1124332E20620CC0D0
:100CF0008E3221F426FD6CC1206406C08C3611F4BE
:100D0000206802C0883641F4F70193FD859193FF76
:100D100081917F018111C1CF982F9F7D9554933090
:100D200028F40C5F1F4F9FE399830DC0833631F089
:100D3000833771F0833509F05BC022C0F8018081F0
:100D400089830E5F1F4F44244394512C540115C0D6
:100D50003801F2E06F0E711CF801A080B18026FF0F
:100D600003C0652D70E002C06FEF7FEFC5012C87D7
:100D70000E94FD072C0183012C852F77222E17C09E
:100D80003801F2E06F0E711CF801A080B18026FFDF
:100D900003C0652D70E002C06FEF7FEFC5012C87A7
:100DA0000E94F2072C012C852068222E830123FC4F
:100DB0001BC0832D90E048165906B0F4B60180E2BE
:100DC00090E00E9408083A94F4CFF50127FC859141
:100DD00027FE81915F01B60190E00E940808311062
:100DE0003A94F1E04F1A51084114510471F7E6C0EA
:100DF000843611F0893639F5F80127FF07C0608184
:100E00007181828193810C5F1F4F08C06081718165
:100E1000072E000C880B990B0E5F1F4F2F76722E3A
:100E200097FF09C090958095709561957F4F8F4F82
:100E30009F4F2068722E2AE030E0A4010E943808FB
:100E4000A82EA81844C0853729F42F7EB22E2AE098
:100E500030E025C0F22FF97FBF2E8F36C1F018F495
:100E6000883579F0B5C0803719F0883721F0B0C0E7
:100E70002F2F2061B22EB4FE0DC08B2D8460B82EB2
:100E800009C024FF0AC09F2F9660B92E06C028E033
:100E900030E005C020E130E002C020E132E0F8019E
:100EA000B7FE07C060817181828193810C5F1F4F03
:100EB00006C06081718180E090E00E5F1F4FA40149
:100EC0000E943808A82EA818FB2DFF777F2E76FEEB
:100ED0000BC0372D3E7FA51450F474FE0AC072FC7F
:100EE00008C0372D3E7E05C0BA2C372D03C0BA2C62
:100EF00001C0B52C34FF0DC0FE01EA0DF11D80814B
:100F0000803311F4397E09C032FF06C0B394B39424
:100F100004C0832F867809F0B39433FD13C030FFEB
:100F200006C0B31498F43A0C532C5B1810C0B314D9
:100F300070F4B60180E290E03C870E940808B39408
:100F40003C85F5CFB31418F43B1802C05A2C312C51
:100F500034FF12C0B60180E390E03C870E9408088D
:100F60003C8532FF17C031FD03C088E790E002C026
:100F700088E590E0B6010CC0832F867859F031FFE8
:100F800002C08BE201C080E237FD8DE2B60190E045
:100F90000E940808A51438F4B60180E390E00E948E
:100FA00008085A94F7CFAA94F401EA0DF11D808144
:100FB000B60190E00E940808A110F5CF332009F493
:100FC00050CEB60180E290E00E9408083A94F6CF35
:100FD000F6018681978102C08FEF9FEF2C96E2E1A8
:100FE0000C94B208FC010590615070400110D8F7D4
:100FF000809590958E0F9F1F0895FC016150704061
:1010000001900110D8F7809590958E0F9F1F08953D
:101010000F931F93CF93DF93182F092FEB018B8131
:1010200081FD03C08FEF9FEF1EC082FF0FC02E8196
:101030003F818C819D812817390774F4E881F981FB
:10104000CF01019699838883108306C0E885F985CE
:10105000812F0995892B31F78E819F8101969F837E
:101060008E83812F902FDF91CF911F910F91089543
:10107000FA01AA27283051F1203181F1E8946F93C9
:101080006E7F6E5F7F4F8F4F9F4FAF4FB1E03ED06F
:10109000B4E03CD0670F781F891F9A1FA11D680F0D
:1010A000791F8A1F911DA11D6A0F711D811D911D40
:1010B000A11D20D009F468943F912AE0269F1124B5
:1010C0003019305D3193DEF6CF010895462F477019
:1010D000405D4193B3E00FD0C9F7F6CF462F4F7074
:1010E000405D4A3318F0495D31FD4052419302D0D2
:1010F000A9F7EACFB4E0A695979587957795679578
:10110000BA95C9F700976105710508959B01AC0177
:101110000A2E06945795479537952795BA95C9F79E
:10112000620F731F841F951FA01D08952F923F9279
:101130004F925F926F927F928F929F92AF92BF92E7
:10114000CF92DF92EF92FF920F931F93CF93DF9393
:10115000CDB7DEB7CA1BDB0B0FB6F894DEBF0FBEF0
:10116000CDBF09942A88398848885F846E847D843D
:101170008C849B84AA84B984C884DF80EE80FD803F
:101180000C811B81AA81B981CE0FD11D0FB6F894B5
:0E119000DEBF0FBECDBFED010895F894FFCF76
:10119E00F80508000000A00000001E00000000007E
:1011AE00FE072000534D533A0041542B434D4753F5
:1011BE003D25730D0A0025731A0041542B434D47EC
:1011CE00463D310D0A0041542B435343533D554385
:1011DE0053320D0A00415445300D0A0041540D0A98
:1011EE00005543364B46513E415052532C544350BA
:1011FE0049502A2C7141432C5432475245454345A0
:10120E003A21353631392E30394E2F303434303391
:10121E002E323445796F702E416E746F6E202855C4
:10122E0043364B46512F3329203134352E3530304D
:10123E004D687A2F3433332E3530304D687A007046
:10124E00696E6700706F6E67002B3739383735332C
:10125E0035393936390052494E47004154410D0A4D
:10126E000047505352443A004F4B0041542B4352C7
:10127E0045473F0D0A0041542B43474154543D31DD
:10128E000D0A0041542B434744434F4E543D312CDD
:10129E00224950222C22696E7465726E65742E6D11
:1012AE0074732E7275220D0A0041542B434741432D
:1012BE00543D312C310D0A0041542B4349465352B3
:1012CE000D0A0041542B43495053544152543D2270
:1012DE00554450222C22616E746F776B612E72759D
:1012EE00222C373737380D0A0041542B43495053BF
:1012FE00454E443D25640D0A0041542B434950434D
:10130E004C4F53450D0A0041542B4750533D310D60
:10131E000A0041542B4750533D300D0A0041542BC7
:10132E0047505352443D310D0A0041542B47505300
:10133E0052443D300D0A004750533A3A25730D0A78
:02134E0000009D
:00000001FF
