:100000000C9434000C9451000C9451000C94510049
:100010000C9451000C9451000C9451000C9451001C
:100020000C9451000C9451000C9451000C9451000C
:100030000C9451000C9451000C9451000C945100FC
:100040000C9451000C9451000C9485000C94AD005C
:100050000C9451000C9451000C9451000C945100DC
:100060000C9451000C94510011241FBECFEFD8E026
:10007000DEBFCDBF12E0A0E0B1E0E0E9FCE002C0ED
:1000800005900D92A636B107D9F724E0A6E6B2E0B6
:1000900001C01D92AC3EB207E1F70E9453030C94DD
:1000A00046060C9400001092C50087E68093C400B9
:1000B0001092C000E2ECF0E080818660808388E9E5
:1000C0008093C1001092A9021092A80210926702B8
:1000D0001092660208959091A9028091A802892742
:1000E00008950E946B008823E1F39091A802E92F04
:1000F000F0E0E655FD4F80819F5F9093A8029091BC
:10010000C10090689093C10008951F920F920FB69E
:100110000F9211248F939F93EF93FF93E091A90285
:1001200081E08E0F9091A802891306C08091C100D2
:100130008F778093C10008C09091C600F0E0E6552B
:10014000FD4F90838093A902FF91EF919F918F9132
:100150000F900FBE0F901F9018951F920F920FB621
:100160000F9211248F93EF93FF93E0916602809199
:1001700067028E1306C08091C1008F7D8093C100FD
:100180000EC0F0E0E859FD4F80818093C600809159
:1001900066028F5F803408F080E080936602FF91F2
:1001A000EF918F910F900FBE0F901F901895809137
:1001B00067028F5F803408F080E0909166028927A3
:1001C0000895E091670291E09E0F903408F090E06E
:1001D000F0E0E859FD4F8083809166029817E1F3C3
:1001E000909367028091C10080628093C10008955E
:1001F000CF93DF93EC018991882319F00E94E100ED
:10020000FACFDF91CF910895EFE9FFE03197F1F751
:1002100000C000000197C1F708950E945300789430
:100220008CE291E00C94040180E091E0EAEAF2E0D3
:10023000DF019C011D9221503040E1F71092A9028C
:1002400008956AE071E00E945C0321E030E0892BB0
:1002500011F420E030E0C90108951092AA036AE089
:1002600071E00E945C03FC0134969FE3AAEAB3E0CC
:1002700001900D929A95E1F71092E9038AEA93E0D2
:100280000895EF92FF920F931F93CF93DF93CDB713
:10029000DEB7CB55D1090FB6F894DEBF0FBECDBF88
:1002A0009F938F938FE091E09F938F938E010F5BCD
:1002B0001F4F1F930F936B966FAF6B976C967FAF2B
:1002C0006C970E9476036C967FAD6C977F936B96CC
:1002D0006FAD6B976F938CE191E09F938F93CE01FD
:1002E00001967C019F938F930E94760380E291E0B8
:1002F0000E94F8009FEF23ED80E391502040804062
:10030000E1F700C000008CE291E00E94F8009FEF4E
:1003100023ED80E3915020408040E1F700C00000D1
:10032000C8010E94F8009FEF23ED80E39150204028
:100330008040E1F700C00000C7010E94F8000FB63E
:10034000F894DEBF0FBECDBFC55ADF4F0FB6F8948D
:10035000DEBF0FBECDBFDF91CF911F910F91FF90F8
:10036000EF9008950E940D018BE391E00E94F80048
:1003700084EF91E00E94040180E491E00E94F80083
:1003800088EE93E00E94040180E291E00E94F80070
:1003900088EE93E00E9404010C94D1028091060142
:1003A00090910701A0910801B09109011816190652
:1003B0001A061B0644F18BE391E00E94F8002FEF30
:1003C00085EA9EE0215080409040E1F700C00000A7
:1003D0008BE391E00E94F8002FEF85EA9EE0215028
:1003E00080409040E1F700C000000E94BC0280E421
:1003F0009BE4ACE4B0E08093060190930701A093E6
:100400000801B09309018091060190910701A09124
:100410000801B09109010197A109B1098093060172
:1004200090930701A0930801B0930901089580916A
:10043000020190910301A0910401B09105011816E9
:1004400019061A061B0684F00E94F9020E94BC02DB
:1004500080E890EFAAEFB2E080930201909303014D
:10046000A0930401B09305018091020190910301D2
:10047000A0910401B09105010197A109B1098093F0
:10048000020190930301A0930401B0930501089524
:100490006BE471E080910001909101010E945C0386
:1004A000892B21F080E591E00C94F800089580916B
:1004B0000001909101010E942D0166E571E00E940A
:1004C0005C03892B31F06BE571E080E691E00C94E0
:1004D00041010895E0910001F09101011182108223
:1004E0001092EB031092EA030895CF93DF930E94DA
:1004F000CE010E9417020E946B008823C1F18CE29A
:1005000091E00E9404010E946A02C0910001D09112
:1005100001018091EA039091EB03C80FD91F0E945B
:10052000710088838091EA039091EB030196909388
:10053000EB038093EA030E946B008111E6CF0E94D7
:1005400014018091EA039091EB03029784F080916B
:100550000001909101010E942101892B21F0DF917E
:10056000CF910C945702DF91CF910C944802DF9108
:10057000CF910895259A08952D9A2FEF81EE94E05A
:10058000215080409040E1F700C000002D982FEFEF
:1005900081EE94E0215080409040E1F700C00000DF
:1005A00008958DE691E00E94F8002FEF87EA91E62A
:1005B000215080409040E1F700C0000088E791E0C2
:1005C0000E94F8002FEF83E294EF2150804090408A
:1005D000E1F700C0000085E891E00E94F8002FEFED
:1005E00083E294EF215080409040E1F700C000008A
:1005F00008958BEA91E00E94F8002FEF33E284EF38
:10060000215030408040E1F700C000008AEB91E0CB
:100610000E94F8009FEF23ED30E3915020403040DE
:10062000E1F700C0000085EC91E00E94F8008AEA42
:1006300096EE26E931E08150904020403040D9F7D5
:1006400000008BEE91E00E94F80088EA91E00E94A1
:10065000F8008FEF93E224EF815090402040E1F7C3
:1006600000C0000089EF91E00E94F80088EA91E064
:100670000E94F8003FEF83E294EF20E03150804089
:1006800090402040D9F700C0000087E592E00E942A
:10069000F8003FEF87EA91E6315080409040E1F763
:1006A00000C0000008950E94BA020E94B2010E9498
:1006B000F9020E947502FDCFFB0151915523A9F06B
:1006C000BF01DC014D9145174111E1F759F4CD010E
:1006D0000190002049F04D9140154111C9F3FB01F3
:1006E0004111EFCF81E090E001970895AEE0B0E0D6
:1006F000ECE7F3E00C941D060D891E8986E08C83DF
:100700001A8309838FEF9FE79E838D83AE01475E37
:100710005F4F6F89788DCE0101960E949803EF811B
:10072000F885E00FF11F10822E96E4E00C94390654
:10073000ACE0B0E0EEE9F3E00C940F066C017B0155
:100740008A01FC0117821682838181FFBEC1CE011E
:1007500001964C01F6019381F70193FD859193FF7A
:1007600081917F01882309F4ACC1853239F493FD6E
:10077000859193FF81917F01853229F4B60190E044
:100780000E948105E7CF512C312C20E02032A0F4CB
:100790008B3269F030F4803259F0833269F4206191
:1007A0002CC08D3239F0803339F4216026C02260AC
:1007B000246023C0286021C027FD27C030ED380FFA
:1007C0003A3078F426FF06C0FAE05F9E300D11241F
:1007D000532E13C08AE0389E300D1124332E206230
:1007E0000CC08E3221F426FD6CC1206406C08C360C
:1007F00011F4206802C0883641F4F70193FD859119
:1008000093FF81917F018111C1CF982F9F7D9554D6
:10081000933028F40C5F1F4F9FE399830DC08336FC
:1008200031F0833771F0833509F05BC022C0F801E5
:10083000808189830E5F1F4F44244394512C5401BF
:1008400015C03801F2E06F0E711CF801A080B18074
:1008500026FF03C0652D70E002C06FEF7FEFC5017A
:100860002C870E9476052C0183012C852F77222E60
:1008700017C03801F2E06F0E711CF801A080B18042
:1008800026FF03C0652D70E002C06FEF7FEFC5014A
:100890002C870E946B052C012C852068222E830159
:1008A00023FC1BC0832D90E048165906B0F4B60116
:1008B00080E290E00E9481053A94F4CFF50127FC94
:1008C000859127FE81915F01B60190E00E9481052C
:1008D00031103A94F1E04F1A51084114510471F764
:1008E000E6C0843611F0893639F5F80127FF07C0D4
:1008F00060817181828193810C5F1F4F08C060818C
:100900007181072E000C880B990B0E5F1F4F2F76FD
:10091000722E97FF09C090958095709561957F4FD5
:100920008F4F9F4F2068722E2AE030E0A4010E9472
:10093000B105A82EA81844C0853729F42F7EB22E01
:100940002AE030E025C0F22FF97FBF2E8F36C1F0AC
:1009500018F4883579F0B5C0803719F0883721F060
:10096000B0C02F2F2061B22EB4FE0DC08B2D84603D
:10097000B82E09C024FF0AC09F2F9660B92E06C06A
:1009800028E030E005C020E130E002C020E132E0A4
:10099000F801B7FE07C060817181828193810C5F8D
:1009A0001F4F06C06081718180E090E00E5F1F4F95
:1009B000A4010E94B105A82EA818FB2DFF777F2E59
:1009C00076FE0BC0372D3E7FA51450F474FE0AC08E
:1009D00072FC08C0372D3E7E05C0BA2C372D03C0EF
:1009E000BA2C01C0B52C34FF0DC0FE01EA0DF11D7B
:1009F0008081803311F4397E09C032FF06C0B39480
:100A0000B39404C0832F867809F0B39433FD13C0E8
:100A100030FF06C0B31498F43A0C532C5B1810C086
:100A2000B31470F4B60180E290E03C870E94810527
:100A3000B3943C85F5CFB31418F43B1802C05A2C7C
:100A4000312C34FF12C0B60180E390E03C870E9455
:100A500081053C8532FF17C031FD03C088E790E077
:100A600002C088E590E0B6010CC0832F867859F06B
:100A700031FF02C08BE201C080E237FD8DE2B6019A
:100A800090E00E948105A51438F4B60180E390E05F
:100A90000E9481055A94F7CFAA94F401EA0DF11D42
:100AA0008081B60190E00E948105A110F5CF33202E
:100AB00009F450CEB60180E290E00E9481053A949C
:100AC000F6CFF6018681978102C08FEF9FEF2C96BB
:100AD000E2E10C942B06FC0105906150704001107E
:100AE000D8F7809590958E0F9F1F0895FC01615057
:100AF000704001900110D8F7809590958E0F9F1F40
:100B000008950F931F93CF93DF93182F092FEB01B5
:100B10008B8181FD03C08FEF9FEF1EC082FF0FC04E
:100B20002E813F818C819D812817390774F4E881DB
:100B3000F981CF01019699838883108306C0E885E7
:100B4000F985812F0995892B31F78E819F81019637
:100B50009F838E83812F902FDF91CF911F910F91D3
:100B60000895FA01AA27283051F1203181F1E89443
:100B70006F936E7F6E5F7F4F8F4F9F4FAF4FB1E090
:100B80003ED0B4E03CD0670F781F891F9A1FA11D8B
:100B9000680F791F8A1F911DA11D6A0F711D811D8C
:100BA000911DA11D20D009F468943F912AE0269F51
:100BB00011243019305D3193DEF6CF010895462FB0
:100BC0004770405D4193B3E00FD0C9F7F6CF462F91
:100BD0004F70405D4A3318F0495D31FD40524193FA
:100BE00002D0A9F7EACFB4E0A695979587957795B7
:100BF0006795BA95C9F700976105710508959B013E
:100C0000AC010A2E06945795479537952795BA95C6
:100C1000C9F7620F731F841F951FA01D08952F929F
:100C20003F924F925F926F927F928F929F92AF927C
:100C3000BF92CF92DF92EF92FF920F931F93CF93C9
:100C4000DF93CDB7DEB7CA1BDB0B0FB6F894DEBF60
:100C50000FBECDBF09942A88398848885F846E8486
:100C60007D848C849B84AA84B984C884DF80EE80D0
:100C7000FD800C811B81AA81B981CE0FD11D0FB6D9
:100C8000F894DEBF0FBECDBFED010895F894FFCFFD
:100C9000EC0380F0FA02404B4C00534D533A0041B4
:100CA000542B434D47533D25730D0A0025731A00FD
:100CB00041542B434D47463D310D0A0041542B43CF
:100CC0005343533D554353320D0A0041540D0A001E
:100CD00041542B4750533D310D0A0052494E4700B5
:100CE0004154410D0A0070696E6700706F6E6700B5
:100CF0002B37393837353335393936390041542BAC
:100D0000435245473F0D0A0041542B434741545439
:100D10003D310D0A0041542B434744434F4E543D4F
:100D2000312C224950222C22696E7465726E6574D2
:100D30002E6D74732E7275220D0A0041542B434799
:100D40004143543D312C310D0A0041542B43494657
:100D500053520D0A0041542B4349505354415254AD
:100D60003D22554450222C22616E746F776B612EA8
:100D70007275222C373737380D0A0041542B4349FE
:100D80005053454E443D3933005543364B46513E52
:100D9000415052532C54435049502A2C7141432CFA
:100DA00054324752454543453A21353631392E3084
:100DB000394E2F30343430332E323445796F702E23
:100DC000416E746F6E20285543364B46512F3329A0
:100DD000203134352E3530304D687A2F3433332E70
:100DE0003530304D687A0041542B434950434C4FC5
:060DF00053450D0A00004E
:00000001FF
