:100000000C9434000C9451000C9451000C94510049
:100010000C9451000C9451000C9451000C9451001C
:100020000C9451000C9451000C9451000C9451000C
:100030000C9451000C949F020C9451000C945100AC
:100040000C9451000C9451000C9485000C94AD005C
:100050000C9451000C9451000C9451000C945100DC
:100060000C9451000C94510011241FBECFEFD8E026
:10007000DEBFCDBF12E0A0E0B1E0EAEDFCE002C0DF
:1000800005900D92A236B107D9F724E0A2E6B2E0BE
:1000900001C01D92A83EB207E1F70E9478030C94BC
:1000A0006B060C9400001092C50087E68093C40094
:1000B0001092C000E2ECF0E080818660808388E9E5
:1000C0008093C1001092A5021092A40210926302C4
:1000D0001092620208959091A5028091A40289274E
:1000E00008950E946B008823E1F39091A402E92F08
:1000F000F0E0EA55FD4F80819F5F9093A4029091BC
:10010000C10090689093C10008951F920F920FB69E
:100110000F9211248F939F93EF93FF93E091A50289
:1001200081E08E0F9091A402891306C08091C100D6
:100130008F778093C10008C09091C600F0E0EA5527
:10014000FD4F90838093A502FF91EF919F918F9136
:100150000F900FBE0F901F9018951F920F920FB621
:100160000F9211248F93EF93FF93E091620280919D
:1001700063028E1306C08091C1008F7D8093C10001
:100180000EC0F0E0EC59FD4F80818093C600809155
:1001900062028F5F803408F080E080936202FF91FA
:1001A000EF918F910F900FBE0F901F901895809137
:1001B00063028F5F803408F080E0909162028927AB
:1001C0000895E091630291E09E0F903408F090E072
:1001D000F0E0EC59FD4F8083809162029817E1F3C3
:1001E000909363028091C10080628093C100089562
:1001F000CF93DF93EC018991882319F00E94E100ED
:10020000FACFDF91CF910895EFE9FFE03197F1F751
:1002100000C000000197C1F708950E945300789430
:100220008CE291E00C94040180E091E0E6EAF2E0D7
:10023000DF019C011D9221503040E1F71092A50290
:10024000089566E071E00E94810321E030E0892B8F
:1002500011F420E030E0C90108951092A60366E091
:1002600071E00E948103FC0134969FE3A6EAB3E0AB
:1002700001900D929A95E1F71092E50386EA93E0DA
:100280000895EF92FF920F931F93CF93DF93CDB713
:10029000DEB7CB55D1090FB6F894DEBF0FBECDBF88
:1002A0009F938F938BE091E09F938F938E010F5BD1
:1002B0001F4F1F930F936B966FAF6B976C967FAF2B
:1002C0006C970E949B036C967FAD6C977F936B96A7
:1002D0006FAD6B976F9388E191E09F938F93CE0101
:1002E00001967C019F938F930E949B038CE191E088
:1002F0000E94F8009FEF23ED80E391502040804062
:10030000E1F700C0000088E291E00E94F8009FEF52
:1003100023ED80E3915020408040E1F700C00000D1
:10032000C8010E94F8009FEF23ED80E39150204028
:100330008040E1F700C00000C7010E94F80084EA95
:1003400091E00E94F8009FEF23ED80E39150204060
:100350008040E1F700C000000FB6F894DEBF0FBE8A
:10036000CDBFC55ADF4F0FB6F894DEBF0FBECDBF6D
:10037000DF91CF911F910F91FF90EF90089585E04D
:1003800080938100EFE6F0E08081816080831092AD
:1003900085001092840008950E94BF010E940D0103
:1003A00087E391E00E94F80084EF91E00E9404014D
:1003B0008CE391E00E94F80088EE93E00E94040133
:1003C0008CE191E00E94F80088EE93E00E94040125
:1003D0000C94DC0287E391E00E94F8002FEF89E69D
:1003E00098E1215080409040E1F700C0000008955E
:1003F0008091020190910301A0910401B091050147
:10040000181619061A061B0674F00E94100388E7D6
:1004100090E0A0E0B0E08093020190930301A093EC
:100420000401B09305018091020190910301A09114
:100430000401B09105010197A109B109809302015E
:1004400090930301A0930401B0930501089567E41C
:1004500071E080910001909101010E948103892B3C
:1004600021F08CE491E00C94F80008958091000153
:10047000909101010E942D0162E571E00E948103CB
:10048000892B81F080916F008E7F80936F0067E5EC
:1004900071E08CE591E00E94410180916F008160E4
:1004A00080936F000895E0910001F09101011182A5
:1004B00010821092E7031092E6030895CF93DF9322
:1004C0000E946B008823C1F18CE291E00E9404013C
:1004D0000E945302C0910001D09101018091E60376
:1004E0009091E703C80FD91F0E9471008883809103
:1004F000E6039091E70301969093E7038093E60368
:100500000E946B008111E6CF0E9414018091E603E6
:100510009091E703029784F080910001909101018E
:100520000E942101892B21F0DF91CF910C9436029A
:10053000DF91CF910C942702DF91CF9108951F9204
:100540000F920FB60F9211242F933F934F935F9307
:100550006F937F938F939F93AF93BF93EF93FF938B
:100560000E94EA010E94F801FF91EF91BF91AF91C3
:100570009F918F917F916F915F914F913F912F91BB
:100580000F900FBE0F901F901895259A08952D9AE1
:100590002FEF81EE94E0215080409040E1F700C0C1
:1005A00000002D982FEF81EE94E021508040904084
:1005B000E1F700C000000895CF93DF93CFE6D0E0CD
:1005C00088818E7F888389E691E00E94F8002FEF72
:1005D00087EA91E6215080409040E1F700C000009A
:1005E00084E791E00E94F8002FEF83E294EF21501E
:1005F00080409040E1F700C0000081E891E00E9457
:10060000F8002FEF83E294EF215080409040E1F713
:1006100000C00000888181608883DF91CF910895B8
:10062000CF93DF93CFE6D0E088818E7F888387EAFF
:1006300091E00E94F8002FEF33E284EF2150304028
:100640008040E1F700C0000086EB91E00E94F800D6
:100650009FEF23ED30E3915020403040E1F700C0A0
:10066000000081EC91E00E94F80084E595E825E423
:1006700031E08150904020403040D9F700C000C0A8
:10068000000087EE91E00E94F80084EA91E00E9469
:10069000F8008FEF93E224EF815090402040E1F783
:1006A00000C0000085EF91E00E94F80084EA91E02C
:1006B0000E94F8003FEF83E294EF20E03150804049
:1006C00090402040D9F700C0000083E592E00E94EE
:1006D000F8003FEF87EA91E6315080409040E1F723
:1006E00000C00000888181608883DF91CF910895E8
:1006F0000E94C5020E94CC010E9410030E945E026B
:10070000FDCFFB0151915523A9F0BF01DC014D91B3
:1007100045174111E1F759F4CD010190002049F04E
:100720004D9140154111C9F3FB014111EFCF81E01B
:1007300090E001970895AEE0B0E0E1EAF3E00C94B8
:1007400042060D891E8986E08C831A8309838FEF08
:100750009FE79E838D83AE01475E5F4F6F89788DE3
:10076000CE0101960E94BD03EF81F885E00FF11FD5
:1007700010822E96E4E00C945E06ACE0B0E0E3EC70
:10078000F3E00C9434066C017B018A01FC011782B2
:100790001682838181FFBEC1CE0101964C01F60114
:1007A0009381F70193FD859193FF81917F018823C8
:1007B00009F4ACC1853239F493FD859193FF8191A1
:1007C0007F01853229F4B60190E00E94A605E7CFAB
:1007D000512C312C20E02032A0F48B3269F030F41F
:1007E000803259F0833269F420612CC08D3239F0A7
:1007F000803339F4216026C02260246023C0286041
:1008000021C027FD27C030ED380F3A3078F426FF9D
:1008100006C0FAE05F9E300D1124532E13C08AE00B
:10082000389E300D1124332E20620CC08E3221F4FC
:1008300026FD6CC1206406C08C3611F4206802C00D
:10084000883641F4F70193FD859193FF81917F01F3
:100850008111C1CF982F9F7D9554933028F40C5F60
:100860001F4F9FE399830DC0833631F0833771F0BA
:10087000833509F05BC022C0F801808189830E5F57
:100880001F4F44244394512C540115C03801F2E009
:100890006F0E711CF801A080B18026FF03C0652D8A
:1008A00070E002C06FEF7FEFC5012C870E949B05AF
:1008B0002C0183012C852F77222E17C03801F2E0FE
:1008C0006F0E711CF801A080B18026FF03C0652D5A
:1008D00070E002C06FEF7FEFC5012C870E9490058A
:1008E0002C012C852068222E830123FC1BC0832D24
:1008F00090E048165906B0F4B60180E290E00E94FC
:10090000A6053A94F4CFF50127FC859127FE819145
:100910005F01B60190E00E94A60531103A94F1E023
:100920004F1A51084114510471F7E6C0843611F092
:10093000893639F5F80127FF07C06081718182810E
:1009400093810C5F1F4F08C060817181072E000CDE
:10095000880B990B0E5F1F4F2F76722E97FF09C0E1
:1009600090958095709561957F4F8F4F9F4F206830
:10097000722E2AE030E0A4010E94D605A82EA81805
:1009800044C0853729F42F7EB22E2AE030E025C0FE
:10099000F22FF97FBF2E8F36C1F018F4883579F029
:1009A000B5C0803719F0883721F0B0C02F2F2061F3
:1009B000B22EB4FE0DC08B2D8460B82E09C024FF6A
:1009C0000AC09F2F9660B92E06C028E030E005C00F
:1009D00020E130E002C020E132E0F801B7FE07C0BC
:1009E00060817181828193810C5F1F4F06C060819D
:1009F000718180E090E00E5F1F4FA4010E94D60538
:100A0000A82EA818FB2DFF777F2E76FE0BC0372D62
:100A10003E7FA51450F474FE0AC072FC08C0372D46
:100A20003E7E05C0BA2C372D03C0BA2C01C0B52CB0
:100A300034FF0DC0FE01EA0DF11D8081803311F4F9
:100A4000397E09C032FF06C0B394B39404C0832F2B
:100A5000867809F0B39433FD13C030FF06C0B31499
:100A600098F43A0C532C5B1810C0B31470F4B60110
:100A700080E290E03C870E94A605B3943C85F5CFC8
:100A8000B31418F43B1802C05A2C312C34FF12C096
:100A9000B60180E390E03C870E94A6053C8532FFCA
:100AA00017C031FD03C088E790E002C088E590E000
:100AB000B6010CC0832F867859F031FF02C08BE25B
:100AC00001C080E237FD8DE2B60190E00E94A605EC
:100AD000A51438F4B60180E390E00E94A6055A946C
:100AE000F7CFAA94F401EA0DF11D8081B60190E0E0
:100AF0000E94A605A110F5CF332009F450CEB6010F
:100B000080E290E00E94A6053A94F6CFF601868135
:100B1000978102C08FEF9FEF2C96E2E10C94500674
:100B2000FC010590615070400110D8F780959095B8
:100B30008E0F9F1F0895FC016150704001900110BD
:100B4000D8F7809590958E0F9F1F08950F931F9350
:100B5000CF93DF93182F092FEB018B8181FD03C009
:100B60008FEF9FEF1EC082FF0FC02E813F818C81CF
:100B70009D812817390774F4E881F981CF01019626
:100B800099838883108306C0E885F985812F0995AC
:100B9000892B31F78E819F8101969F838E83812FD0
:100BA000902FDF91CF911F910F910895FA01AA27FD
:100BB000283051F1203181F1E8946F936E7F6E5FA0
:100BC0007F4F8F4F9F4FAF4FB1E03ED0B4E03CD04E
:100BD000670F781F891F9A1FA11D680F791F8A1F31
:100BE000911DA11D6A0F711D811D911DA11D20D098
:100BF00009F468943F912AE0269F11243019305D52
:100C00003193DEF6CF010895462F4770405D419342
:100C1000B3E00FD0C9F7F6CF462F4F70405D4A338F
:100C200018F0495D31FD4052419302D0A9F7EACF57
:100C3000B4E0A6959795879577956795BA95C9F786
:100C400000976105710508959B01AC010A2E069479
:100C50005795479537952795BA95C9F7620F731F32
:100C6000841F951FA01D08952F923F924F925F926F
:100C70006F927F928F929F92AF92BF92CF92DF92AC
:100C8000EF92FF920F931F93CF93DF93CDB7DEB711
:100C9000CA1BDB0B0FB6F894DEBF0FBECDBF0994A5
:100CA0002A88398848885F846E847D848C849B84FC
:100CB000AA84B984C884DF80EE80FD800C811B810A
:100CC000AA81B981CE0FD11D0FB6F894DEBF0FBE39
:0A0CD000CDBFED010895F894FFCFA9
:100CDA00E80378000000534D533A0041542B434D2A
:100CEA0047533D25730D0A0025731A0041542B43BF
:100CFA004D47463D310D0A0041542B435343533D62
:100D0A00554353320D0A0041540D0A0041542B47F2
:100D1A0050533D310D0A0052494E47004154410D8E
:100D2A000A0070696E6700706F6E67002B3739387A
:100D3A0037353335393936390041542B4352454713
:100D4A003F0D0A0041542B43474154543D310D0A8B
:100D5A000041542B434744434F4E543D312C2249C2
:100D6A0050222C22696E7465726E65742E6D7473CE
:100D7A002E7275220D0A0041542B43474143543DBC
:100D8A00312C310D0A0041542B43494653520D0A66
:100D9A000041542B43495053544152543D22554427
:100DAA0050222C22616E746F776B612E7275222C21
:100DBA00373737380D0A0041542B43495053454EB3
:100DCA00443D3933005543364B46513E4150525308
:100DDA002C54435049502A2C7141432C54324752C7
:100DEA00454543453A21353631392E30394E2F3073
:100DFA00343430332E323445796F702E416E746F2D
:100E0A006E20285543364B46512F3329203134352D
:100E1A002E3530304D687A2F3433332E3530304DFD
:100E2A00687A0041542B434950434C4F53450D0AAD
:020E3A000000B6
:00000001FF
