:100000000C9434000C9451000C9451000C94510049
:100010000C9451000C9451000C9451000C9451001C
:100020000C9451000C9451000C9451000C9451000C
:100030000C9451000C946F030C9451000C945100DB
:100040000C9451000C9451000C9487000C94B10056
:100050000C9451000C9451000C9451000C945100DC
:100060000C9451000C94510011241FBECFEFD8E026
:10007000DEBFCDBF12E0A0E0B1E0E8E7F3E102C0EF
:1000800005900D92A439B107D9F724E0A4E9B2E0B4
:1000900001C01D92A23EB207E1F70E94A8050C9490
:1000A000BA090C9400001092C50087E08093C40048
:1000B0001092C000E2ECF0E080818660808388E9E5
:1000C0008093C100109297031092960310929502AC
:1000D0001092940208959091970380919603892736
:1000E00008950E946B008823E1F390919603E92F15
:1000F000F0E0E856FC4F80819F5F97FD90E0909381
:1001000096039091C10090689093C10008951F924A
:100110000F920FB60F9211248F939F93EF93FF933B
:10012000E091970381E08E0F87FD80E09091960328
:10013000891306C08091C1008F778093C10008C0E9
:100140009091C600F0E0E856FC4F908380939703AF
:10015000FF91EF919F918F910F900FBE0F901F9085
:1001600018951F920F920FB60F9211248F93EF9351
:10017000FF93E0919402809195028E1306C08091C6
:10018000C1008F7D8093C1000BC0F0E0EA56FD4FA7
:1001900080818093C600809194028F5F8093940247
:1001A000FF91EF918F910F900FBE0F901F901895B8
:1001B00080919502909194028F5F89270895E09134
:1001C000950291E09E0FF0E0EA56FD4F808380910A
:1001D00094029817E1F3909395028091C100806298
:1001E0008093C100089580E091E0E6E9F2E0DF014C
:1001F0009C011D9221503040E1F710929502089524
:100200000F931F93CF93DF9300D0CDB7DEB78983D1
:100210009A830E94F3008981082F9A81192FF8018F
:1002200081918F01882319F00E94DF00F8CF0F9091
:100230000F90DF91CF911F910F910895E6E6FEE0B8
:100240003197F1F700000197C9F708950E94530014
:1002500078948CE291E00C941E0180E8E8E9F3E0E8
:10026000DF011D928A95E9F710929703089564E1E2
:1002700071E00E94D00621E030E0892B11F420E0EB
:1002800030E0C90108951092180464E171E00E9401
:10029000D006FC0134969FE3A8E1B4E001900D92F2
:1002A0009A95E1F71092570488E194E00895EF924F
:1002B000FF920F931F93CF93DF93CDB7DEB7CB554C
:1002C000D1090FB6F894DEBF0FBECDBF9F938F93B9
:1002D00089E191E09F938F938E010F5B1F4F1F93D6
:1002E0000F936B966FAF6B976C967FAF6C970E9476
:1002F000EA066C967FAD6C977F936B966FAD6B97AC
:100300006F9386E291E09F938F93CE0101967C01DB
:100310009F938F930E94EA068AE291E00E94000177
:100320009FEF2FEF8CE2915020408040E1F700C01A
:10033000000086E391E00E9400019FEF2FEF8CE226
:10034000915020408040E1F700C00000C8010E94A9
:1003500000019FEF2FEF8CE2915020408040E1F7A9
:1003600000C00000C7010E9400010FB6F894DEBF74
:100370000FBECDBFC55ADF4F0FB6F894DEBF0FBE1C
:10038000CDBFDF91CF911F910F91FF90EF90089516
:1003900085E080938100EFE6F0E0808181608083DA
:1003A0001092850010928400089585E491E00E94E7
:1003B000000180E293E00E941E018AE291E00E9427
:1003C000000180E293E00E941E010E94E70480E2A7
:1003D00093E00E941E010C941905299A2FEF8FEFCC
:1003E0009CE2215080409040E1F700C00000299835
:1003F00008958CE491E00C9400010E94ED012FEF30
:100400003FEF86E791E02150304080409040D9F79F
:1004100000C000000E94C8010E9426010C94D50172
:100420008091020190910301A0910401B091050116
:10043000181619061A061B067CF00E94D50186E0E4
:1004400090E0A0E0B0E08093020190930301A093BC
:100450000401B093050111C00397A105B1056CF427
:100460002FEF8FE796E1215080409040E1F700C0E8
:10047000000086E591E00E940001809102019091C8
:100480000301A0910401B09105010197A109B109EF
:100490008093020190930301A0930401B09305019E
:1004A00008958091060190910701A0910801B091F3
:1004B0000901181619061A061B06B4F02BE531E0DF
:1004C0004DE551E066E671E08FE691E00E946D0532
:1004D0008AE090E0A0E0B0E08093060190930701ED
:1004E000A0930801B0930901809106019091070142
:1004F000A0910801B09109010197A109B109809368
:10050000060190930701A0930801B0930901089593
:1005100080910001909101010E94430168E771E020
:100520000E94D006892BC9F080916F008E7F809346
:100530006F006DE771E082E891E00E9457012FEFB4
:100540008FEF96E8215080409040E1F700C0000016
:1005500080916F00816080936F000895E0910001A9
:10056000F0910101118210821092590410925804E6
:100570000895CF93DF9380916F008E7F80936F00FB
:100580002FEF8FE796E1215080409040E1F700C0C7
:1005900000008091DA049091DB04019741F41092FD
:1005A000DB041092DA040E9410020E9451022FEF25
:1005B0008FE796E1215080409040E1F700C00000B5
:1005C00080916F00816080936F000E946B00882390
:1005D00009F482C0C0910001D091010180915804BA
:1005E00090915904C80FD91F0E947100888380918F
:1005F000580490915904019690935904809358049B
:100600000E946B008111E6CF8091580490915904AB
:10061000181619060CF060C080910001909101013C
:100620000E943701892B51F080916F008E7F80935B
:100630006F000E9419050E94880216C0C091000137
:10064000D09101016FE871E0CE010E94D006892BA4
:1006500099F080916F008E7F80936F000E94190542
:1006600084E991E00E9400010E942D0180916F00B9
:10067000816080936F002CC06AE971E0CE010E9416
:10068000D006892B71F080916F008E7F80936F0070
:100690000E94190580910001909101010E942E0590
:1006A000E3CF60EA71E0CE010E94D006892B81F091
:1006B0000E94850386E090E0A0E0B0E08093020114
:1006C00090930301A0930401B09305010E942D01B2
:1006D000DF91CF910C94AE02DF91CF9108951F92DC
:1006E0000F920FB60F9211248F939F9381E090E0A9
:1006F0009093DB048093DA049F918F910F900FBE4B
:100700000F901F901895259A08952D9A2FEF8FE737
:1007100094E0215080409040E1F700C000002D9807
:100720002FEF8FE794E0215080409040E1F700C028
:10073000000008958F929F92AF92BF92CF92DF9266
:10074000EF92FF920F931F93CF93DF93CDB7DEB756
:10075000C258D1090FB6F894DEBF0FBECDBFD82E58
:10076000C92E962E872EB42EA52EEDB6FEB60E946B
:10077000D800882371F083EA91E00E9400012FEFF6
:100780003FEF86E8215030408040E1F700C0000094
:1007900009C00E946B008111EACFEDCF0E946B006F
:1007A000882321F00E94D8008823C1F380EB91E0D8
:1007B0009F938F9380EC91E09F938F938E01085CC1
:1007C0001F4F1F930F930E94EA06C8010E94000169
:1007D0009FEF2FEF36E8915020403040E1F700C006
:1007E00000000F900F900F900F900F900F9004C08B
:1007F0000E946B00882321F00E94D8008823C1F357
:1008000089ED91E00E9400018FEF9FEF26E8815073
:1008100090402040E1F700C0000004C00E946B003F
:10082000882321F00E94D8008823C1F388EE91E04C
:100830000E9400013FEF8FEF9CE2315080409040DA
:10084000E1F700C0000004C00E946B00882321F083
:100850000E94D8008823C1F38F929F92CF92DF929B
:1008600083EF91E09F938F938E010F5F1F4F1F9334
:100870000F930E94EA06C8010E9400012FEF3FEF8C
:1008800086E8215030408040E1F700C000002DB7DD
:100890003EB7285F3F4F0FB6F8943EBF0FBE2DBF47
:1008A00004C00E946B00882321F00E94D800882396
:1008B000C1F3EB2DFA2DDF010D900020E9F78D013A
:1008C0000E1B1F0B0C5F1F4F1F930F938FE092E0C7
:1008D0009F938F936E013FE6C30ED11CDF92CF92A0
:1008E0000E94EA06C6010E9400018FEF9FEF2CE2F2
:1008F000815090402040E1F700C000000F900F9021
:100900000F900F900F900F9004C00E946B008823EF
:1009100021F00E94D8008823C1F38DB79EB7801BB9
:10092000910B0FB6F8949EBF0FBE8DBF0DB71EB7CB
:100930000F5F1F4FAF92BF9287E592E09F938F9317
:100940001F930F930E94EA06C8010E9400019FEFC7
:100950002FE736E081E09150204030408040D9F7C9
:1009600000C000000F900F900F900F900F900F900D
:1009700004C00E946B00882321F00E94D8008823C5
:10098000C1F38FE192E00E9400019FEF2FEF39E564
:10099000915020403040E1F700C000000FB6F894BD
:1009A000FEBE0FBEEDBECE57DF4F0FB6F894DEBFD2
:1009B0000FBECDBFDF91CF911F910F91FF90EF90B0
:1009C000DF90CF90BF90AF909F908F9008958DE271
:1009D00092E00C94000180910A0190910B01A0918A
:1009E0000C01B0910D01B7FF10C08091DC04909113
:1009F000DD04892B51F488E392E00E94000181E03C
:100A000090E09093DD048093DC0480910A01909142
:100A10000B01A0910C01B0910D010197A109B10941
:100A200080930A0190930B01A0930C01B0930D01E8
:100A3000089585E492E00E9400011092DD04109276
:100A4000DC048AE090E0A0E0B0E080930A0190939B
:100A50000B01A0930C01B0930D010895EF92FF924A
:100A60000F931F93CF93DF93CDB7DEB7EDB6FEB6EE
:100A7000DC010D900020E9F79D01281B390B2C5F4C
:100A80003F4F4DB75EB7421B530B0FB6F8945EBF96
:100A90000FBE4DBF0DB71EB70F5F1F4F9F938F93B4
:100AA00082E592E09F938F931F930F930E94EA0633
:100AB000C8010E9447060F900F900F900F900F9063
:100AC0000F900FB6F894FEBE0FBEEDBEDF91CF9132
:100AD0001F910F91FF90EF9008950F931F93CF9365
:100AE000DF93CDB7DEB7C659D1090FB6F894DEBF94
:100AF0000FBECDBF5F934F933F932F937F936F9321
:100B00009F938F938CE592E09F938F938E010F5F5D
:100B10001F4F1F930F930E94EA06A80162E67EE131
:100B200088E892E00E949A03C8010E9447060FB627
:100B3000F894DEBF0FBECDBFCA56DF4F0FB6F89494
:100B4000DEBF0FBECDBFDF91CF911F910F910895F2
:100B50000E9483030E94FD010E94B902FDCF0F9302
:100B60001F93CF93DF938230910510F482E090E0E1
:100B7000E091E004F091E10420E030E0A0E0B0E09A
:100B8000309719F14081518102811381481759072B
:100B9000C8F08417950769F4109731F012960C93FA
:100BA000129713961C9327C00093E0041093E1045E
:100BB00022C02115310519F04217530718F49A0184
:100BC000BD01EF01DF01F801DBCF21153105F9F09F
:100BD000281B390B2430310580F48A819B816115F3
:100BE000710521F0FB019383828304C09093E1049B
:100BF0008093E004FE01329644C0FE01E20FF31F31
:100C00008193919322503109398328833AC02091EE
:100C1000DE043091DF04232B41F420911001309148
:100C200011013093DF042093DE0420910E013091F6
:100C30000F012115310541F42DB73EB74091120146
:100C400050911301241B350BE091DE04F091DF0479
:100C5000E217F307A0F42E1B3F0B2817390778F093
:100C6000AC014E5F5F4F2417350748F04E0F5F1FF2
:100C70005093DF044093DE048193919302C0E0E03F
:100C8000F0E0CF01DF91CF911F910F910895CF93A5
:100C9000DF93009709F481C0FC013297138212821E
:100CA000A091E004B091E104109781F4208131819A
:100CB000820F931F2091DE043091DF04281739073B
:100CC00051F5F093DF04E093DE0467C0ED0120E00E
:100CD00030E0CE17DF0740F44A815B819E01411569
:100CE0005105F1F0EA01F5CFD383C28340815181F0
:100CF000840F951FC817D90759F488819981840FEB
:100D0000951F0296918380838A819B81938382833E
:100D10002115310529F4F093E104E093E0043DC08E
:100D2000E901FB83EA8349915991C40FD51FEC1760
:100D3000FD0761F480819181840F951F0296E9017E
:100D400099838883828193819B838A83E0E0F0E0AA
:100D500012968D919C911397009719F0FD01DC017B
:100D6000F7CF8D919C9111979D012E5F3F4F820F80
:100D7000931F2091DE043091DF042817390769F4AE
:100D8000309729F41092E1041092E00402C013821B
:100D90001282B093DF04A093DE04DF91CF91089517
:100DA000FB0151915523A9F0BF01DC014D9145177D
:100DB0004111E1F759F4CD010190002049F04D9126
:100DC00040154111C9F3FB014111EFCF81E090E0E3
:100DD00001970895AEE0B0E0E0EFF6E00C949109E1
:100DE0000D891E8986E08C831A8309838FEF9FE724
:100DF0009E838D83AE01475E5F4F6F89788DCE01F4
:100E000001960E940C07EF81F885E00FF11F108218
:100E10002E96E4E00C94AD09ACE0B0E0E2E1F7E03E
:100E20000C9483096C017B018A01FC0117821682F4
:100E3000838181FFBEC1CE0101964C01F6019381F1
:100E4000F70193FD859193FF81917F01882309F438
:100E5000ACC1853239F493FD859193FF81917F0177
:100E6000853229F4B60190E00E94F508E7CF512CB5
:100E7000312C20E02032A0F48B3269F030F4803243
:100E800059F0833269F420612CC08D3239F08033FF
:100E900039F4216026C02260246023C0286021C06C
:100EA00027FD27C030ED380F3A3078F426FF06C012
:100EB000FAE05F9E300D1124532E13C08AE0389E55
:100EC000300D1124332E20620CC08E3221F426FD09
:100ED0006CC1206406C08C3611F4206802C08836CC
:100EE00041F4F70193FD859193FF81917F01811179
:100EF000C1CF982F9F7D9554933028F40C5F1F4FDE
:100F00009FE399830DC0833631F0833771F08335C9
:100F100009F05BC022C0F801808189830E5F1F4FFA
:100F200044244394512C540115C03801F2E06F0E53
:100F3000711CF801A080B18026FF03C0652D70E010
:100F400002C06FEF7FEFC5012C870E94EA082C01D9
:100F500083012C852F77222E17C03801F2E06F0E07
:100F6000711CF801A080B18026FF03C0652D70E0E0
:100F700002C06FEF7FEFC5012C870E94DF082C01B4
:100F80002C852068222E830123FC1BC0832D90E03A
:100F900048165906B0F4B60180E290E00E94F508C8
:100FA0003A94F4CFF50127FC859127FE81915F01EA
:100FB000B60190E00E94F50831103A94F1E04F1A22
:100FC00051084114510471F7E6C0843611F0893696
:100FD00039F5F80127FF07C0608171818281938113
:100FE0000C5F1F4F08C060817181072E000C880BB9
:100FF000990B0E5F1F4F2F76722E97FF09C09095A9
:101000008095709561957F4F8F4F9F4F2068722E0E
:101010002AE030E0A4010E942509A82EA81844C0A7
:10102000853729F42F7EB22E2AE030E025C0F22F3A
:10103000F97FBF2E8F36C1F018F4883579F0B5C02E
:10104000803719F0883721F0B0C02F2F2061B22EE1
:10105000B4FE0DC08B2D8460B82E09C024FF0AC0D9
:101060009F2F9660B92E06C028E030E005C020E131
:1010700030E002C020E132E0F801B7FE07C0608135
:101080007181828193810C5F1F4F06C060817181E5
:1010900080E090E00E5F1F4FA4010E942509A82E5A
:1010A000A818FB2DFF777F2E76FE0BC0372D3E7FD5
:1010B000A51450F474FE0AC072FC08C0372D3E7EA1
:1010C00005C0BA2C372D03C0BA2C01C0B52C34FF93
:1010D0000DC0FE01EA0DF11D8081803311F4397ECF
:1010E00009C032FF06C0B394B39404C0832F86783E
:1010F00009F0B39433FD13C030FF06C0B31498F465
:101100003A0C532C5B1810C0B31470F4B60180E293
:1011100090E03C870E94F508B3943C85F5CFB3146A
:1011200018F43B1802C05A2C312C34FF12C0B601FF
:1011300080E390E03C870E94F5083C8532FF17C0B1
:1011400031FD03C088E790E002C088E590E0B60179
:101150000CC0832F867859F031FF02C08BE201C0AA
:1011600080E237FD8DE2B60190E00E94F508A514FB
:1011700038F4B60180E390E00E94F5085A94F7CF66
:10118000AA94F401EA0DF11D8081B60190E00E945D
:10119000F508A110F5CF332009F450CEB60180E256
:1011A00090E00E94F5083A94F6CFF6018681978187
:1011B00002C08FEF9FEF2C96E2E10C949F09FC0197
:1011C0000590615070400110D8F7809590958E0F72
:1011D0009F1F0895FC016150704001900110D8F7E5
:1011E000809590958E0F9F1F08950F931F93CF9317
:1011F000DF93182F092FEB018B8181FD03C08FEF47
:101200009FEF1EC082FF0FC02E813F818C819D8188
:101210002817390774F4E881F981CF010196998381
:101220008883108306C0E885F985812F0995892B6D
:1012300031F78E819F8101969F838E83812F902F1E
:10124000DF91CF911F910F910895FA01AA272830BD
:1012500051F1203181F1E8946F936E7F6E5F7F4F83
:101260008F4F9F4FAF4FB1E03ED0B4E03CD0670FFF
:10127000781F891F9A1FA11D680F791F8A1F911D52
:10128000A11D6A0F711D811D911DA11D20D009F4A2
:1012900068943F912AE0269F11243019305D3193E4
:1012A000DEF6CF010895462F4770405D4193B3E0CD
:1012B0000FD0C9F7F6CF462F4F70405D4A3318F074
:1012C000495D31FD4052419302D0A9F7EACFB4E025
:1012D000A6959795879577956795BA95C9F70097DD
:1012E0006105710508959B01AC010A2E069457957E
:1012F000479537952795BA95C9F7620F731F841FD5
:10130000951FA01D08952F923F924F925F926F926A
:101310007F928F929F92AF92BF92CF92DF92EF9285
:10132000FF920F931F93CF93DF93CDB7DEB7CA1B06
:10133000DB0B0FB6F894DEBF0FBECDBF09942A8831
:10134000398848885F846E847D848C849B84AA84D9
:10135000B984C884DF80EE80FD800C811B81AA8166
:10136000B981CE0FD11D0FB6F894DEBF0FBECDBF31
:08137000ED010895F894FFCF90
:101378005A04060000000A0000000A0000000000ED
:10138800E2042000534D533A0041542B434D475338
:101398003D25730D0A0025731A0041542B434D4710
:1013A800463D310D0A0041542B435343533D5543A9
:1013B80053320D0A00415445300D0A0041542B4365
:1013C800504F460D0A0041540D0A0079006F702EE7
:1013D800416E746F6E00343430332E323745003529
:1013E8003631392E30384E0070696E6700706F6E76
:1013F80067002B37393837353335393936390052A4
:10140800494E47004154410D0A00475047474100A3
:101418004F4B0041542B43474154543D310D0A0072
:10142800696E7465726E65742E6D74732E727500B4
:1014380041542B434744434F4E543D312C2249508D
:10144800222C222573220D0A0041542B4347414385
:10145800543D312C310D0A0041542B434946535217
:101468000D0A0041542B43495053544152543D22D4
:10147800554450222C222573222C25640D0A004144
:10148800542B43495053454E443D25640D0A0041B1
:10149800542B434950434C4F53450D0A0041542B9C
:1014A8004750533D310D0A0041542B475053524485
:1014B8003D310D0A0041542B47505352443D300DE5
:1014C8000A004750533A3A25730D0A005543364BE4
:1014D80046513E415052532C54435049502A2C7186
:1014E80041432C54324752454543453A2125732FF1
:1014F8003025732573257300616E746F776B612EC9
:0415080072750000F8
:00000001FF
