:100000000C9434000C9451000C9451000C94510049
:100010000C9451000C9451000C9451000C9451001C
:100020000C9451000C9451000C9451000C9451000C
:100030000C9451000C9473030C9451000C945100D7
:100040000C9451000C9451000C9488000C94B30053
:100050000C9451000C9451000C9451000C945100DC
:100060000C9451000C94510011241FBECFEFD8E026
:10007000DEBFCDBF12E0A0E0B1E0E6E0F2E102C0F9
:1000800005900D92A03BB107D9F723E0A0EBB2E0B9
:1000900001C01D92AE3BB207E1F70E94E8040C9448
:1000A00001090C9400001092C50087E08093C40001
:1000B0001092C000E2ECF0E080818660808388E9E5
:1000C0008093C1001092F3021092F2021092B102DA
:1000D0001092B00208959091F3028091F202892764
:1000E00008950E946B008823E1F39091F202E92FBA
:1000F000F0E0EC50FD4F80819F5F903408F090E07D
:100100009093F2029091C10090689093C10008957D
:100110001F920F920FB60F9211248F939F93EF931C
:10012000FF93E091F30281E08E0F803408F080E0CD
:100130009091F202891306C08091C1008F7780935D
:10014000C10008C09091C600F0E0EC50FD4F9083D4
:100150008093F302FF91EF919F918F910F900FBECB
:100160000F901F9018951F920F920FB60F921124A7
:100170008F93EF93FF93E091B0028091B1028E13C1
:1001800006C08091C1008F7D8093C1000EC0F0E059
:10019000EE54FD4F80818093C6008091B0028F5F46
:1001A000803408F080E08093B002FF91EF918F914E
:1001B0000F900FBE0F901F9018958091B1028F5F26
:1001C000803408F080E09091B00289270895E09192
:1001D000B10291E09E0F903408F090E0F0E0EE5410
:1001E000FD4F80838091B0029817E1F39093B102A4
:1001F0008091C10080628093C100089580E4E2EBA9
:10020000F2E0DF011D928A95E9F71092B10208959C
:100210000F931F93CF93DF9300D0CDB7DEB78983C1
:100220009A830E94FE008981082F9A81192FF80174
:1002300081918F01882319F00E94E700F8CF0F9079
:100240000F90DF91CF911F910F910895E6E6FEE0A8
:100250003197F1F700000197C9F708950E94530004
:1002600078948CE291E00C94260180E4E4EFF2E0D3
:10027000DF011D928A95E9F71092F302089564E177
:1002800071E00E94170621E030E0892B11F420E094
:1002900030E0C90108951092340364E171E00E94D6
:1002A0001706FC0134969FE3A4E3B3E001900D929E
:1002B0009A95E1F71092730384E393E00895EF9227
:1002C000FF920F931F93CF93DF93CDB7DEB7CB553C
:1002D000D1090FB6F894DEBF0FBECDBF9F938F93A9
:1002E00089E191E09F938F938E010F5B1F4F1F93C6
:1002F0000F936B966FAF6B976C967FAF6C970E9466
:1003000031066C967FAD6C977F936B966FAD6B9754
:100310006F9386E291E09F938F93CE0101967C01CB
:100320009F938F930E9431068AE291E00E94080118
:100330009FEF2FEF8CE2915020408040E1F700C00A
:10034000000086E391E00E9408019FEF2FEF8CE20E
:10035000915020408040E1F700C00000C8010E9499
:1003600008019FEF2FEF8CE2915020408040E1F791
:1003700000C00000C7010E9408010FB6F894DEBF5C
:100380000FBECDBFC55ADF4F0FB6F894DEBF0FBE0C
:10039000CDBFDF91CF911F910F91FF90EF90089506
:1003A00085E080938100EFE6F0E0808181608083CA
:1003B0001092850010928400089585E491E00E94D7
:1003C000080188EE93E00E9426018AE291E00E94F3
:1003D000080188EE93E00E9426010E94620488EEE4
:1003E00093E00C942601299A2FEF8FEF9CE2215085
:1003F00080409040E1F700C00000299808958CE407
:1004000091E00C9408010E94F3012FEF3FEF86E783
:1004100091E02150304080409040D9F700C000006A
:100420000E94D0012FEF3FE782E392E0215030405D
:1004300080409040D9F700C000000E942E010C942B
:10044000DD018091020190910301A0910401B0911E
:100450000501181619061A061B067CF00E94DD011C
:1004600086E090E0A0E0B0E0809302019093030169
:10047000A0930401B093050111C00397A105B10534
:100480006CF42FEF8FE796E1215080409040E1F728
:1004900000C0000086E591E00E9408018091020101
:1004A00090910301A0910401B09105010197A10968
:1004B000B1098093020190930301A0930401B093CA
:1004C000050108958091060190910701A09108010E
:1004D000B0910901181619061A061B0684F08BE55F
:1004E00091E00E949E0389E190E0A0E0B0E080935B
:1004F000060190930701A0930801B0930901809130
:10050000060190910701A0910801B091090101979E
:10051000A109B1098093060190930701A0930801F6
:10052000B0930901089580910001909101010E940A
:100530004B0169EB71E00E941706892BC9F080918D
:100540006F008E7F80936F006EEB71E083EC91E023
:100550000E945F012FEF8FEF96E82150804090407E
:10056000E1F700C0000080916F00816080936F0010
:100570000895E0910001F091010111821082109222
:100580007503109274030895CF93DF9380916F00E9
:100590008E7F80936F002FEF8FE79DE0215080408A
:1005A0009040E1F700C000008091B6039091B7033E
:1005B000019751F41092B7031092B6030E942102E2
:1005C0000E9462020E94660480916F0081608093A5
:1005D0006F000E946B00882309F482C0C091000163
:1005E000D09101018091740390917503C80FD91FB8
:1005F0000E94710088838091740390917503019625
:1006000090937503809374030E946B008111E6CF71
:100610008091740390917503181619060CF060C050
:1006200080910001909101010E943F01892B51F0BE
:1006300080916F008E7F80936F000E9494040E94CF
:10064000930216C0C0910001D091010160ED71E0EC
:10065000CE010E941706892B99F080916F008E7F42
:1006600080936F000E94940485ED91E00E94080140
:100670000E94350180916F00816080936F002CC0D3
:100680006BED71E0CE010E941706892B71F080910D
:100690006F008E7F80936F000E9494048091000110
:1006A000909101010E94A904E3CF62EE71E0CE01B6
:1006B0000E941706892B81F00E94890386E090E052
:1006C000A0E0B0E08093020190930301A0930401A5
:1006D000B09305010E943501DF91CF910C94B902CE
:1006E000DF91CF9108951F920F920FB60F921124B0
:1006F0008F939F9381E090E09093B7038093B6032C
:100700009F918F910F900FBE0F901F901895259A73
:1007100008952D9A2FEF8FE794E02150804090406C
:10072000E1F700C000002D982FEF8FE794E02150F3
:1007300080409040E1F700C000000895EF92FF92E2
:100740000F931F93CF93DF93CDB7DEB7C051D24045
:100750000FB6F894DEBF0FBECDBF8C0185EE91E0E1
:100760000E9408012FEF3FEF89E521503040804083
:10077000E1F700C0000080EF91E00E9408019FEFC8
:100780002FEF30EE915020403040E1F700C00000E4
:100790008DEF91E00E9408018FEF9FEF20EE8150D6
:1007A00090402040E1F700C0000083E292E00E9408
:1007B00008013FEF8FEF91EC21E0315080409040F5
:1007C0002040D9F700C0000082E392E00E940801B7
:1007D0003FEF8FEF9CE2315080409040E1F700C046
:1007E00000008DE392E00E9408012FEF3FEF8BE2C3
:1007F00091E02150304080409040D9F700C0000087
:10080000F80101900020E9F73197E01BF10BFF930D
:10081000EF9383E692E09F938F937E012FEFE21A8E
:100820002DEFF20AFF92EF920E943106C7010E945B
:1008300008013FEF8FEF90EE315080409040E1F79C
:1008400000C00000B801CE0101960E941006CE0142
:1008500001960E9408012FEF3FEF86E821503040BB
:100860008040E1F700C0000080E292E00E940801B1
:100870009FEF2FEF36E8915020403040E1F700C065
:10088000000083E792E00E9408018FEF9FEF29E5C7
:10089000815090402040E1F700C000000F900F9081
:1008A0000F900F900F900F90C05FDD4F0FB6F89430
:1008B000DEBF0FBECDBFDF91CF911F910F91FF9093
:1008C000EF90089581E892E00C94080180910A016C
:1008D00090910B01A0910C01B0910D01B7FF10C0D8
:1008E0008091B8039091B903892B51F48CE892E080
:1008F0000E94080181E090E09093B9038093B803CF
:1009000080910A0190910B01A0910C01B0910D0111
:100910000197A109B10980930A0190930B01A0935B
:100920000C01B0930D01089589E992E00E9408013D
:100930001092B9031092B8038AE090E0A0E0B0E012
:1009400080930A0190930B01A0930C01B0930D01C9
:100950000895EF92FF920F931F93CF93DF93CDB73C
:10096000DEB7EDB6FEB6DC010D900020E9F79D0183
:10097000281B390B2C5F3F4F4DB75EB7421B530B03
:100980000FB6F8945EBF0FBE4DBF0DB71EB70F5F19
:100990001F4F9F938F9386EA92E09F938F931F93AD
:1009A0000F930E943106C8010E9487050F900F9097
:1009B0000F900F900F900F900FB6F894FEBE0FBEE1
:1009C000EDBEDF91CF911F910F91FF90EF900895B1
:1009D0000E9487030E9403020E94C402FDCF0F936E
:1009E0001F93CF93DF938230910510F482E090E063
:1009F000E091BC03F091BD0320E030E0A0E0B0E066
:100A0000309719F1408151810281138148175907AC
:100A1000C8F08417950769F4109731F012960C937B
:100A2000129713961C9327C00093BC031093BD0329
:100A300022C02115310519F04217530718F49A0105
:100A4000BD01EF01DF01F801DBCF21153105F9F020
:100A5000281B390B2430310580F48A819B81611574
:100A6000710521F0FB019383828304C09093BD0341
:100A70008093BC03FE01329644C0FE01E20FF31FD7
:100A80008193919322503109398328833AC0209170
:100A9000BA033091BB03232B41F420911001309114
:100AA00011013093BB032093BA0320910E013091C2
:100AB0000F012115310541F42DB73EB740911201C8
:100AC00050911301241B350BE091BA03F091BB0345
:100AD000E217F307A0F42E1B3F0B2817390778F015
:100AE000AC014E5F5F4F2417350748F04E0F5F1F74
:100AF0005093BB034093BA038193919302C0E0E00B
:100B0000F0E0CF01DF91CF911F910F910895CF9326
:100B1000DF93009709F481C0FC013297138212829F
:100B2000A091BC03B091BD03109781F42081318165
:100B3000820F931F2091BA033091BB032817390706
:100B400051F5F093BB03E093BA0367C0ED0120E0D9
:100B500030E0CE17DF0740F44A815B819E014115EA
:100B60005105F1F0EA01F5CFD383C2834081518171
:100B7000840F951FC817D90759F488819981840F6C
:100B8000951F0296918380838A819B8193838283C0
:100B90002115310529F4F093BD03E093BC033DC05A
:100BA000E901FB83EA8349915991C40FD51FEC17E2
:100BB000FD0761F480819181840F951F0296E90100
:100BC00099838883828193819B838A83E0E0F0E02C
:100BD00012968D919C911397009719F0FD01DC01FD
:100BE000F7CF8D919C9111979D012E5F3F4F820F02
:100BF000931F2091BA033091BB032817390769F47A
:100C0000309729F41092BD031092BC0302C01382E6
:100C10001282B093BB03A093BA03DF91CF910895E2
:100C2000FB01DC0101900D920020E1F70895FB012A
:100C300051915523A9F0BF01DC014D914517411198
:100C4000E1F759F4CD010190002049F04D91401594
:100C50004111C9F3FB014111EFCF81E090E0019711
:100C60000895AEE0B0E0E7E3F6E00C94D8080D8913
:100C70001E8986E08C831A8309838FEF9FE79E830A
:100C80008D83AE01475E5F4F6F89788DCE010196EF
:100C90000E945306EF81F885E00FF11F10822E9617
:100CA000E4E00C94F408ACE0B0E0E9E5F6E00C9484
:100CB000CA086C017B018A01FC01178216828381BC
:100CC00081FFBEC1CE0101964C01F6019381F7016F
:100CD00093FD859193FF81917F01882309F4ACC135
:100CE000853239F493FD859193FF81917F0185329F
:100CF00029F4B60190E00E943C08E7CF512C312C3A
:100D000020E02032A0F48B3269F030F4803259F0C8
:100D1000833269F420612CC08D3239F0803339F48C
:100D2000216026C02260246023C0286021C027FDE6
:100D300027C030ED380F3A3078F426FF06C0FAE0CD
:100D40005F9E300D1124532E13C08AE0389E300D63
:100D50001124332E20620CC08E3221F426FD6CC18A
:100D6000206406C08C3611F4206802C0883641F435
:100D7000F70193FD859193FF81917F018111C1CF8F
:100D8000982F9F7D9554933028F40C5F1F4F9FE35D
:100D900099830DC0833631F0833771F0833509F0C4
:100DA0005BC022C0F801808189830E5F1F4F4424FD
:100DB0004394512C540115C03801F2E06F0E711CA0
:100DC000F801A080B18026FF03C0652D70E002C04D
:100DD0006FEF7FEFC5012C870E9431082C01830142
:100DE0002C852F77222E17C03801F2E06F0E711C70
:100DF000F801A080B18026FF03C0652D70E002C01D
:100E00006FEF7FEFC5012C870E9426082C012C85EF
:100E10002068222E830123FC1BC0832D90E04816FE
:100E20005906B0F4B60180E290E00E943C083A9482
:100E3000F4CFF50127FC859127FE81915F01B60172
:100E400090E00E943C0831103A94F1E04F1A5108AA
:100E50004114510471F7E6C0843611F0893639F532
:100E6000F80127FF07C060817181828193810C5F47
:100E70001F4F08C060817181072E000C880B990BF1
:100E80000E5F1F4F2F76722E97FF09C090958095A9
:100E9000709561957F4F8F4F9F4F2068722E2AE08B
:100EA00030E0A4010E946C08A82EA81844C0853721
:100EB00029F42F7EB22E2AE030E025C0F22FF97FF0
:100EC000BF2E8F36C1F018F4883579F0B5C0803761
:100ED00019F0883721F0B0C02F2F2061B22EB4FE58
:100EE0000DC08B2D8460B82E09C024FF0AC09F2F2F
:100EF0009660B92E06C028E030E005C020E130E061
:100F000002C020E132E0F801B7FE07C060817181C4
:100F1000828193810C5F1F4F06C06081718180E0E8
:100F200090E00E5F1F4FA4010E946C08A82EA81825
:100F3000FB2DFF777F2E76FE0BC0372D3E7FA5144D
:100F400050F474FE0AC072FC08C0372D3E7E05C006
:100F5000BA2C372D03C0BA2C01C0B52C34FF0DC0FC
:100F6000FE01EA0DF11D8081803311F4397E09C044
:100F700032FF06C0B394B39404C0832F867809F07F
:100F8000B39433FD13C030FF06C0B31498F43A0C89
:100F9000532C5B1810C0B31470F4B60180E290E0DB
:100FA0003C870E943C08B3943C85F5CFB31418F4F9
:100FB0003B1802C05A2C312C34FF12C0B60180E31A
:100FC00090E03C870E943C083C8532FF17C031FD11
:100FD00003C088E790E002C088E590E0B6010CC04D
:100FE000832F867859F031FF02C08BE201C080E286
:100FF00037FD8DE2B60190E00E943C08A51438F45C
:10100000B60180E390E00E943C085A94F7CFAA947E
:10101000F401EA0DF11D8081B60190E00E943C08C8
:10102000A110F5CF332009F450CEB60180E290E054
:101030000E943C083A94F6CFF6018681978102C05F
:101040008FEF9FEF2C96E2E10C94E608FC010590EF
:10105000615070400110D8F7809590958E0F9F1FBA
:101060000895FC016150704001900110D8F78095FF
:1010700090958E0F9F1F08950F931F93CF93DF932B
:10108000182F092FEB018B8181FD03C08FEF9FEF9C
:101090001EC082FF0FC02E813F818C819D81281749
:1010A000390774F4E881F981CF0101969983888327
:1010B000108306C0E885F985812F0995892B31F7C2
:1010C0008E819F8101969F838E83812F902FDF9148
:1010D000CF911F910F910895FA01AA27283051F15D
:1010E000203181F1E8946F936E7F6E5F7F4F8F4F59
:1010F0009F4FAF4FB1E03ED0B4E03CD0670F781FB8
:10110000891F9A1FA11D680F791F8A1F911DA11D9C
:101110006A0F711D811D911DA11D20D009F46894D5
:101120003F912AE0269F11243019305D3193DEF67D
:10113000CF010895462F4770405D4193B3E00FD033
:10114000C9F7F6CF462F4F70405D4A3318F0495D1E
:1011500031FD4052419302D0A9F7EACFB4E0A69501
:101160009795879577956795BA95C9F70097610523
:10117000710508959B01AC010A2E06945795479579
:1011800037952795BA95C9F7620F731F841F951F6E
:10119000A01D08952F923F924F925F926F927F927F
:1011A0008F929F92AF92BF92CF92DF92EF92FF9277
:1011B0000F931F93CF93DF93CDB7DEB7CA1BDB0B23
:1011C0000FB6F894DEBF0FBECDBF09942A883988C8
:1011D00048885F846E847D848C849B84AA84B984CF
:1011E000C884DF80EE80FD800C811B81AA81B981DB
:1011F000CE0FD11D0FB6F894DEBF0FBECDBFED01EF
:061200000895F894FFCFF1
:10120600760306000000190000000A000000000036
:10121600BE032000534D533A0041542B434D4753D0
:101226003D25730D0A0025731A0041542B434D4783
:10123600463D310D0A0041542B435343533D55431C
:1012460053320D0A00415445300D0A0041542B43D8
:10125600504F460D0A0041540D0A005543364B4681
:10126600513E415052532C54435049502A2C7141FF
:10127600432C54324752454543453A213536313998
:101286002E30394E2F30343430332E323445796F88
:10129600702E416E746F6E20285543364B46512F83
:1012A6003329203134352E3530304D687A2F34339A
:1012B600332E3530304D687A0070696E6700706F76
:1012C6006E67002B373938373533353939363900BB
:1012D60052494E47004154410D0A0047505352446B
:1012E6003A004F4B0041542B435245473F0D0A00ED
:1012F60041542B43474154543D310D0A0041542B70
:10130600434744434F4E543D312C224950222C2210
:10131600696E7465726E65742E6D74732E727522A5
:101326000D0A0041542B43474143543D312C310DA6
:101336000A0041542B43494653520D0A0041542B8F
:1013460043495053544152543D22554450222C2275
:10135600616E746F776B612E7275222C3737373852
:101366000D0A0041542B43495053454E443D2564D4
:101376000D0A0041542B434950434C4F53450D0A27
:101386000041542B4750533D310D0A0041542B4721
:10139600505352443D310D0A0041542B475053528D
:1013A600443D300D0A004750533A3A25730D0A0062
:00000001FF
